{
  "_format": "hh-sol-artifact-1",
  "contractName": "FarmDAO",
  "sourceName": "contracts/Dao.sol",
  "abi": [
    {
      "inputs": [
        {
          "internalType": "string",
          "name": "_title",
          "type": "string"
        }
      ],
      "stateMutability": "nonpayable",
      "type": "constructor"
    },
    {
      "anonymous": false,
      "inputs": [
        {
          "indexed": false,
          "internalType": "address",
          "name": "farmerAddress1",
          "type": "address"
        },
        {
          "indexed": false,
          "internalType": "uint256",
          "name": "daoId",
          "type": "uint256"
        },
        {
          "indexed": false,
          "internalType": "string",
          "name": "daoName",
          "type": "string"
        }
      ],
      "name": "DaoCreated",
      "type": "event"
    },
    {
      "anonymous": false,
      "inputs": [
        {
          "indexed": false,
          "internalType": "uint256",
          "name": "daoId",
          "type": "uint256"
        }
      ],
      "name": "DaoVerified",
      "type": "event"
    },
    {
      "anonymous": false,
      "inputs": [
        {
          "indexed": false,
          "internalType": "uint256",
          "name": "daoId",
          "type": "uint256"
        },
        {
          "indexed": false,
          "internalType": "uint256",
          "name": "amountInvested",
          "type": "uint256"
        },
        {
          "indexed": false,
          "internalType": "uint256",
          "name": "totalAmountWithdrawn",
          "type": "uint256"
        }
      ],
      "name": "FundsWithdrawn",
      "type": "event"
    },
    {
      "anonymous": false,
      "inputs": [
        {
          "indexed": false,
          "internalType": "address",
          "name": "investor",
          "type": "address"
        },
        {
          "indexed": false,
          "internalType": "uint256",
          "name": "amount",
          "type": "uint256"
        }
      ],
      "name": "InvestmentAdded",
      "type": "event"
    },
    {
      "inputs": [
        {
          "internalType": "uint256",
          "name": "daoId",
          "type": "uint256"
        }
      ],
      "name": "addInvestment",
      "outputs": [],
      "stateMutability": "payable",
      "type": "function"
    },
    {
      "inputs": [
        {
          "internalType": "address",
          "name": "_farmer1",
          "type": "address"
        },
        {
          "internalType": "address",
          "name": "_farmer2",
          "type": "address"
        },
        {
          "internalType": "string",
          "name": "_description",
          "type": "string"
        },
        {
          "internalType": "string",
          "name": "_name1",
          "type": "string"
        },
        {
          "internalType": "string",
          "name": "_name2",
          "type": "string"
        },
        {
          "internalType": "string",
          "name": "_name",
          "type": "string"
        },
        {
          "internalType": "string",
          "name": "_farmReports",
          "type": "string"
        },
        {
          "internalType": "string",
          "name": "_financialReports",
          "type": "string"
        }
      ],
      "name": "createDao",
      "outputs": [],
      "stateMutability": "nonpayable",
      "type": "function"
    },
    {
      "inputs": [],
      "name": "daoCreated",
      "outputs": [
        {
          "internalType": "bool",
          "name": "",
          "type": "bool"
        }
      ],
      "stateMutability": "view",
      "type": "function"
    },
    {
      "inputs": [
        {
          "internalType": "address",
          "name": "",
          "type": "address"
        },
        {
          "internalType": "uint256",
          "name": "",
          "type": "uint256"
        }
      ],
      "name": "daoFarmers",
      "outputs": [
        {
          "internalType": "address",
          "name": "",
          "type": "address"
        }
      ],
      "stateMutability": "view",
      "type": "function"
    },
    {
      "inputs": [],
      "name": "daoID",
      "outputs": [
        {
          "internalType": "uint256",
          "name": "",
          "type": "uint256"
        }
      ],
      "stateMutability": "view",
      "type": "function"
    },
    {
      "inputs": [
        {
          "internalType": "uint256",
          "name": "",
          "type": "uint256"
        }
      ],
      "name": "daos",
      "outputs": [
        {
          "internalType": "address",
          "name": "address1",
          "type": "address"
        },
        {
          "internalType": "address",
          "name": "address2",
          "type": "address"
        },
        {
          "internalType": "string",
          "name": "name1",
          "type": "string"
        },
        {
          "internalType": "string",
          "name": "name2",
          "type": "string"
        },
        {
          "internalType": "string",
          "name": "description",
          "type": "string"
        },
        {
          "internalType": "string",
          "name": "farmReports",
          "type": "string"
        },
        {
          "internalType": "string",
          "name": "financialReports",
          "type": "string"
        },
        {
          "internalType": "string",
          "name": "name",
          "type": "string"
        },
        {
          "internalType": "uint256",
          "name": "id",
          "type": "uint256"
        },
        {
          "internalType": "uint256",
          "name": "amountInvested",
          "type": "uint256"
        },
        {
          "internalType": "bool",
          "name": "verified",
          "type": "bool"
        }
      ],
      "stateMutability": "view",
      "type": "function"
    },
    {
      "inputs": [],
      "name": "farmer1",
      "outputs": [
        {
          "internalType": "address",
          "name": "",
          "type": "address"
        }
      ],
      "stateMutability": "view",
      "type": "function"
    },
    {
      "inputs": [],
      "name": "farmer2",
      "outputs": [
        {
          "internalType": "address",
          "name": "",
          "type": "address"
        }
      ],
      "stateMutability": "view",
      "type": "function"
    },
    {
      "inputs": [],
      "name": "getAllDaos",
      "outputs": [
        {
          "components": [
            {
              "internalType": "address",
              "name": "address1",
              "type": "address"
            },
            {
              "internalType": "address",
              "name": "address2",
              "type": "address"
            },
            {
              "internalType": "string",
              "name": "name1",
              "type": "string"
            },
            {
              "internalType": "string",
              "name": "name2",
              "type": "string"
            },
            {
              "internalType": "string",
              "name": "description",
              "type": "string"
            },
            {
              "internalType": "string",
              "name": "farmReports",
              "type": "string"
            },
            {
              "internalType": "string",
              "name": "financialReports",
              "type": "string"
            },
            {
              "internalType": "string",
              "name": "name",
              "type": "string"
            },
            {
              "internalType": "uint256",
              "name": "id",
              "type": "uint256"
            },
            {
              "internalType": "uint256",
              "name": "amountInvested",
              "type": "uint256"
            },
            {
              "internalType": "address[]",
              "name": "investors",
              "type": "address[]"
            },
            {
              "internalType": "bool",
              "name": "verified",
              "type": "bool"
            }
          ],
          "internalType": "struct FarmDAO.Dao[]",
          "name": "",
          "type": "tuple[]"
        }
      ],
      "stateMutability": "view",
      "type": "function"
    },
    {
      "inputs": [],
      "name": "getAllInvestorInfo",
      "outputs": [
        {
          "components": [
            {
              "internalType": "address",
              "name": "investorAddress",
              "type": "address"
            },
            {
              "internalType": "string",
              "name": "name",
              "type": "string"
            }
          ],
          "internalType": "struct FarmDAO.Investor[]",
          "name": "",
          "type": "tuple[]"
        }
      ],
      "stateMutability": "view",
      "type": "function"
    },
    {
      "inputs": [
        {
          "internalType": "uint256",
          "name": "daoId",
          "type": "uint256"
        }
      ],
      "name": "getCurrentAmountAvailable",
      "outputs": [
        {
          "internalType": "uint256",
          "name": "",
          "type": "uint256"
        }
      ],
      "stateMutability": "view",
      "type": "function"
    },
    {
      "inputs": [
        {
          "internalType": "uint256",
          "name": "daoId",
          "type": "uint256"
        }
      ],
      "name": "getTotalAmountWithdrawn",
      "outputs": [
        {
          "internalType": "uint256",
          "name": "",
          "type": "uint256"
        }
      ],
      "stateMutability": "view",
      "type": "function"
    },
    {
      "inputs": [
        {
          "internalType": "uint256",
          "name": "daoId",
          "type": "uint256"
        }
      ],
      "name": "getTotalInvestment",
      "outputs": [
        {
          "internalType": "uint256",
          "name": "",
          "type": "uint256"
        }
      ],
      "stateMutability": "view",
      "type": "function"
    },
    {
      "inputs": [
        {
          "internalType": "address",
          "name": "investor",
          "type": "address"
        }
      ],
      "name": "getTotalInvestmentByInvestor",
      "outputs": [
        {
          "internalType": "uint256",
          "name": "",
          "type": "uint256"
        }
      ],
      "stateMutability": "view",
      "type": "function"
    },
    {
      "inputs": [
        {
          "internalType": "address",
          "name": "investor",
          "type": "address"
        }
      ],
      "name": "getTotalNumberOfDaosByInvestor",
      "outputs": [
        {
          "internalType": "uint256",
          "name": "",
          "type": "uint256"
        }
      ],
      "stateMutability": "view",
      "type": "function"
    },
    {
      "inputs": [],
      "name": "getVerifiedAddresses",
      "outputs": [
        {
          "internalType": "address[]",
          "name": "",
          "type": "address[]"
        }
      ],
      "stateMutability": "view",
      "type": "function"
    },
    {
      "inputs": [
        {
          "internalType": "address",
          "name": "",
          "type": "address"
        }
      ],
      "name": "investments",
      "outputs": [
        {
          "internalType": "uint256",
          "name": "",
          "type": "uint256"
        }
      ],
      "stateMutability": "view",
      "type": "function"
    },
    {
      "inputs": [
        {
          "internalType": "address",
          "name": "_address",
          "type": "address"
        }
      ],
      "name": "isAddressVerified",
      "outputs": [
        {
          "internalType": "bool",
          "name": "",
          "type": "bool"
        }
      ],
      "stateMutability": "view",
      "type": "function"
    },
    {
      "inputs": [
        {
          "internalType": "address",
          "name": "investor",
          "type": "address"
        }
      ],
      "name": "isInvestorRegistered",
      "outputs": [
        {
          "internalType": "bool",
          "name": "",
          "type": "bool"
        }
      ],
      "stateMutability": "view",
      "type": "function"
    },
    {
      "inputs": [],
      "name": "minimumInvestment",
      "outputs": [
        {
          "internalType": "uint256",
          "name": "",
          "type": "uint256"
        }
      ],
      "stateMutability": "view",
      "type": "function"
    },
    {
      "inputs": [],
      "name": "owner",
      "outputs": [
        {
          "internalType": "address",
          "name": "",
          "type": "address"
        }
      ],
      "stateMutability": "view",
      "type": "function"
    },
    {
      "inputs": [
        {
          "internalType": "address",
          "name": "",
          "type": "address"
        },
        {
          "internalType": "uint256",
          "name": "",
          "type": "uint256"
        }
      ],
      "name": "partialAmountPaid",
      "outputs": [
        {
          "internalType": "uint256",
          "name": "",
          "type": "uint256"
        }
      ],
      "stateMutability": "view",
      "type": "function"
    },
    {
      "inputs": [
        {
          "internalType": "string",
          "name": "name",
          "type": "string"
        }
      ],
      "name": "registerInvestor",
      "outputs": [],
      "stateMutability": "nonpayable",
      "type": "function"
    },
    {
      "inputs": [
        {
          "internalType": "uint256",
          "name": "",
          "type": "uint256"
        }
      ],
      "name": "registeredInvestors",
      "outputs": [
        {
          "internalType": "address",
          "name": "investorAddress",
          "type": "address"
        },
        {
          "internalType": "string",
          "name": "name",
          "type": "string"
        }
      ],
      "stateMutability": "view",
      "type": "function"
    },
    {
      "inputs": [
        {
          "internalType": "uint256",
          "name": "daoId",
          "type": "uint256"
        }
      ],
      "name": "removeDao",
      "outputs": [],
      "stateMutability": "nonpayable",
      "type": "function"
    },
    {
      "inputs": [
        {
          "internalType": "uint256",
          "name": "daoId",
          "type": "uint256"
        },
        {
          "internalType": "uint256",
          "name": "amountToRepay",
          "type": "uint256"
        }
      ],
      "name": "repayFunds",
      "outputs": [],
      "stateMutability": "nonpayable",
      "type": "function"
    },
    {
      "inputs": [],
      "name": "title",
      "outputs": [
        {
          "internalType": "string",
          "name": "",
          "type": "string"
        }
      ],
      "stateMutability": "view",
      "type": "function"
    },
    {
      "inputs": [
        {
          "internalType": "uint256",
          "name": "",
          "type": "uint256"
        }
      ],
      "name": "totalAmountWithdrawn",
      "outputs": [
        {
          "internalType": "uint256",
          "name": "",
          "type": "uint256"
        }
      ],
      "stateMutability": "view",
      "type": "function"
    },
    {
      "inputs": [
        {
          "internalType": "uint256",
          "name": "",
          "type": "uint256"
        }
      ],
      "name": "totalDAOs",
      "outputs": [
        {
          "internalType": "address",
          "name": "address1",
          "type": "address"
        },
        {
          "internalType": "address",
          "name": "address2",
          "type": "address"
        },
        {
          "internalType": "string",
          "name": "name1",
          "type": "string"
        },
        {
          "internalType": "string",
          "name": "name2",
          "type": "string"
        },
        {
          "internalType": "string",
          "name": "description",
          "type": "string"
        },
        {
          "internalType": "string",
          "name": "farmReports",
          "type": "string"
        },
        {
          "internalType": "string",
          "name": "financialReports",
          "type": "string"
        },
        {
          "internalType": "string",
          "name": "name",
          "type": "string"
        },
        {
          "internalType": "uint256",
          "name": "id",
          "type": "uint256"
        },
        {
          "internalType": "uint256",
          "name": "amountInvested",
          "type": "uint256"
        },
        {
          "internalType": "bool",
          "name": "verified",
          "type": "bool"
        }
      ],
      "stateMutability": "view",
      "type": "function"
    },
    {
      "inputs": [],
      "name": "totalInvestment",
      "outputs": [
        {
          "internalType": "uint256",
          "name": "",
          "type": "uint256"
        }
      ],
      "stateMutability": "view",
      "type": "function"
    },
    {
      "inputs": [
        {
          "internalType": "address",
          "name": "",
          "type": "address"
        }
      ],
      "name": "totalInvestmentByEachInvestor",
      "outputs": [
        {
          "internalType": "uint256",
          "name": "",
          "type": "uint256"
        }
      ],
      "stateMutability": "view",
      "type": "function"
    },
    {
      "inputs": [
        {
          "internalType": "address",
          "name": "",
          "type": "address"
        }
      ],
      "name": "totalNumberOfDaosByInvestor",
      "outputs": [
        {
          "internalType": "uint256",
          "name": "",
          "type": "uint256"
        }
      ],
      "stateMutability": "view",
      "type": "function"
    },
    {
      "inputs": [
        {
          "internalType": "uint256",
          "name": "daoId",
          "type": "uint256"
        }
      ],
      "name": "unverifyDao",
      "outputs": [],
      "stateMutability": "nonpayable",
      "type": "function"
    },
    {
      "inputs": [
        {
          "internalType": "uint256",
          "name": "daoId",
          "type": "uint256"
        }
      ],
      "name": "verifyDao",
      "outputs": [],
      "stateMutability": "nonpayable",
      "type": "function"
    },
    {
      "inputs": [
        {
          "internalType": "uint256",
          "name": "daoId",
          "type": "uint256"
        },
        {
          "internalType": "uint256",
          "name": "amountToWithdraw",
          "type": "uint256"
        }
      ],
      "name": "withDrawDFunds",
      "outputs": [],
      "stateMutability": "nonpayable",
      "type": "function"
    }
  ],
  "bytecode": "0x60806040523480156200001157600080fd5b506040516200553f3803806200553f833981810160405281019062000037919062000348565b8060009081620000489190620005e4565b50600a7313ef924eb7408e90278b86b659960afb00ddae619080600181540180825580915050600190039060005260206000200160009091909190916101000a81548173ffffffffffffffffffffffffffffffffffffffff021916908373ffffffffffffffffffffffffffffffffffffffff160217905550600a7323792579e2979a98d12a33a85e35914079304a569080600181540180825580915050600190039060005260206000200160009091909190916101000a81548173ffffffffffffffffffffffffffffffffffffffff021916908373ffffffffffffffffffffffffffffffffffffffff160217905550600a73dc4f6ea5856eda459286e8d0ef42e389d07137ff9080600181540180825580915050600190039060005260206000200160009091909190916101000a81548173ffffffffffffffffffffffffffffffffffffffff021916908373ffffffffffffffffffffffffffffffffffffffff16021790555050620006cb565b6000604051905090565b600080fd5b600080fd5b600080fd5b600080fd5b6000601f19601f8301169050919050565b7f4e487b7100000000000000000000000000000000000000000000000000000000600052604160045260246000fd5b6200021e82620001d3565b810181811067ffffffffffffffff8211171562000240576200023f620001e4565b5b80604052505050565b600062000255620001b5565b905062000263828262000213565b919050565b600067ffffffffffffffff821115620002865762000285620001e4565b5b6200029182620001d3565b9050602081019050919050565b60005b83811015620002be578082015181840152602081019050620002a1565b60008484015250505050565b6000620002e1620002db8462000268565b62000249565b9050828152602081018484840111156200030057620002ff620001ce565b5b6200030d8482856200029e565b509392505050565b600082601f8301126200032d576200032c620001c9565b5b81516200033f848260208601620002ca565b91505092915050565b600060208284031215620003615762000360620001bf565b5b600082015167ffffffffffffffff811115620003825762000381620001c4565b5b620003908482850162000315565b91505092915050565b600081519050919050565b7f4e487b7100000000000000000000000000000000000000000000000000000000600052602260045260246000fd5b60006002820490506001821680620003ec57607f821691505b602082108103620004025762000401620003a4565b5b50919050565b60008190508160005260206000209050919050565b60006020601f8301049050919050565b600082821b905092915050565b6000600883026200046c7fffffffffffffffffffffffffffffffffffffffffffffffffffffffffffffffff826200042d565b6200047886836200042d565b95508019841693508086168417925050509392505050565b6000819050919050565b6000819050919050565b6000620004c5620004bf620004b98462000490565b6200049a565b62000490565b9050919050565b6000819050919050565b620004e183620004a4565b620004f9620004f082620004cc565b8484546200043a565b825550505050565b600090565b6200051062000501565b6200051d818484620004d6565b505050565b5b8181101562000545576200053960008262000506565b60018101905062000523565b5050565b601f82111562000594576200055e8162000408565b62000569846200041d565b8101602085101562000579578190505b6200059162000588856200041d565b83018262000522565b50505b505050565b600082821c905092915050565b6000620005b96000198460080262000599565b1980831691505092915050565b6000620005d48383620005a6565b9150826002028217905092915050565b620005ef8262000399565b67ffffffffffffffff8111156200060b576200060a620001e4565b5b620006178254620003d3565b6200062482828562000549565b600060209050601f8311600181146200065c576000841562000647578287015190505b620006538582620005c6565b865550620006c3565b601f1984166200066c8662000408565b60005b8281101562000696578489015182556001820191506020850194506020810190506200066f565b86831015620006b65784890151620006b2601f891682620005a6565b8355505b6001600288020188555050505b505050505050565b614e6480620006db6000396000f3fe6080604052600436106102045760003560e01c806393cead5e11610118578063ccbbd260116100a0578063da9dd8bf1161006f578063da9dd8bf1461081f578063eb352c811461085c578063ec3246a214610885578063f3f0cd91146108ae578063fe714f64146108d957610204565b8063ccbbd26014610729578063ce99886d14610770578063d19fa48e1461079b578063d840b4df146107d857610204565b8063aa5b6d4c116100e7578063aa5b6d4c14610642578063b3afc4391461066d578063c89e6eca14610698578063c9525567146106d5578063ca3f04b0146106fe57610204565b806393cead5e1461054e57806396b988621461058b5780639abad058146105c85780639c5f83851461060557610204565b80634a79d50c1161019b578063574eb0331161016a578063574eb033146104645780635e60ab90146104a1578063610c8ced146104ca578063808237cc146104e65780638da5cb5b1461052357610204565b80634a79d50c146103a65780634c54114c146103d157806352ff15cd146103fc578063554609721461042757610204565b80631da7180d116101d75780631da7180d146102c35780632b925b251461030157806334422a471461032c5780633adfa93b1461036957610204565b8063042387c1146102095780630796ed391461023257806310ea13df1461026f5780631cb70fb91461029a575b600080fd5b34801561021557600080fd5b50610230600480360381019061022b919061382c565b610902565b005b34801561023e57600080fd5b506102596004803603810190610254919061398a565b610ea6565b60405161026691906139d0565b60405180910390f35b34801561027b57600080fd5b50610284610eef565b60405161029191906139d0565b60405180910390f35b3480156102a657600080fd5b506102c160048036038101906102bc9190613a17565b610ef5565b005b3480156102cf57600080fd5b506102ea60048036038101906102e59190613a17565b6114f3565b6040516102f8929190613ad2565b60405180910390f35b34801561030d57600080fd5b506103166115cf565b60405161032391906139d0565b60405180910390f35b34801561033857600080fd5b50610353600480360381019061034e9190613a17565b6115d5565b60405161036091906139d0565b60405180910390f35b34801561037557600080fd5b50610390600480360381019061038b919061398a565b6115f5565b60405161039d91906139d0565b60405180910390f35b3480156103b257600080fd5b506103bb61160d565b6040516103c89190613b02565b60405180910390f35b3480156103dd57600080fd5b506103e661169b565b6040516103f391906139d0565b60405180910390f35b34801561040857600080fd5b506104116116a1565b60405161041e9190613be2565b60405180910390f35b34801561043357600080fd5b5061044e60048036038101906104499190613a17565b61172f565b60405161045b91906139d0565b60405180910390f35b34801561047057600080fd5b5061048b60048036038101906104869190613c04565b611747565b6040516104989190613c44565b60405180910390f35b3480156104ad57600080fd5b506104c860048036038101906104c39190613a17565b611795565b005b6104e460048036038101906104df9190613a17565b61189d565b005b3480156104f257600080fd5b5061050d6004803603810190610508919061398a565b611b24565b60405161051a91906139d0565b60405180910390f35b34801561052f57600080fd5b50610538611b6d565b6040516105459190613c44565b60405180910390f35b34801561055a57600080fd5b5061057560048036038101906105709190613a17565b611b93565b60405161058291906139d0565b60405180910390f35b34801561059757600080fd5b506105b260048036038101906105ad919061398a565b611bb8565b6040516105bf91906139d0565b60405180910390f35b3480156105d457600080fd5b506105ef60048036038101906105ea9190613c04565b611bd0565b6040516105fc91906139d0565b60405180910390f35b34801561061157600080fd5b5061062c6004803603810190610627919061398a565b611bf5565b6040516106399190613c7a565b60405180910390f35b34801561064e57600080fd5b50610657611caa565b6040516106649190613f5c565b60405180910390f35b34801561067957600080fd5b5061068261224f565b60405161068f9190613c7a565b60405180910390f35b3480156106a457600080fd5b506106bf60048036038101906106ba9190613a17565b612262565b6040516106cc91906139d0565b60405180910390f35b3480156106e157600080fd5b506106fc60048036038101906106f79190613a17565b61227f565b005b34801561070a57600080fd5b50610713612387565b604051610720919061407d565b60405180910390f35b34801561073557600080fd5b50610750600480360381019061074b9190613a17565b612578565b6040516107679b9a9998979695949392919061409f565b60405180910390f35b34801561077c57600080fd5b5061078561294f565b6040516107929190613c44565b60405180910390f35b3480156107a757600080fd5b506107c260048036038101906107bd919061398a565b612975565b6040516107cf91906139d0565b60405180910390f35b3480156107e457600080fd5b506107ff60048036038101906107fa9190613a17565b61298d565b6040516108169b9a9998979695949392919061409f565b60405180910390f35b34801561082b57600080fd5b506108466004803603810190610841919061398a565b612d74565b6040516108539190613c7a565b60405180910390f35b34801561086857600080fd5b50610883600480360381019061087e9190614174565b612e22565b005b34801561089157600080fd5b506108ac60048036038101906108a791906141b4565b613057565b005b3480156108ba57600080fd5b506108c36131a2565b6040516108d09190613c44565b60405180910390f35b3480156108e557600080fd5b5061090060048036038101906108fb9190614174565b6131c8565b005b600860008154809291906109159061422c565b9190505550600080600854905060006040518061018001604052808c73ffffffffffffffffffffffffffffffffffffffff1681526020018b73ffffffffffffffffffffffffffffffffffffffff1681526020018981526020018881526020018a8152602001868152602001858152602001878152602001838152602001848152602001600067ffffffffffffffff8111156109b3576109b2613701565b5b6040519080825280602002602001820160405280156109e15781602001602082028036833780820191505090505b50815260200160001515815250905080600d600084815260200190815260200160002060008201518160000160006101000a81548173ffffffffffffffffffffffffffffffffffffffff021916908373ffffffffffffffffffffffffffffffffffffffff16021790555060208201518160010160006101000a81548173ffffffffffffffffffffffffffffffffffffffff021916908373ffffffffffffffffffffffffffffffffffffffff1602179055506040820151816002019081610aa79190614480565b506060820151816003019081610abd9190614480565b506080820151816004019081610ad39190614480565b5060a0820151816005019081610ae99190614480565b5060c0820151816006019081610aff9190614480565b5060e0820151816007019081610b159190614480565b506101008201518160080155610120820151816009015561014082015181600a019080519060200190610b4992919061345b565b5061016082015181600b0160006101000a81548160ff02191690831515021790555090505060098190806001815401808255809150506001900390600052602060002090600c020160009091909190915060008201518160000160006101000a81548173ffffffffffffffffffffffffffffffffffffffff021916908373ffffffffffffffffffffffffffffffffffffffff16021790555060208201518160010160006101000a81548173ffffffffffffffffffffffffffffffffffffffff021916908373ffffffffffffffffffffffffffffffffffffffff1602179055506040820151816002019081610c3d9190614480565b506060820151816003019081610c539190614480565b506080820151816004019081610c699190614480565b5060a0820151816005019081610c7f9190614480565b5060c0820151816006019081610c959190614480565b5060e0820151816007019081610cab9190614480565b506101008201518160080155610120820151816009015561014082015181600a019080519060200190610cdf92919061345b565b5061016082015181600b0160006101000a81548160ff0219169083151502179055505050600c60003073ffffffffffffffffffffffffffffffffffffffff1673ffffffffffffffffffffffffffffffffffffffff1681526020019081526020016000208b9080600181540180825580915050600190039060005260206000200160009091909190916101000a81548173ffffffffffffffffffffffffffffffffffffffff021916908373ffffffffffffffffffffffffffffffffffffffff160217905550600c60003073ffffffffffffffffffffffffffffffffffffffff1673ffffffffffffffffffffffffffffffffffffffff1681526020019081526020016000208a9080600181540180825580915050600190039060005260206000200160009091909190916101000a81548173ffffffffffffffffffffffffffffffffffffffff021916908373ffffffffffffffffffffffffffffffffffffffff1602179055506001600760006101000a81548160ff0219169083151502179055507f0acd9bdc7b641798c00bfa4f97f5c6c7dee74f9d8edde3bceb1294505b1db6588b8388604051610e9193929190614552565b60405180910390a15050505050505050505050565b6000600f60008373ffffffffffffffffffffffffffffffffffffffff1673ffffffffffffffffffffffffffffffffffffffff168152602001908152602001600020549050919050565b60045481565b610efe33612d74565b610f3d576040517f08c379a0000000000000000000000000000000000000000000000000000000008152600401610f34906145dc565b60405180910390fd5b600081118015610f4f57506008548111155b610f8e576040517f08c379a0000000000000000000000000000000000000000000000000000000008152600401610f8590614648565b60405180910390fd5b6000600d6000838152602001908152602001600020905080600b0160009054906101000a900460ff1615610ff7576040517f08c379a0000000000000000000000000000000000000000000000000000000008152600401610fee906146b4565b60405180910390fd5b600060018361100691906146d4565b9050600980549050811061104f576040517f08c379a000000000000000000000000000000000000000000000000000000000815260040161104690614754565b60405180910390fd5b826009828154811061106457611063614774565b5b90600052602060002090600c020160080154146110b6576040517f08c379a00000000000000000000000000000000000000000000000000000000081526004016110ad906147ef565b60405180910390fd5b600960016009805490506110ca91906146d4565b815481106110db576110da614774565b5b90600052602060002090600c0201600982815481106110fd576110fc614774565b5b90600052602060002090600c02016000820160009054906101000a900473ffffffffffffffffffffffffffffffffffffffff168160000160006101000a81548173ffffffffffffffffffffffffffffffffffffffff021916908373ffffffffffffffffffffffffffffffffffffffff1602179055506001820160009054906101000a900473ffffffffffffffffffffffffffffffffffffffff168160010160006101000a81548173ffffffffffffffffffffffffffffffffffffffff021916908373ffffffffffffffffffffffffffffffffffffffff160217905550600282018160020190816111ed9190614825565b50600382018160030190816112029190614825565b50600482018160040190816112179190614825565b506005820181600501908161122c9190614825565b50600682018160060190816112419190614825565b50600782018160070190816112569190614825565b506008820154816008015560098201548160090155600a820181600a019080546112819291906134e5565b50600b820160009054906101000a900460ff1681600b0160006101000a81548160ff02191690831515021790555090505060098054806112c4576112c361490d565b5b60019003818190600052602060002090600c0201600080820160006101000a81549073ffffffffffffffffffffffffffffffffffffffff02191690556001820160006101000a81549073ffffffffffffffffffffffffffffffffffffffff02191690556002820160006113379190613537565b6003820160006113479190613537565b6004820160006113579190613537565b6005820160006113679190613537565b6006820160006113779190613537565b6007820160006113879190613537565b60088201600090556009820160009055600a820160006113a79190613577565b600b820160006101000a81549060ff021916905550509055600d6000848152602001908152602001600020600080820160006101000a81549073ffffffffffffffffffffffffffffffffffffffff02191690556001820160006101000a81549073ffffffffffffffffffffffffffffffffffffffff02191690556002820160006114319190613537565b6003820160006114419190613537565b6004820160006114519190613537565b6005820160006114619190613537565b6006820160006114719190613537565b6007820160006114819190613537565b60088201600090556009820160009055600a820160006114a19190613577565b600b820160006101000a81549060ff021916905550507fa06f724666d0a2bde56689ccf4d2e4b5e3e76d852cf31aa25c2e214db33ffe5f836040516114e691906139d0565b60405180910390a1505050565b600b818154811061150357600080fd5b90600052602060002090600202016000915090508060000160009054906101000a900473ffffffffffffffffffffffffffffffffffffffff169080600101805461154c906142a3565b80601f0160208091040260200160405190810160405280929190818152602001828054611578906142a3565b80156115c55780601f1061159a576101008083540402835291602001916115c5565b820191906000526020600020905b8154815290600101906020018083116115a857829003601f168201915b5050505050905082565b60055481565b6000600d6000838152602001908152602001600020600901549050919050565b600f6020528060005260406000206000915090505481565b6000805461161a906142a3565b80601f0160208091040260200160405190810160405280929190818152602001828054611646906142a3565b80156116935780601f1061166857610100808354040283529160200191611693565b820191906000526020600020905b81548152906001019060200180831161167657829003601f168201915b505050505081565b60085481565b6060600a80548060200260200160405190810160405280929190818152602001828054801561172557602002820191906000526020600020905b8160009054906101000a900473ffffffffffffffffffffffffffffffffffffffff1673ffffffffffffffffffffffffffffffffffffffff16815260200190600101908083116116db575b5050505050905090565b60106020528060005260406000206000915090505481565b600c602052816000526040600020818154811061176357600080fd5b906000526020600020016000915091509054906101000a900473ffffffffffffffffffffffffffffffffffffffff1681565b61179e33612d74565b6117dd576040517f08c379a00000000000000000000000000000000000000000000000000000000081526004016117d4906145dc565b60405180910390fd5b6000811180156117ef57506008548111155b61182e576040517f08c379a000000000000000000000000000000000000000000000000000000000815260040161182590614648565b60405180910390fd5b6000600d60008381526020019081526020016000209050600081600b0160006101000a81548160ff0219169083151502179055507fa06f724666d0a2bde56689ccf4d2e4b5e3e76d852cf31aa25c2e214db33ffe5f8260405161189191906139d0565b60405180910390a15050565b6000600d600083815260200190815260200160002090508060000160009054906101000a900473ffffffffffffffffffffffffffffffffffffffff1673ffffffffffffffffffffffffffffffffffffffff163373ffffffffffffffffffffffffffffffffffffffff161415801561196457508060010160009054906101000a900473ffffffffffffffffffffffffffffffffffffffff1673ffffffffffffffffffffffffffffffffffffffff163373ffffffffffffffffffffffffffffffffffffffff1614155b6119a3576040517f08c379a000000000000000000000000000000000000000000000000000000000815260040161199a906149ae565b60405180910390fd5b348160090160008282546119b791906149ce565b9250508190555080600a01339080600181540180825580915050600190039060005260206000200160009091909190916101000a81548173ffffffffffffffffffffffffffffffffffffffff021916908373ffffffffffffffffffffffffffffffffffffffff16021790555034600e60003373ffffffffffffffffffffffffffffffffffffffff1673ffffffffffffffffffffffffffffffffffffffff1681526020019081526020016000206000828254611a7291906149ce565b92505081905550600f60003373ffffffffffffffffffffffffffffffffffffffff1673ffffffffffffffffffffffffffffffffffffffff1681526020019081526020016000206000815480929190611ac99061422c565b91905055503460046000828254611ae091906149ce565b925050819055507f0e9450c60b5852553342ccda7c9307802902542d41f8d2a9d1d4e0d13e97355c3334604051611b18929190614a02565b60405180910390a15050565b6000600e60008373ffffffffffffffffffffffffffffffffffffffff1673ffffffffffffffffffffffffffffffffffffffff168152602001908152602001600020549050919050565b600360009054906101000a900473ffffffffffffffffffffffffffffffffffffffff1681565b600080600d600084815260200190815260200160002090508060090154915050919050565b60066020528060005260406000206000915090505481565b6011602052816000526040600020602052806000526040600020600091509150505481565b600080600090505b600b80549050811015611c9f578273ffffffffffffffffffffffffffffffffffffffff16600b8281548110611c3557611c34614774565b5b906000526020600020906002020160000160009054906101000a900473ffffffffffffffffffffffffffffffffffffffff1673ffffffffffffffffffffffffffffffffffffffff1603611c8c576001915050611ca5565b8080611c979061422c565b915050611bfd565b50600090505b919050565b6060600060085467ffffffffffffffff811115611cca57611cc9613701565b5b604051908082528060200260200182016040528015611d0357816020015b611cf0613598565b815260200190600190039081611ce85790505b5090506000600190505b600854811161224757600d6000828152602001908152602001600020604051806101800160405290816000820160009054906101000a900473ffffffffffffffffffffffffffffffffffffffff1673ffffffffffffffffffffffffffffffffffffffff1673ffffffffffffffffffffffffffffffffffffffff1681526020016001820160009054906101000a900473ffffffffffffffffffffffffffffffffffffffff1673ffffffffffffffffffffffffffffffffffffffff1673ffffffffffffffffffffffffffffffffffffffff168152602001600282018054611df1906142a3565b80601f0160208091040260200160405190810160405280929190818152602001828054611e1d906142a3565b8015611e6a5780601f10611e3f57610100808354040283529160200191611e6a565b820191906000526020600020905b815481529060010190602001808311611e4d57829003601f168201915b50505050508152602001600382018054611e83906142a3565b80601f0160208091040260200160405190810160405280929190818152602001828054611eaf906142a3565b8015611efc5780601f10611ed157610100808354040283529160200191611efc565b820191906000526020600020905b815481529060010190602001808311611edf57829003601f168201915b50505050508152602001600482018054611f15906142a3565b80601f0160208091040260200160405190810160405280929190818152602001828054611f41906142a3565b8015611f8e5780601f10611f6357610100808354040283529160200191611f8e565b820191906000526020600020905b815481529060010190602001808311611f7157829003601f168201915b50505050508152602001600582018054611fa7906142a3565b80601f0160208091040260200160405190810160405280929190818152602001828054611fd3906142a3565b80156120205780601f10611ff557610100808354040283529160200191612020565b820191906000526020600020905b81548152906001019060200180831161200357829003601f168201915b50505050508152602001600682018054612039906142a3565b80601f0160208091040260200160405190810160405280929190818152602001828054612065906142a3565b80156120b25780601f10612087576101008083540402835291602001916120b2565b820191906000526020600020905b81548152906001019060200180831161209557829003601f168201915b505050505081526020016007820180546120cb906142a3565b80601f01602080910402602001604051908101604052809291908181526020018280546120f7906142a3565b80156121445780601f1061211957610100808354040283529160200191612144565b820191906000526020600020905b81548152906001019060200180831161212757829003601f168201915b505050505081526020016008820154815260200160098201548152602001600a82018054806020026020016040519081016040528092919081815260200182805480156121e657602002820191906000526020600020905b8160009054906101000a900473ffffffffffffffffffffffffffffffffffffffff1673ffffffffffffffffffffffffffffffffffffffff168152602001906001019080831161219c575b50505050508152602001600b820160009054906101000a900460ff1615151515815250508260018361221891906146d4565b8151811061222957612228614774565b5b6020026020010181905250808061223f9061422c565b915050611d0d565b508091505090565b600760009054906101000a900460ff1681565b600060106000838152602001908152602001600020549050919050565b61228833612d74565b6122c7576040517f08c379a00000000000000000000000000000000000000000000000000000000081526004016122be906145dc565b60405180910390fd5b6000811180156122d957506008548111155b612318576040517f08c379a000000000000000000000000000000000000000000000000000000000815260040161230f90614648565b60405180910390fd5b6000600d60008381526020019081526020016000209050600181600b0160006101000a81548160ff0219169083151502179055507fa06f724666d0a2bde56689ccf4d2e4b5e3e76d852cf31aa25c2e214db33ffe5f8260405161237b91906139d0565b60405180910390a15050565b60606000600b8054905067ffffffffffffffff8111156123aa576123a9613701565b5b6040519080825280602002602001820160405280156123e357816020015b6123d0613627565b8152602001906001900390816123c85790505b50905060005b600b8054905081101561257057600b818154811061240a57612409614774565b5b906000526020600020906002020160000160009054906101000a900473ffffffffffffffffffffffffffffffffffffffff1682828151811061244f5761244e614774565b5b60200260200101516000019073ffffffffffffffffffffffffffffffffffffffff16908173ffffffffffffffffffffffffffffffffffffffff1681525050600b81815481106124a1576124a0614774565b5b906000526020600020906002020160010180546124bd906142a3565b80601f01602080910402602001604051908101604052809291908181526020018280546124e9906142a3565b80156125365780601f1061250b57610100808354040283529160200191612536565b820191906000526020600020905b81548152906001019060200180831161251957829003601f168201915b505050505082828151811061254e5761254d614774565b5b60200260200101516020018190525080806125689061422c565b9150506123e9565b508091505090565b600d6020528060005260406000206000915090508060000160009054906101000a900473ffffffffffffffffffffffffffffffffffffffff16908060010160009054906101000a900473ffffffffffffffffffffffffffffffffffffffff16908060020180546125e7906142a3565b80601f0160208091040260200160405190810160405280929190818152602001828054612613906142a3565b80156126605780601f1061263557610100808354040283529160200191612660565b820191906000526020600020905b81548152906001019060200180831161264357829003601f168201915b505050505090806003018054612675906142a3565b80601f01602080910402602001604051908101604052809291908181526020018280546126a1906142a3565b80156126ee5780601f106126c3576101008083540402835291602001916126ee565b820191906000526020600020905b8154815290600101906020018083116126d157829003601f168201915b505050505090806004018054612703906142a3565b80601f016020809104026020016040519081016040528092919081815260200182805461272f906142a3565b801561277c5780601f106127515761010080835404028352916020019161277c565b820191906000526020600020905b81548152906001019060200180831161275f57829003601f168201915b505050505090806005018054612791906142a3565b80601f01602080910402602001604051908101604052809291908181526020018280546127bd906142a3565b801561280a5780601f106127df5761010080835404028352916020019161280a565b820191906000526020600020905b8154815290600101906020018083116127ed57829003601f168201915b50505050509080600601805461281f906142a3565b80601f016020809104026020016040519081016040528092919081815260200182805461284b906142a3565b80156128985780601f1061286d57610100808354040283529160200191612898565b820191906000526020600020905b81548152906001019060200180831161287b57829003601f168201915b5050505050908060070180546128ad906142a3565b80601f01602080910402602001604051908101604052809291908181526020018280546128d9906142a3565b80156129265780601f106128fb57610100808354040283529160200191612926565b820191906000526020600020905b81548152906001019060200180831161290957829003601f168201915b50505050509080600801549080600901549080600b0160009054906101000a900460ff1690508b565b600160009054906101000a900473ffffffffffffffffffffffffffffffffffffffff1681565b600e6020528060005260406000206000915090505481565b6009818154811061299d57600080fd5b90600052602060002090600c02016000915090508060000160009054906101000a900473ffffffffffffffffffffffffffffffffffffffff16908060010160009054906101000a900473ffffffffffffffffffffffffffffffffffffffff1690806002018054612a0c906142a3565b80601f0160208091040260200160405190810160405280929190818152602001828054612a38906142a3565b8015612a855780601f10612a5a57610100808354040283529160200191612a85565b820191906000526020600020905b815481529060010190602001808311612a6857829003601f168201915b505050505090806003018054612a9a906142a3565b80601f0160208091040260200160405190810160405280929190818152602001828054612ac6906142a3565b8015612b135780601f10612ae857610100808354040283529160200191612b13565b820191906000526020600020905b815481529060010190602001808311612af657829003601f168201915b505050505090806004018054612b28906142a3565b80601f0160208091040260200160405190810160405280929190818152602001828054612b54906142a3565b8015612ba15780601f10612b7657610100808354040283529160200191612ba1565b820191906000526020600020905b815481529060010190602001808311612b8457829003601f168201915b505050505090806005018054612bb6906142a3565b80601f0160208091040260200160405190810160405280929190818152602001828054612be2906142a3565b8015612c2f5780601f10612c0457610100808354040283529160200191612c2f565b820191906000526020600020905b815481529060010190602001808311612c1257829003601f168201915b505050505090806006018054612c44906142a3565b80601f0160208091040260200160405190810160405280929190818152602001828054612c70906142a3565b8015612cbd5780601f10612c9257610100808354040283529160200191612cbd565b820191906000526020600020905b815481529060010190602001808311612ca057829003601f168201915b505050505090806007018054612cd2906142a3565b80601f0160208091040260200160405190810160405280929190818152602001828054612cfe906142a3565b8015612d4b5780601f10612d2057610100808354040283529160200191612d4b565b820191906000526020600020905b815481529060010190602001808311612d2e57829003601f168201915b50505050509080600801549080600901549080600b0160009054906101000a900460ff1690508b565b600080600090505b600a80549050811015612e17578273ffffffffffffffffffffffffffffffffffffffff16600a8281548110612db457612db3614774565b5b9060005260206000200160009054906101000a900473ffffffffffffffffffffffffffffffffffffffff1673ffffffffffffffffffffffffffffffffffffffff1603612e04576001915050612e1d565b8080612e0f9061422c565b915050612d7c565b50600090505b919050565b6000600d600084815260200190815260200160002090508060000160009054906101000a900473ffffffffffffffffffffffffffffffffffffffff1673ffffffffffffffffffffffffffffffffffffffff163373ffffffffffffffffffffffffffffffffffffffff161480612ee657508060010160009054906101000a900473ffffffffffffffffffffffffffffffffffffffff1673ffffffffffffffffffffffffffffffffffffffff163373ffffffffffffffffffffffffffffffffffffffff16145b612f25576040517f08c379a0000000000000000000000000000000000000000000000000000000008152600401612f1c90614a77565b60405180910390fd5b6010600084815260200190815260200160002054821115612f7b576040517f08c379a0000000000000000000000000000000000000000000000000000000008152600401612f7290614b09565b60405180910390fd5b81601060008581526020019081526020016000206000828254612f9e91906146d4565b9250508190555060003073ffffffffffffffffffffffffffffffffffffffff1683604051612fcb90614b5a565b60006040518083038185875af1925050503d8060008114613008576040519150601f19603f3d011682016040523d82523d6000602084013e61300d565b606091505b5050905080613051576040517f08c379a000000000000000000000000000000000000000000000000000000000815260040161304890614bbb565b60405180910390fd5b50505050565b600081511161309b576040517f08c379a000000000000000000000000000000000000000000000000000000000815260040161309290614c27565b60405180910390fd5b6130a433611bf5565b156130e4576040517f08c379a00000000000000000000000000000000000000000000000000000000081526004016130db90614c93565b60405180910390fd5b600060405180604001604052803373ffffffffffffffffffffffffffffffffffffffff168152602001838152509050600b81908060018154018082558091505060019003906000526020600020906002020160009091909190915060008201518160000160006101000a81548173ffffffffffffffffffffffffffffffffffffffff021916908373ffffffffffffffffffffffffffffffffffffffff160217905550602082015181600101908161319b9190614480565b5050505050565b600260009054906101000a900473ffffffffffffffffffffffffffffffffffffffff1681565b6000600d600084815260200190815260200160002090508060000160009054906101000a900473ffffffffffffffffffffffffffffffffffffffff1673ffffffffffffffffffffffffffffffffffffffff163373ffffffffffffffffffffffffffffffffffffffff16148061328c57508060010160009054906101000a900473ffffffffffffffffffffffffffffffffffffffff1673ffffffffffffffffffffffffffffffffffffffff163373ffffffffffffffffffffffffffffffffffffffff16145b6132cb576040517f08c379a00000000000000000000000000000000000000000000000000000000081526004016132c290614cff565b60405180910390fd5b8060090154821115613312576040517f08c379a000000000000000000000000000000000000000000000000000000000815260040161330990614d6b565b60405180910390fd5b8181600901600082825461332691906146d4565b925050819055508160106000858152602001908152602001600020600082825461335091906149ce565b9250508190555060003373ffffffffffffffffffffffffffffffffffffffff168360405161337d90614b5a565b60006040518083038185875af1925050503d80600081146133ba576040519150601f19603f3d011682016040523d82523d6000602084013e6133bf565b606091505b5050905080613403576040517f08c379a00000000000000000000000000000000000000000000000000000000081526004016133fa90614dd7565b60405180910390fd5b7fd5550c71ca14cc44783a664cd798ecb70dcefed6b3cfdf323041ce6d221f2d72848360090154601060008881526020019081526020016000205460405161344d93929190614df7565b60405180910390a150505050565b8280548282559060005260206000209081019282156134d4579160200282015b828111156134d35782518260006101000a81548173ffffffffffffffffffffffffffffffffffffffff021916908373ffffffffffffffffffffffffffffffffffffffff1602179055509160200191906001019061347b565b5b5090506134e19190613657565b5090565b8280548282559060005260206000209081019282156135265760005260206000209182015b8281111561352557825482559160010191906001019061350a565b5b5090506135339190613657565b5090565b508054613543906142a3565b6000825580601f106135555750613574565b601f0160209004906000526020600020908101906135739190613657565b5b50565b50805460008255906000526020600020908101906135959190613657565b50565b604051806101800160405280600073ffffffffffffffffffffffffffffffffffffffff168152602001600073ffffffffffffffffffffffffffffffffffffffff1681526020016060815260200160608152602001606081526020016060815260200160608152602001606081526020016000815260200160008152602001606081526020016000151581525090565b6040518060400160405280600073ffffffffffffffffffffffffffffffffffffffff168152602001606081525090565b5b80821115613670576000816000905550600101613658565b5090565b6000604051905090565b600080fd5b600080fd5b600073ffffffffffffffffffffffffffffffffffffffff82169050919050565b60006136b382613688565b9050919050565b6136c3816136a8565b81146136ce57600080fd5b50565b6000813590506136e0816136ba565b92915050565b600080fd5b600080fd5b6000601f19601f8301169050919050565b7f4e487b7100000000000000000000000000000000000000000000000000000000600052604160045260246000fd5b613739826136f0565b810181811067ffffffffffffffff8211171561375857613757613701565b5b80604052505050565b600061376b613674565b90506137778282613730565b919050565b600067ffffffffffffffff82111561379757613796613701565b5b6137a0826136f0565b9050602081019050919050565b82818337600083830152505050565b60006137cf6137ca8461377c565b613761565b9050828152602081018484840111156137eb576137ea6136eb565b5b6137f68482856137ad565b509392505050565b600082601f830112613813576138126136e6565b5b81356138238482602086016137bc565b91505092915050565b600080600080600080600080610100898b03121561384d5761384c61367e565b5b600061385b8b828c016136d1565b985050602061386c8b828c016136d1565b975050604089013567ffffffffffffffff81111561388d5761388c613683565b5b6138998b828c016137fe565b965050606089013567ffffffffffffffff8111156138ba576138b9613683565b5b6138c68b828c016137fe565b955050608089013567ffffffffffffffff8111156138e7576138e6613683565b5b6138f38b828c016137fe565b94505060a089013567ffffffffffffffff81111561391457613913613683565b5b6139208b828c016137fe565b93505060c089013567ffffffffffffffff81111561394157613940613683565b5b61394d8b828c016137fe565b92505060e089013567ffffffffffffffff81111561396e5761396d613683565b5b61397a8b828c016137fe565b9150509295985092959890939650565b6000602082840312156139a05761399f61367e565b5b60006139ae848285016136d1565b91505092915050565b6000819050919050565b6139ca816139b7565b82525050565b60006020820190506139e560008301846139c1565b92915050565b6139f4816139b7565b81146139ff57600080fd5b50565b600081359050613a11816139eb565b92915050565b600060208284031215613a2d57613a2c61367e565b5b6000613a3b84828501613a02565b91505092915050565b613a4d816136a8565b82525050565b600081519050919050565b600082825260208201905092915050565b60005b83811015613a8d578082015181840152602081019050613a72565b60008484015250505050565b6000613aa482613a53565b613aae8185613a5e565b9350613abe818560208601613a6f565b613ac7816136f0565b840191505092915050565b6000604082019050613ae76000830185613a44565b8181036020830152613af98184613a99565b90509392505050565b60006020820190508181036000830152613b1c8184613a99565b905092915050565b600081519050919050565b600082825260208201905092915050565b6000819050602082019050919050565b613b59816136a8565b82525050565b6000613b6b8383613b50565b60208301905092915050565b6000602082019050919050565b6000613b8f82613b24565b613b998185613b2f565b9350613ba483613b40565b8060005b83811015613bd5578151613bbc8882613b5f565b9750613bc783613b77565b925050600181019050613ba8565b5085935050505092915050565b60006020820190508181036000830152613bfc8184613b84565b905092915050565b60008060408385031215613c1b57613c1a61367e565b5b6000613c29858286016136d1565b9250506020613c3a85828601613a02565b9150509250929050565b6000602082019050613c596000830184613a44565b92915050565b60008115159050919050565b613c7481613c5f565b82525050565b6000602082019050613c8f6000830184613c6b565b92915050565b600081519050919050565b600082825260208201905092915050565b6000819050602082019050919050565b600082825260208201905092915050565b6000613cdd82613a53565b613ce78185613cc1565b9350613cf7818560208601613a6f565b613d00816136f0565b840191505092915050565b613d14816139b7565b82525050565b600082825260208201905092915050565b6000613d3682613b24565b613d408185613d1a565b9350613d4b83613b40565b8060005b83811015613d7c578151613d638882613b5f565b9750613d6e83613b77565b925050600181019050613d4f565b5085935050505092915050565b613d9281613c5f565b82525050565b600061018083016000830151613db16000860182613b50565b506020830151613dc46020860182613b50565b5060408301518482036040860152613ddc8282613cd2565b91505060608301518482036060860152613df68282613cd2565b91505060808301518482036080860152613e108282613cd2565b91505060a083015184820360a0860152613e2a8282613cd2565b91505060c083015184820360c0860152613e448282613cd2565b91505060e083015184820360e0860152613e5e8282613cd2565b915050610100830151613e75610100860182613d0b565b50610120830151613e8a610120860182613d0b565b50610140830151848203610140860152613ea48282613d2b565b915050610160830151613ebb610160860182613d89565b508091505092915050565b6000613ed28383613d98565b905092915050565b6000602082019050919050565b6000613ef282613c95565b613efc8185613ca0565b935083602082028501613f0e85613cb1565b8060005b85811015613f4a5784840389528151613f2b8582613ec6565b9450613f3683613eda565b925060208a01995050600181019050613f12565b50829750879550505050505092915050565b60006020820190508181036000830152613f768184613ee7565b905092915050565b600081519050919050565b600082825260208201905092915050565b6000819050602082019050919050565b6000604083016000830151613fc26000860182613b50565b5060208301518482036020860152613fda8282613cd2565b9150508091505092915050565b6000613ff38383613faa565b905092915050565b6000602082019050919050565b600061401382613f7e565b61401d8185613f89565b93508360208202850161402f85613f9a565b8060005b8581101561406b578484038952815161404c8582613fe7565b945061405783613ffb565b925060208a01995050600181019050614033565b50829750879550505050505092915050565b600060208201905081810360008301526140978184614008565b905092915050565b6000610160820190506140b5600083018e613a44565b6140c2602083018d613a44565b81810360408301526140d4818c613a99565b905081810360608301526140e8818b613a99565b905081810360808301526140fc818a613a99565b905081810360a08301526141108189613a99565b905081810360c08301526141248188613a99565b905081810360e08301526141388187613a99565b90506141486101008301866139c1565b6141566101208301856139c1565b614164610140830184613c6b565b9c9b505050505050505050505050565b6000806040838503121561418b5761418a61367e565b5b600061419985828601613a02565b92505060206141aa85828601613a02565b9150509250929050565b6000602082840312156141ca576141c961367e565b5b600082013567ffffffffffffffff8111156141e8576141e7613683565b5b6141f4848285016137fe565b91505092915050565b7f4e487b7100000000000000000000000000000000000000000000000000000000600052601160045260246000fd5b6000614237826139b7565b91507fffffffffffffffffffffffffffffffffffffffffffffffffffffffffffffffff8203614269576142686141fd565b5b600182019050919050565b7f4e487b7100000000000000000000000000000000000000000000000000000000600052602260045260246000fd5b600060028204905060018216806142bb57607f821691505b6020821081036142ce576142cd614274565b5b50919050565b60008190508160005260206000209050919050565b60006020601f8301049050919050565b600082821b905092915050565b6000600883026143367fffffffffffffffffffffffffffffffffffffffffffffffffffffffffffffffff826142f9565b61434086836142f9565b95508019841693508086168417925050509392505050565b6000819050919050565b600061437d614378614373846139b7565b614358565b6139b7565b9050919050565b6000819050919050565b61439783614362565b6143ab6143a382614384565b848454614306565b825550505050565b600090565b6143c06143b3565b6143cb81848461438e565b505050565b5b818110156143ef576143e46000826143b8565b6001810190506143d1565b5050565b601f82111561443457614405816142d4565b61440e846142e9565b8101602085101561441d578190505b614431614429856142e9565b8301826143d0565b50505b505050565b600082821c905092915050565b600061445760001984600802614439565b1980831691505092915050565b60006144708383614446565b9150826002028217905092915050565b61448982613a53565b67ffffffffffffffff8111156144a2576144a1613701565b5b6144ac82546142a3565b6144b78282856143f3565b600060209050601f8311600181146144ea57600084156144d8578287015190505b6144e28582614464565b86555061454a565b601f1984166144f8866142d4565b60005b82811015614520578489015182556001820191506020850194506020810190506144fb565b8683101561453d5784890151614539601f891682614446565b8355505b6001600288020188555050505b505050505050565b60006060820190506145676000830186613a44565b61457460208301856139c1565b81810360408301526145868184613a99565b9050949350505050565b7f556e617574686f72697a65642061636365737300000000000000000000000000600082015250565b60006145c6601383613a5e565b91506145d182614590565b602082019050919050565b600060208201905081810360008301526145f5816145b9565b9050919050565b7f496e76616c69642044414f204944000000000000000000000000000000000000600082015250565b6000614632600e83613a5e565b915061463d826145fc565b602082019050919050565b6000602082019050818103600083015261466181614625565b9050919050565b7f43616e6e6f742072656d6f766520612076657269666965642044414f00000000600082015250565b600061469e601c83613a5e565b91506146a982614668565b602082019050919050565b600060208201905081810360008301526146cd81614691565b9050919050565b60006146df826139b7565b91506146ea836139b7565b9250828203905081811115614702576147016141fd565b5b92915050565b7f496e76616c696420696e64657800000000000000000000000000000000000000600082015250565b600061473e600d83613a5e565b915061474982614708565b602082019050919050565b6000602082019050818103600083015261476d81614731565b9050919050565b7f4e487b7100000000000000000000000000000000000000000000000000000000600052603260045260246000fd5b7f496e76616c69642044414f20494420696e20746f74616c44414f730000000000600082015250565b60006147d9601b83613a5e565b91506147e4826147a3565b602082019050919050565b60006020820190508181036000830152614808816147cc565b9050919050565b60008154905061481e816142a3565b9050919050565b81810361483357505061490b565b61483c8261480f565b67ffffffffffffffff81111561485557614854613701565b5b61485f82546142a3565b61486a8282856143f3565b6000601f8311600181146148995760008415614887578287015490505b6148918582614464565b865550614904565b601f1984166148a7876142d4565b96506148b2866142d4565b60005b828110156148da578489015482556001820191506001850194506020810190506148b5565b868310156148f757848901546148f3601f891682614446565b8355505b6001600288020188555050505b5050505050505b565b7f4e487b7100000000000000000000000000000000000000000000000000000000600052603160045260246000fd5b7f4f6e6c7920616464726573736573207468617420686176656e2774206a6f696e60008201527f6564207468652044414f2063616e20696e766573742e00000000000000000000602082015250565b6000614998603683613a5e565b91506149a38261493c565b604082019050919050565b600060208201905081810360008301526149c78161498b565b9050919050565b60006149d9826139b7565b91506149e4836139b7565b92508282019050808211156149fc576149fb6141fd565b5b92915050565b6000604082019050614a176000830185613a44565b614a2460208301846139c1565b9392505050565b7f4f6e6c79206661726d6572732063616e2072657061792066756e647321000000600082015250565b6000614a61601d83613a5e565b9150614a6c82614a2b565b602082019050919050565b60006020820190508181036000830152614a9081614a54565b9050919050565b7f416d6f756e7420746f207265706179206578636565647320746f74616c20616d60008201527f6f756e742077697468647261776e2e0000000000000000000000000000000000602082015250565b6000614af3602f83613a5e565b9150614afe82614a97565b604082019050919050565b60006020820190508181036000830152614b2281614ae6565b9050919050565b600081905092915050565b50565b6000614b44600083614b29565b9150614b4f82614b34565b600082019050919050565b6000614b6582614b37565b9150819050919050565b7f4661696c656420746f207472616e736665722066756e647320746f2044414f2e600082015250565b6000614ba5602083613a5e565b9150614bb082614b6f565b602082019050919050565b60006020820190508181036000830152614bd481614b98565b9050919050565b7f4e616d652063616e6e6f7420626520656d707479000000000000000000000000600082015250565b6000614c11601483613a5e565b9150614c1c82614bdb565b602082019050919050565b60006020820190508181036000830152614c4081614c04565b9050919050565b7f496e766573746f7220697320616c726561647920726567697374657265640000600082015250565b6000614c7d601e83613a5e565b9150614c8882614c47565b602082019050919050565b60006020820190508181036000830152614cac81614c70565b9050919050565b7f4f6e6c79206661726d6572732063616e2077697468647261772066756e647300600082015250565b6000614ce9601f83613a5e565b9150614cf482614cb3565b602082019050919050565b60006020820190508181036000830152614d1881614cdc565b9050919050565b7f496e73756666696369656e742066756e647320746f2077697468647261770000600082015250565b6000614d55601e83613a5e565b9150614d6082614d1f565b602082019050919050565b60006020820190508181036000830152614d8481614d48565b9050919050565b7f4661696c656420746f207472616e736665722066756e64732100000000000000600082015250565b6000614dc1601983613a5e565b9150614dcc82614d8b565b602082019050919050565b60006020820190508181036000830152614df081614db4565b9050919050565b6000606082019050614e0c60008301866139c1565b614e1960208301856139c1565b614e2660408301846139c1565b94935050505056fea2646970667358221220001cb17944ca184479649991538803813b7e3b4eca02d510c30f1528f204872e64736f6c63430008130033",
  "linkReferences": {},
  "deployedLinkReferences": {}
}