{
  "_format": "hh-sol-artifact-1",
  "contractName": "FarmDAO",
  "sourceName": "contracts/Dao.sol",
  "abi": [
    {
      "inputs": [
        {
          "internalType": "string",
          "name": "_title",
          "type": "string"
        }
      ],
      "stateMutability": "nonpayable",
      "type": "constructor"
    },
    {
      "anonymous": false,
      "inputs": [
        {
          "indexed": false,
          "internalType": "address",
          "name": "daoAddress",
          "type": "address"
        }
      ],
      "name": "DaoCreated",
      "type": "event"
    },
    {
      "anonymous": false,
      "inputs": [
        {
          "indexed": false,
          "internalType": "uint256",
          "name": "daoId",
          "type": "uint256"
        }
      ],
      "name": "DaoVerified",
      "type": "event"
    },
    {
      "anonymous": false,
      "inputs": [
        {
          "indexed": false,
          "internalType": "address",
          "name": "investor",
          "type": "address"
        },
        {
          "indexed": false,
          "internalType": "uint256",
          "name": "amount",
          "type": "uint256"
        }
      ],
      "name": "InvestmentAdded",
      "type": "event"
    },
    {
      "inputs": [
        {
          "internalType": "uint256",
          "name": "daoId",
          "type": "uint256"
        }
      ],
      "name": "addInvestment",
      "outputs": [],
      "stateMutability": "payable",
      "type": "function"
    },
    {
      "inputs": [
        {
          "internalType": "address",
          "name": "_farmer1",
          "type": "address"
        },
        {
          "internalType": "address",
          "name": "_farmer2",
          "type": "address"
        },
        {
          "internalType": "string",
          "name": "_description",
          "type": "string"
        },
        {
          "internalType": "string",
          "name": "_name",
          "type": "string"
        },
        {
          "internalType": "string",
          "name": "_farmReports",
          "type": "string"
        },
        {
          "internalType": "string",
          "name": "_financialReports",
          "type": "string"
        }
      ],
      "name": "createDao",
      "outputs": [],
      "stateMutability": "nonpayable",
      "type": "function"
    },
    {
      "inputs": [],
      "name": "daoCreated",
      "outputs": [
        {
          "internalType": "bool",
          "name": "",
          "type": "bool"
        }
      ],
      "stateMutability": "view",
      "type": "function"
    },
    {
      "inputs": [
        {
          "internalType": "address",
          "name": "",
          "type": "address"
        },
        {
          "internalType": "uint256",
          "name": "",
          "type": "uint256"
        }
      ],
      "name": "daoFarmers",
      "outputs": [
        {
          "internalType": "address",
          "name": "",
          "type": "address"
        }
      ],
      "stateMutability": "view",
      "type": "function"
    },
    {
      "inputs": [],
      "name": "daoID",
      "outputs": [
        {
          "internalType": "uint256",
          "name": "",
          "type": "uint256"
        }
      ],
      "stateMutability": "view",
      "type": "function"
    },
    {
      "inputs": [
        {
          "internalType": "uint256",
          "name": "",
          "type": "uint256"
        }
      ],
      "name": "daos",
      "outputs": [
        {
          "internalType": "address",
          "name": "address1",
          "type": "address"
        },
        {
          "internalType": "address",
          "name": "address2",
          "type": "address"
        },
        {
          "internalType": "string",
          "name": "description",
          "type": "string"
        },
        {
          "internalType": "string",
          "name": "farmReports",
          "type": "string"
        },
        {
          "internalType": "string",
          "name": "financialReports",
          "type": "string"
        },
        {
          "internalType": "string",
          "name": "name",
          "type": "string"
        },
        {
          "internalType": "uint256",
          "name": "id",
          "type": "uint256"
        },
        {
          "internalType": "uint256",
          "name": "amountInvested",
          "type": "uint256"
        },
        {
          "internalType": "bool",
          "name": "verified",
          "type": "bool"
        }
      ],
      "stateMutability": "view",
      "type": "function"
    },
    {
      "inputs": [],
      "name": "farmer1",
      "outputs": [
        {
          "internalType": "address",
          "name": "",
          "type": "address"
        }
      ],
      "stateMutability": "view",
      "type": "function"
    },
    {
      "inputs": [],
      "name": "farmer2",
      "outputs": [
        {
          "internalType": "address",
          "name": "",
          "type": "address"
        }
      ],
      "stateMutability": "view",
      "type": "function"
    },
    {
      "inputs": [],
      "name": "getAllDaos",
      "outputs": [
        {
          "components": [
            {
              "internalType": "address",
              "name": "address1",
              "type": "address"
            },
            {
              "internalType": "address",
              "name": "address2",
              "type": "address"
            },
            {
              "internalType": "string",
              "name": "description",
              "type": "string"
            },
            {
              "internalType": "string",
              "name": "farmReports",
              "type": "string"
            },
            {
              "internalType": "string",
              "name": "financialReports",
              "type": "string"
            },
            {
              "internalType": "string",
              "name": "name",
              "type": "string"
            },
            {
              "internalType": "uint256",
              "name": "id",
              "type": "uint256"
            },
            {
              "internalType": "uint256",
              "name": "amountInvested",
              "type": "uint256"
            },
            {
              "internalType": "address[]",
              "name": "investors",
              "type": "address[]"
            },
            {
              "internalType": "bool",
              "name": "verified",
              "type": "bool"
            }
          ],
          "internalType": "struct FarmDAO.Dao[]",
          "name": "",
          "type": "tuple[]"
        }
      ],
      "stateMutability": "view",
      "type": "function"
    },
    {
      "inputs": [
        {
          "internalType": "uint256",
          "name": "daoId",
          "type": "uint256"
        }
      ],
      "name": "getTotalInvestment",
      "outputs": [
        {
          "internalType": "uint256",
          "name": "",
          "type": "uint256"
        }
      ],
      "stateMutability": "view",
      "type": "function"
    },
    {
      "inputs": [],
      "name": "getVerifiedAddresses",
      "outputs": [
        {
          "internalType": "address[]",
          "name": "",
          "type": "address[]"
        }
      ],
      "stateMutability": "view",
      "type": "function"
    },
    {
      "inputs": [
        {
          "internalType": "address",
          "name": "",
          "type": "address"
        }
      ],
      "name": "investments",
      "outputs": [
        {
          "internalType": "uint256",
          "name": "",
          "type": "uint256"
        }
      ],
      "stateMutability": "view",
      "type": "function"
    },
    {
      "inputs": [
        {
          "internalType": "address",
          "name": "_address",
          "type": "address"
        }
      ],
      "name": "isAddressVerified",
      "outputs": [
        {
          "internalType": "bool",
          "name": "",
          "type": "bool"
        }
      ],
      "stateMutability": "view",
      "type": "function"
    },
    {
      "inputs": [],
      "name": "minimumInvestment",
      "outputs": [
        {
          "internalType": "uint256",
          "name": "",
          "type": "uint256"
        }
      ],
      "stateMutability": "view",
      "type": "function"
    },
    {
      "inputs": [],
      "name": "owner",
      "outputs": [
        {
          "internalType": "address",
          "name": "",
          "type": "address"
        }
      ],
      "stateMutability": "view",
      "type": "function"
    },
    {
      "inputs": [],
      "name": "title",
      "outputs": [
        {
          "internalType": "string",
          "name": "",
          "type": "string"
        }
      ],
      "stateMutability": "view",
      "type": "function"
    },
    {
      "inputs": [
        {
          "internalType": "uint256",
          "name": "",
          "type": "uint256"
        }
      ],
      "name": "totalDAOs",
      "outputs": [
        {
          "internalType": "address",
          "name": "address1",
          "type": "address"
        },
        {
          "internalType": "address",
          "name": "address2",
          "type": "address"
        },
        {
          "internalType": "string",
          "name": "description",
          "type": "string"
        },
        {
          "internalType": "string",
          "name": "farmReports",
          "type": "string"
        },
        {
          "internalType": "string",
          "name": "financialReports",
          "type": "string"
        },
        {
          "internalType": "string",
          "name": "name",
          "type": "string"
        },
        {
          "internalType": "uint256",
          "name": "id",
          "type": "uint256"
        },
        {
          "internalType": "uint256",
          "name": "amountInvested",
          "type": "uint256"
        },
        {
          "internalType": "bool",
          "name": "verified",
          "type": "bool"
        }
      ],
      "stateMutability": "view",
      "type": "function"
    },
    {
      "inputs": [],
      "name": "totalInvestment",
      "outputs": [
        {
          "internalType": "uint256",
          "name": "",
          "type": "uint256"
        }
      ],
      "stateMutability": "view",
      "type": "function"
    },
    {
      "inputs": [
        {
          "internalType": "uint256",
          "name": "daoId",
          "type": "uint256"
        }
      ],
      "name": "verifyDao",
      "outputs": [],
      "stateMutability": "nonpayable",
      "type": "function"
    },
    {
      "inputs": [
        {
          "internalType": "uint256",
          "name": "daoId",
          "type": "uint256"
        }
      ],
      "name": "withDrawDFunds",
      "outputs": [],
      "stateMutability": "nonpayable",
      "type": "function"
    }
  ],
  "bytecode": "0x60806040523480156200001157600080fd5b506040516200346a3803806200346a833981810160405281019062000037919062000348565b8060009081620000489190620005e4565b50600a7313ef924eb7408e90278b86b659960afb00ddae619080600181540180825580915050600190039060005260206000200160009091909190916101000a81548173ffffffffffffffffffffffffffffffffffffffff021916908373ffffffffffffffffffffffffffffffffffffffff160217905550600a7323792579e2979a98d12a33a85e35914079304a569080600181540180825580915050600190039060005260206000200160009091909190916101000a81548173ffffffffffffffffffffffffffffffffffffffff021916908373ffffffffffffffffffffffffffffffffffffffff160217905550600a73dc4f6ea5856eda459286e8d0ef42e389d07137ff9080600181540180825580915050600190039060005260206000200160009091909190916101000a81548173ffffffffffffffffffffffffffffffffffffffff021916908373ffffffffffffffffffffffffffffffffffffffff16021790555050620006cb565b6000604051905090565b600080fd5b600080fd5b600080fd5b600080fd5b6000601f19601f8301169050919050565b7f4e487b7100000000000000000000000000000000000000000000000000000000600052604160045260246000fd5b6200021e82620001d3565b810181811067ffffffffffffffff8211171562000240576200023f620001e4565b5b80604052505050565b600062000255620001b5565b905062000263828262000213565b919050565b600067ffffffffffffffff821115620002865762000285620001e4565b5b6200029182620001d3565b9050602081019050919050565b60005b83811015620002be578082015181840152602081019050620002a1565b60008484015250505050565b6000620002e1620002db8462000268565b62000249565b9050828152602081018484840111156200030057620002ff620001ce565b5b6200030d8482856200029e565b509392505050565b600082601f8301126200032d576200032c620001c9565b5b81516200033f848260208601620002ca565b91505092915050565b600060208284031215620003615762000360620001bf565b5b600082015167ffffffffffffffff811115620003825762000381620001c4565b5b620003908482850162000315565b91505092915050565b600081519050919050565b7f4e487b7100000000000000000000000000000000000000000000000000000000600052602260045260246000fd5b60006002820490506001821680620003ec57607f821691505b602082108103620004025762000401620003a4565b5b50919050565b60008190508160005260206000209050919050565b60006020601f8301049050919050565b600082821b905092915050565b6000600883026200046c7fffffffffffffffffffffffffffffffffffffffffffffffffffffffffffffffff826200042d565b6200047886836200042d565b95508019841693508086168417925050509392505050565b6000819050919050565b6000819050919050565b6000620004c5620004bf620004b98462000490565b6200049a565b62000490565b9050919050565b6000819050919050565b620004e183620004a4565b620004f9620004f082620004cc565b8484546200043a565b825550505050565b600090565b6200051062000501565b6200051d818484620004d6565b505050565b5b8181101562000545576200053960008262000506565b60018101905062000523565b5050565b601f82111562000594576200055e8162000408565b62000569846200041d565b8101602085101562000579578190505b6200059162000588856200041d565b83018262000522565b50505b505050565b600082821c905092915050565b6000620005b96000198460080262000599565b1980831691505092915050565b6000620005d48383620005a6565b9150826002028217905092915050565b620005ef8262000399565b67ffffffffffffffff8111156200060b576200060a620001e4565b5b620006178254620003d3565b6200062482828562000549565b600060209050601f8311600181146200065c576000841562000647578287015190505b620006538582620005c6565b865550620006c3565b601f1984166200066c8662000408565b60005b8281101562000696578489015182556001820191506020850194506020810190506200066f565b86831015620006b65784890151620006b2601f891682620005a6565b8355505b6001600288020188555050505b505050505050565b612d8f80620006db6000396000f3fe60806040526004361061011f5760003560e01c806393b16be1116100a0578063ccbbd26011610064578063ccbbd260146103ca578063ce99886d1461040f578063d840b4df1461043a578063da9dd8bf1461047f578063f3f0cd91146104bc5761011f565b806393b16be1146102e557806396b988621461030e578063aa5b6d4c1461034b578063b3afc43914610376578063c9525567146103a15761011f565b80634c54114c116100e75780634c54114c1461020b57806352ff15cd14610236578063574eb03314610261578063610c8ced1461029e5780638da5cb5b146102ba5761011f565b806310ea13df14610124578063192c86d41461014f5780632b925b251461017857806334422a47146101a35780634a79d50c146101e0575b600080fd5b34801561013057600080fd5b506101396104e7565b6040516101469190611d7f565b60405180910390f35b34801561015b57600080fd5b5061017660048036038101906101719190611dda565b6104ed565b005b34801561018457600080fd5b5061018d6106f8565b60405161019a9190611d7f565b60405180910390f35b3480156101af57600080fd5b506101ca60048036038101906101c59190611dda565b6106fe565b6040516101d79190611d7f565b60405180910390f35b3480156101ec57600080fd5b506101f561071e565b6040516102029190611e97565b60405180910390f35b34801561021757600080fd5b506102206107ac565b60405161022d9190611d7f565b60405180910390f35b34801561024257600080fd5b5061024b6107b2565b6040516102589190611fa9565b60405180910390f35b34801561026d57600080fd5b5061028860048036038101906102839190611ff7565b610840565b6040516102959190612046565b60405180910390f35b6102b860048036038101906102b39190611dda565b61088e565b005b3480156102c657600080fd5b506102cf610aae565b6040516102dc9190612046565b60405180910390f35b3480156102f157600080fd5b5061030c60048036038101906103079190612196565b610ad4565b005b34801561031a57600080fd5b5061033560048036038101906103309190612293565b61100a565b6040516103429190611d7f565b60405180910390f35b34801561035757600080fd5b50610360611022565b60405161036d919061255b565b60405180910390f35b34801561038257600080fd5b5061038b6114a3565b604051610398919061258c565b60405180910390f35b3480156103ad57600080fd5b506103c860048036038101906103c39190611dda565b6114b6565b005b3480156103d657600080fd5b506103f160048036038101906103ec9190611dda565b6115be565b604051610406999897969594939291906125a7565b60405180910390f35b34801561041b57600080fd5b50610424611879565b6040516104319190612046565b60405180910390f35b34801561044657600080fd5b50610461600480360381019061045c9190611dda565b61189f565b604051610476999897969594939291906125a7565b60405180910390f35b34801561048b57600080fd5b506104a660048036038101906104a19190612293565b611b6a565b6040516104b3919061258c565b60405180910390f35b3480156104c857600080fd5b506104d1611c18565b6040516104de9190612046565b60405180910390f35b60045481565b6000600c600083815260200190815260200160002090508060000160009054906101000a900473ffffffffffffffffffffffffffffffffffffffff1673ffffffffffffffffffffffffffffffffffffffff163373ffffffffffffffffffffffffffffffffffffffff1614806105b157508060010160009054906101000a900473ffffffffffffffffffffffffffffffffffffffff1673ffffffffffffffffffffffffffffffffffffffff163373ffffffffffffffffffffffffffffffffffffffff16145b6105f0576040517f08c379a00000000000000000000000000000000000000000000000000000000081526004016105e79061269c565b60405180910390fd5b6000816007015490506000811161063c576040517f08c379a000000000000000000000000000000000000000000000000000000000815260040161063390612708565b60405180910390fd5b6000826007018190555060003373ffffffffffffffffffffffffffffffffffffffff168260405161066c90612759565b60006040518083038185875af1925050503d80600081146106a9576040519150601f19603f3d011682016040523d82523d6000602084013e6106ae565b606091505b50509050806106f2576040517f08c379a00000000000000000000000000000000000000000000000000000000081526004016106e9906127ba565b60405180910390fd5b50505050565b60055481565b6000600c6000838152602001908152602001600020600701549050919050565b6000805461072b90612809565b80601f016020809104026020016040519081016040528092919081815260200182805461075790612809565b80156107a45780601f10610779576101008083540402835291602001916107a4565b820191906000526020600020905b81548152906001019060200180831161078757829003601f168201915b505050505081565b60085481565b6060600a80548060200260200160405190810160405280929190818152602001828054801561083657602002820191906000526020600020905b8160009054906101000a900473ffffffffffffffffffffffffffffffffffffffff1673ffffffffffffffffffffffffffffffffffffffff16815260200190600101908083116107ec575b5050505050905090565b600b602052816000526040600020818154811061085c57600080fd5b906000526020600020016000915091509054906101000a900473ffffffffffffffffffffffffffffffffffffffff1681565b6000600c600083815260200190815260200160002090508060000160009054906101000a900473ffffffffffffffffffffffffffffffffffffffff1673ffffffffffffffffffffffffffffffffffffffff163373ffffffffffffffffffffffffffffffffffffffff161415801561095557508060010160009054906101000a900473ffffffffffffffffffffffffffffffffffffffff1673ffffffffffffffffffffffffffffffffffffffff163373ffffffffffffffffffffffffffffffffffffffff1614155b610994576040517f08c379a000000000000000000000000000000000000000000000000000000000815260040161098b906128ac565b60405180910390fd5b348160070160008282546109a891906128fb565b9250508190555080600801339080600181540180825580915050600190039060005260206000200160009091909190916101000a81548173ffffffffffffffffffffffffffffffffffffffff021916908373ffffffffffffffffffffffffffffffffffffffff16021790555034600660003373ffffffffffffffffffffffffffffffffffffffff1673ffffffffffffffffffffffffffffffffffffffff168152602001908152602001600020819055503460046000828254610a6a91906128fb565b925050819055507f0e9450c60b5852553342ccda7c9307802902542d41f8d2a9d1d4e0d13e97355c3334604051610aa292919061292f565b60405180910390a15050565b600360009054906101000a900473ffffffffffffffffffffffffffffffffffffffff1681565b60086000815480929190610ae790612958565b9190505550600080600854905060006040518061014001604052808a73ffffffffffffffffffffffffffffffffffffffff1681526020018973ffffffffffffffffffffffffffffffffffffffff168152602001888152602001868152602001858152602001878152602001838152602001848152602001600067ffffffffffffffff811115610b7957610b7861206b565b5b604051908082528060200260200182016040528015610ba75781602001602082028036833780820191505090505b50815260200160001515815250905080600c600084815260200190815260200160002060008201518160000160006101000a81548173ffffffffffffffffffffffffffffffffffffffff021916908373ffffffffffffffffffffffffffffffffffffffff16021790555060208201518160010160006101000a81548173ffffffffffffffffffffffffffffffffffffffff021916908373ffffffffffffffffffffffffffffffffffffffff1602179055506040820151816002019081610c6d9190612b4c565b506060820151816003019081610c839190612b4c565b506080820151816004019081610c999190612b4c565b5060a0820151816005019081610caf9190612b4c565b5060c0820151816006015560e08201518160070155610100820151816008019080519060200190610ce1929190611c3e565b506101208201518160090160006101000a81548160ff02191690831515021790555090505060098190806001815401808255809150506001900390600052602060002090600a020160009091909190915060008201518160000160006101000a81548173ffffffffffffffffffffffffffffffffffffffff021916908373ffffffffffffffffffffffffffffffffffffffff16021790555060208201518160010160006101000a81548173ffffffffffffffffffffffffffffffffffffffff021916908373ffffffffffffffffffffffffffffffffffffffff1602179055506040820151816002019081610dd59190612b4c565b506060820151816003019081610deb9190612b4c565b506080820151816004019081610e019190612b4c565b5060a0820151816005019081610e179190612b4c565b5060c0820151816006015560e08201518160070155610100820151816008019080519060200190610e49929190611c3e565b506101208201518160090160006101000a81548160ff0219169083151502179055505050600b60003073ffffffffffffffffffffffffffffffffffffffff1673ffffffffffffffffffffffffffffffffffffffff168152602001908152602001600020899080600181540180825580915050600190039060005260206000200160009091909190916101000a81548173ffffffffffffffffffffffffffffffffffffffff021916908373ffffffffffffffffffffffffffffffffffffffff160217905550600b60003073ffffffffffffffffffffffffffffffffffffffff1673ffffffffffffffffffffffffffffffffffffffff168152602001908152602001600020889080600181540180825580915050600190039060005260206000200160009091909190916101000a81548173ffffffffffffffffffffffffffffffffffffffff021916908373ffffffffffffffffffffffffffffffffffffffff1602179055506001600760006101000a81548160ff0219169083151502179055507f87fc1796dbc913ab997ce574688bcad88f5eb317373be9ec71de2bde33e5c83030604051610ff79190612046565b60405180910390a1505050505050505050565b60066020528060005260406000206000915090505481565b6060600060085467ffffffffffffffff8111156110425761104161206b565b5b60405190808252806020026020018201604052801561107b57816020015b611068611cc8565b8152602001906001900390816110605790505b5090506000600190505b600854811161149b57600c6000828152602001908152602001600020604051806101400160405290816000820160009054906101000a900473ffffffffffffffffffffffffffffffffffffffff1673ffffffffffffffffffffffffffffffffffffffff1673ffffffffffffffffffffffffffffffffffffffff1681526020016001820160009054906101000a900473ffffffffffffffffffffffffffffffffffffffff1673ffffffffffffffffffffffffffffffffffffffff1673ffffffffffffffffffffffffffffffffffffffff16815260200160028201805461116990612809565b80601f016020809104026020016040519081016040528092919081815260200182805461119590612809565b80156111e25780601f106111b7576101008083540402835291602001916111e2565b820191906000526020600020905b8154815290600101906020018083116111c557829003601f168201915b505050505081526020016003820180546111fb90612809565b80601f016020809104026020016040519081016040528092919081815260200182805461122790612809565b80156112745780601f1061124957610100808354040283529160200191611274565b820191906000526020600020905b81548152906001019060200180831161125757829003601f168201915b5050505050815260200160048201805461128d90612809565b80601f01602080910402602001604051908101604052809291908181526020018280546112b990612809565b80156113065780601f106112db57610100808354040283529160200191611306565b820191906000526020600020905b8154815290600101906020018083116112e957829003601f168201915b5050505050815260200160058201805461131f90612809565b80601f016020809104026020016040519081016040528092919081815260200182805461134b90612809565b80156113985780601f1061136d57610100808354040283529160200191611398565b820191906000526020600020905b81548152906001019060200180831161137b57829003601f168201915b5050505050815260200160068201548152602001600782015481526020016008820180548060200260200160405190810160405280929190818152602001828054801561143a57602002820191906000526020600020905b8160009054906101000a900473ffffffffffffffffffffffffffffffffffffffff1673ffffffffffffffffffffffffffffffffffffffff16815260200190600101908083116113f0575b505050505081526020016009820160009054906101000a900460ff1615151515815250508260018361146c9190612c1e565b8151811061147d5761147c612c52565b5b6020026020010181905250808061149390612958565b915050611085565b508091505090565b600760009054906101000a900460ff1681565b6114bf33611b6a565b6114fe576040517f08c379a00000000000000000000000000000000000000000000000000000000081526004016114f590612ccd565b60405180910390fd5b60008111801561151057506008548111155b61154f576040517f08c379a000000000000000000000000000000000000000000000000000000000815260040161154690612d39565b60405180910390fd5b6000600c6000838152602001908152602001600020905060018160090160006101000a81548160ff0219169083151502179055507fa06f724666d0a2bde56689ccf4d2e4b5e3e76d852cf31aa25c2e214db33ffe5f826040516115b29190611d7f565b60405180910390a15050565b600c6020528060005260406000206000915090508060000160009054906101000a900473ffffffffffffffffffffffffffffffffffffffff16908060010160009054906101000a900473ffffffffffffffffffffffffffffffffffffffff169080600201805461162d90612809565b80601f016020809104026020016040519081016040528092919081815260200182805461165990612809565b80156116a65780601f1061167b576101008083540402835291602001916116a6565b820191906000526020600020905b81548152906001019060200180831161168957829003601f168201915b5050505050908060030180546116bb90612809565b80601f01602080910402602001604051908101604052809291908181526020018280546116e790612809565b80156117345780601f1061170957610100808354040283529160200191611734565b820191906000526020600020905b81548152906001019060200180831161171757829003601f168201915b50505050509080600401805461174990612809565b80601f016020809104026020016040519081016040528092919081815260200182805461177590612809565b80156117c25780601f10611797576101008083540402835291602001916117c2565b820191906000526020600020905b8154815290600101906020018083116117a557829003601f168201915b5050505050908060050180546117d790612809565b80601f016020809104026020016040519081016040528092919081815260200182805461180390612809565b80156118505780601f1061182557610100808354040283529160200191611850565b820191906000526020600020905b81548152906001019060200180831161183357829003601f168201915b5050505050908060060154908060070154908060090160009054906101000a900460ff16905089565b600160009054906101000a900473ffffffffffffffffffffffffffffffffffffffff1681565b600981815481106118af57600080fd5b90600052602060002090600a02016000915090508060000160009054906101000a900473ffffffffffffffffffffffffffffffffffffffff16908060010160009054906101000a900473ffffffffffffffffffffffffffffffffffffffff169080600201805461191e90612809565b80601f016020809104026020016040519081016040528092919081815260200182805461194a90612809565b80156119975780601f1061196c57610100808354040283529160200191611997565b820191906000526020600020905b81548152906001019060200180831161197a57829003601f168201915b5050505050908060030180546119ac90612809565b80601f01602080910402602001604051908101604052809291908181526020018280546119d890612809565b8015611a255780601f106119fa57610100808354040283529160200191611a25565b820191906000526020600020905b815481529060010190602001808311611a0857829003601f168201915b505050505090806004018054611a3a90612809565b80601f0160208091040260200160405190810160405280929190818152602001828054611a6690612809565b8015611ab35780601f10611a8857610100808354040283529160200191611ab3565b820191906000526020600020905b815481529060010190602001808311611a9657829003601f168201915b505050505090806005018054611ac890612809565b80601f0160208091040260200160405190810160405280929190818152602001828054611af490612809565b8015611b415780601f10611b1657610100808354040283529160200191611b41565b820191906000526020600020905b815481529060010190602001808311611b2457829003601f168201915b5050505050908060060154908060070154908060090160009054906101000a900460ff16905089565b600080600090505b600a80549050811015611c0d578273ffffffffffffffffffffffffffffffffffffffff16600a8281548110611baa57611ba9612c52565b5b9060005260206000200160009054906101000a900473ffffffffffffffffffffffffffffffffffffffff1673ffffffffffffffffffffffffffffffffffffffff1603611bfa576001915050611c13565b8080611c0590612958565b915050611b72565b50600090505b919050565b600260009054906101000a900473ffffffffffffffffffffffffffffffffffffffff1681565b828054828255906000526020600020908101928215611cb7579160200282015b82811115611cb65782518260006101000a81548173ffffffffffffffffffffffffffffffffffffffff021916908373ffffffffffffffffffffffffffffffffffffffff16021790555091602001919060010190611c5e565b5b509050611cc49190611d49565b5090565b604051806101400160405280600073ffffffffffffffffffffffffffffffffffffffff168152602001600073ffffffffffffffffffffffffffffffffffffffff168152602001606081526020016060815260200160608152602001606081526020016000815260200160008152602001606081526020016000151581525090565b5b80821115611d62576000816000905550600101611d4a565b5090565b6000819050919050565b611d7981611d66565b82525050565b6000602082019050611d946000830184611d70565b92915050565b6000604051905090565b600080fd5b600080fd5b611db781611d66565b8114611dc257600080fd5b50565b600081359050611dd481611dae565b92915050565b600060208284031215611df057611def611da4565b5b6000611dfe84828501611dc5565b91505092915050565b600081519050919050565b600082825260208201905092915050565b60005b83811015611e41578082015181840152602081019050611e26565b60008484015250505050565b6000601f19601f8301169050919050565b6000611e6982611e07565b611e738185611e12565b9350611e83818560208601611e23565b611e8c81611e4d565b840191505092915050565b60006020820190508181036000830152611eb18184611e5e565b905092915050565b600081519050919050565b600082825260208201905092915050565b6000819050602082019050919050565b600073ffffffffffffffffffffffffffffffffffffffff82169050919050565b6000611f1082611ee5565b9050919050565b611f2081611f05565b82525050565b6000611f328383611f17565b60208301905092915050565b6000602082019050919050565b6000611f5682611eb9565b611f608185611ec4565b9350611f6b83611ed5565b8060005b83811015611f9c578151611f838882611f26565b9750611f8e83611f3e565b925050600181019050611f6f565b5085935050505092915050565b60006020820190508181036000830152611fc38184611f4b565b905092915050565b611fd481611f05565b8114611fdf57600080fd5b50565b600081359050611ff181611fcb565b92915050565b6000806040838503121561200e5761200d611da4565b5b600061201c85828601611fe2565b925050602061202d85828601611dc5565b9150509250929050565b61204081611f05565b82525050565b600060208201905061205b6000830184612037565b92915050565b600080fd5b600080fd5b7f4e487b7100000000000000000000000000000000000000000000000000000000600052604160045260246000fd5b6120a382611e4d565b810181811067ffffffffffffffff821117156120c2576120c161206b565b5b80604052505050565b60006120d5611d9a565b90506120e1828261209a565b919050565b600067ffffffffffffffff8211156121015761210061206b565b5b61210a82611e4d565b9050602081019050919050565b82818337600083830152505050565b6000612139612134846120e6565b6120cb565b90508281526020810184848401111561215557612154612066565b5b612160848285612117565b509392505050565b600082601f83011261217d5761217c612061565b5b813561218d848260208601612126565b91505092915050565b60008060008060008060c087890312156121b3576121b2611da4565b5b60006121c189828a01611fe2565b96505060206121d289828a01611fe2565b955050604087013567ffffffffffffffff8111156121f3576121f2611da9565b5b6121ff89828a01612168565b945050606087013567ffffffffffffffff8111156122205761221f611da9565b5b61222c89828a01612168565b935050608087013567ffffffffffffffff81111561224d5761224c611da9565b5b61225989828a01612168565b92505060a087013567ffffffffffffffff81111561227a57612279611da9565b5b61228689828a01612168565b9150509295509295509295565b6000602082840312156122a9576122a8611da4565b5b60006122b784828501611fe2565b91505092915050565b600081519050919050565b600082825260208201905092915050565b6000819050602082019050919050565b600082825260208201905092915050565b600061230882611e07565b61231281856122ec565b9350612322818560208601611e23565b61232b81611e4d565b840191505092915050565b61233f81611d66565b82525050565b600082825260208201905092915050565b600061236182611eb9565b61236b8185612345565b935061237683611ed5565b8060005b838110156123a757815161238e8882611f26565b975061239983611f3e565b92505060018101905061237a565b5085935050505092915050565b60008115159050919050565b6123c9816123b4565b82525050565b6000610140830160008301516123e86000860182611f17565b5060208301516123fb6020860182611f17565b506040830151848203604086015261241382826122fd565b9150506060830151848203606086015261242d82826122fd565b9150506080830151848203608086015261244782826122fd565b91505060a083015184820360a086015261246182826122fd565b91505060c083015161247660c0860182612336565b5060e083015161248960e0860182612336565b506101008301518482036101008601526124a38282612356565b9150506101208301516124ba6101208601826123c0565b508091505092915050565b60006124d183836123cf565b905092915050565b6000602082019050919050565b60006124f1826122c0565b6124fb81856122cb565b93508360208202850161250d856122dc565b8060005b85811015612549578484038952815161252a85826124c5565b9450612535836124d9565b925060208a01995050600181019050612511565b50829750879550505050505092915050565b6000602082019050818103600083015261257581846124e6565b905092915050565b612586816123b4565b82525050565b60006020820190506125a1600083018461257d565b92915050565b6000610120820190506125bd600083018c612037565b6125ca602083018b612037565b81810360408301526125dc818a611e5e565b905081810360608301526125f08189611e5e565b905081810360808301526126048188611e5e565b905081810360a08301526126188187611e5e565b905061262760c0830186611d70565b61263460e0830185611d70565b61264261010083018461257d565b9a9950505050505050505050565b7f4f6e6c79206661726d6572732063616e2077697468647261772066756e647321600082015250565b6000612686602083611e12565b915061269182612650565b602082019050919050565b600060208201905081810360008301526126b581612679565b9050919050565b7f4e6f2066756e647320746f207769746864726177210000000000000000000000600082015250565b60006126f2601583611e12565b91506126fd826126bc565b602082019050919050565b60006020820190508181036000830152612721816126e5565b9050919050565b600081905092915050565b50565b6000612743600083612728565b915061274e82612733565b600082019050919050565b600061276482612736565b9150819050919050565b7f4661696c656420746f207472616e736665722066756e64732100000000000000600082015250565b60006127a4601983611e12565b91506127af8261276e565b602082019050919050565b600060208201905081810360008301526127d381612797565b9050919050565b7f4e487b7100000000000000000000000000000000000000000000000000000000600052602260045260246000fd5b6000600282049050600182168061282157607f821691505b602082108103612834576128336127da565b5b50919050565b7f4f6e6c7920616464726573736573207468617420686176656e2774206a6f696e60008201527f6564207468652044414f2063616e20696e766573742e00000000000000000000602082015250565b6000612896603683611e12565b91506128a18261283a565b604082019050919050565b600060208201905081810360008301526128c581612889565b9050919050565b7f4e487b7100000000000000000000000000000000000000000000000000000000600052601160045260246000fd5b600061290682611d66565b915061291183611d66565b9250828201905080821115612929576129286128cc565b5b92915050565b60006040820190506129446000830185612037565b6129516020830184611d70565b9392505050565b600061296382611d66565b91507fffffffffffffffffffffffffffffffffffffffffffffffffffffffffffffffff8203612995576129946128cc565b5b600182019050919050565b60008190508160005260206000209050919050565b60006020601f8301049050919050565b600082821b905092915050565b600060088302612a027fffffffffffffffffffffffffffffffffffffffffffffffffffffffffffffffff826129c5565b612a0c86836129c5565b95508019841693508086168417925050509392505050565b6000819050919050565b6000612a49612a44612a3f84611d66565b612a24565b611d66565b9050919050565b6000819050919050565b612a6383612a2e565b612a77612a6f82612a50565b8484546129d2565b825550505050565b600090565b612a8c612a7f565b612a97818484612a5a565b505050565b5b81811015612abb57612ab0600082612a84565b600181019050612a9d565b5050565b601f821115612b0057612ad1816129a0565b612ada846129b5565b81016020851015612ae9578190505b612afd612af5856129b5565b830182612a9c565b50505b505050565b600082821c905092915050565b6000612b2360001984600802612b05565b1980831691505092915050565b6000612b3c8383612b12565b9150826002028217905092915050565b612b5582611e07565b67ffffffffffffffff811115612b6e57612b6d61206b565b5b612b788254612809565b612b83828285612abf565b600060209050601f831160018114612bb65760008415612ba4578287015190505b612bae8582612b30565b865550612c16565b601f198416612bc4866129a0565b60005b82811015612bec57848901518255600182019150602085019450602081019050612bc7565b86831015612c095784890151612c05601f891682612b12565b8355505b6001600288020188555050505b505050505050565b6000612c2982611d66565b9150612c3483611d66565b9250828203905081811115612c4c57612c4b6128cc565b5b92915050565b7f4e487b7100000000000000000000000000000000000000000000000000000000600052603260045260246000fd5b7f556e617574686f72697a65642061636365737300000000000000000000000000600082015250565b6000612cb7601383611e12565b9150612cc282612c81565b602082019050919050565b60006020820190508181036000830152612ce681612caa565b9050919050565b7f496e76616c69642044414f204944000000000000000000000000000000000000600082015250565b6000612d23600e83611e12565b9150612d2e82612ced565b602082019050919050565b60006020820190508181036000830152612d5281612d16565b905091905056fea26469706673582212207627b766b6e299b57a5b30803eb3b16a092b2bbd054cbd0022409164314e85ec64736f6c63430008130033",
  "linkReferences": {},
  "deployedLinkReferences": {}
}