{
    "_format": "hh-sol-artifact-1",
    "contractName": "FarmDAO",
    "sourceName": "contracts/Dao.sol",
    "abi": [
        {
            "inputs": [
                {
                    "internalType": "string",
                    "name": "_title",
                    "type": "string"
                }
            ],
            "stateMutability": "nonpayable",
            "type": "constructor"
        },
        {
            "anonymous": false,
            "inputs": [
                {
                    "indexed": false,
                    "internalType": "address",
                    "name": "daoAddress",
                    "type": "address"
                }
            ],
            "name": "DaoCreated",
            "type": "event"
        },
        {
            "anonymous": false,
            "inputs": [
                {
                    "indexed": false,
                    "internalType": "address",
                    "name": "investor",
                    "type": "address"
                },
                {
                    "indexed": false,
                    "internalType": "uint256",
                    "name": "amount",
                    "type": "uint256"
                }
            ],
            "name": "InvestmentAdded",
            "type": "event"
        },
        {
            "inputs": [
                {
                    "internalType": "uint256",
                    "name": "daoId",
                    "type": "uint256"
                }
            ],
            "name": "addInvestment",
            "outputs": [],
            "stateMutability": "payable",
            "type": "function"
        },
        {
            "inputs": [
                {
                    "internalType": "address",
                    "name": "_farmer1",
                    "type": "address"
                },
                {
                    "internalType": "address",
                    "name": "_farmer2",
                    "type": "address"
                },
                {
                    "internalType": "string",
                    "name": "_description",
                    "type": "string"
                },
                {
                    "internalType": "string",
                    "name": "_name",
                    "type": "string"
                },
                {
                    "internalType": "string",
                    "name": "_farmReports",
                    "type": "string"
                },
                {
                    "internalType": "string",
                    "name": "_financialReports",
                    "type": "string"
                }
            ],
            "name": "createDao",
            "outputs": [],
            "stateMutability": "nonpayable",
            "type": "function"
        },
        {
            "inputs": [],
            "name": "daoCreated",
            "outputs": [
                {
                    "internalType": "bool",
                    "name": "",
                    "type": "bool"
                }
            ],
            "stateMutability": "view",
            "type": "function"
        },
        {
            "inputs": [
                {
                    "internalType": "address",
                    "name": "",
                    "type": "address"
                },
                {
                    "internalType": "uint256",
                    "name": "",
                    "type": "uint256"
                }
            ],
            "name": "daoFarmers",
            "outputs": [
                {
                    "internalType": "address",
                    "name": "",
                    "type": "address"
                }
            ],
            "stateMutability": "view",
            "type": "function"
        },
        {
            "inputs": [],
            "name": "daoID",
            "outputs": [
                {
                    "internalType": "uint256",
                    "name": "",
                    "type": "uint256"
                }
            ],
            "stateMutability": "view",
            "type": "function"
        },
        {
            "inputs": [
                {
                    "internalType": "uint256",
                    "name": "",
                    "type": "uint256"
                }
            ],
            "name": "daos",
            "outputs": [
                {
                    "internalType": "address",
                    "name": "address1",
                    "type": "address"
                },
                {
                    "internalType": "address",
                    "name": "address2",
                    "type": "address"
                },
                {
                    "internalType": "string",
                    "name": "description",
                    "type": "string"
                },
                {
                    "internalType": "string",
                    "name": "farmReports",
                    "type": "string"
                },
                {
                    "internalType": "string",
                    "name": "financialReports",
                    "type": "string"
                },
                {
                    "internalType": "string",
                    "name": "name",
                    "type": "string"
                },
                {
                    "internalType": "uint256",
                    "name": "id",
                    "type": "uint256"
                },
                {
                    "internalType": "uint256",
                    "name": "amountInvested",
                    "type": "uint256"
                }
            ],
            "stateMutability": "view",
            "type": "function"
        },
        {
            "inputs": [],
            "name": "farmer1",
            "outputs": [
                {
                    "internalType": "address",
                    "name": "",
                    "type": "address"
                }
            ],
            "stateMutability": "view",
            "type": "function"
        },
        {
            "inputs": [],
            "name": "farmer2",
            "outputs": [
                {
                    "internalType": "address",
                    "name": "",
                    "type": "address"
                }
            ],
            "stateMutability": "view",
            "type": "function"
        },
        {
            "inputs": [],
            "name": "getAllDaos",
            "outputs": [
                {
                    "components": [
                        {
                            "internalType": "address",
                            "name": "address1",
                            "type": "address"
                        },
                        {
                            "internalType": "address",
                            "name": "address2",
                            "type": "address"
                        },
                        {
                            "internalType": "string",
                            "name": "description",
                            "type": "string"
                        },
                        {
                            "internalType": "string",
                            "name": "farmReports",
                            "type": "string"
                        },
                        {
                            "internalType": "string",
                            "name": "financialReports",
                            "type": "string"
                        },
                        {
                            "internalType": "string",
                            "name": "name",
                            "type": "string"
                        },
                        {
                            "internalType": "uint256",
                            "name": "id",
                            "type": "uint256"
                        },
                        {
                            "internalType": "uint256",
                            "name": "amountInvested",
                            "type": "uint256"
                        },
                        {
                            "internalType": "address[]",
                            "name": "investors",
                            "type": "address[]"
                        }
                    ],
                    "internalType": "struct FarmDAO.Dao[]",
                    "name": "",
                    "type": "tuple[]"
                }
            ],
            "stateMutability": "view",
            "type": "function"
        },
        {
            "inputs": [
                {
                    "internalType": "uint256",
                    "name": "daoId",
                    "type": "uint256"
                }
            ],
            "name": "getTotalInvestment",
            "outputs": [
                {
                    "internalType": "uint256",
                    "name": "",
                    "type": "uint256"
                }
            ],
            "stateMutability": "view",
            "type": "function"
        },
        {
            "inputs": [
                {
                    "internalType": "address",
                    "name": "",
                    "type": "address"
                }
            ],
            "name": "investments",
            "outputs": [
                {
                    "internalType": "uint256",
                    "name": "",
                    "type": "uint256"
                }
            ],
            "stateMutability": "view",
            "type": "function"
        },
        {
            "inputs": [],
            "name": "minimumInvestment",
            "outputs": [
                {
                    "internalType": "uint256",
                    "name": "",
                    "type": "uint256"
                }
            ],
            "stateMutability": "view",
            "type": "function"
        },
        {
            "inputs": [],
            "name": "owner",
            "outputs": [
                {
                    "internalType": "address",
                    "name": "",
                    "type": "address"
                }
            ],
            "stateMutability": "view",
            "type": "function"
        },
        {
            "inputs": [],
            "name": "title",
            "outputs": [
                {
                    "internalType": "string",
                    "name": "",
                    "type": "string"
                }
            ],
            "stateMutability": "view",
            "type": "function"
        },
        {
            "inputs": [
                {
                    "internalType": "uint256",
                    "name": "",
                    "type": "uint256"
                }
            ],
            "name": "totalDAOs",
            "outputs": [
                {
                    "internalType": "address",
                    "name": "address1",
                    "type": "address"
                },
                {
                    "internalType": "address",
                    "name": "address2",
                    "type": "address"
                },
                {
                    "internalType": "string",
                    "name": "description",
                    "type": "string"
                },
                {
                    "internalType": "string",
                    "name": "farmReports",
                    "type": "string"
                },
                {
                    "internalType": "string",
                    "name": "financialReports",
                    "type": "string"
                },
                {
                    "internalType": "string",
                    "name": "name",
                    "type": "string"
                },
                {
                    "internalType": "uint256",
                    "name": "id",
                    "type": "uint256"
                },
                {
                    "internalType": "uint256",
                    "name": "amountInvested",
                    "type": "uint256"
                }
            ],
            "stateMutability": "view",
            "type": "function"
        },
        {
            "inputs": [],
            "name": "totalInvestment",
            "outputs": [
                {
                    "internalType": "uint256",
                    "name": "",
                    "type": "uint256"
                }
            ],
            "stateMutability": "view",
            "type": "function"
        },
        {
            "inputs": [
                {
                    "internalType": "uint256",
                    "name": "daoId",
                    "type": "uint256"
                }
            ],
            "name": "withDrawDFunds",
            "outputs": [],
            "stateMutability": "nonpayable",
            "type": "function"
        }
    ],
    "bytecode": "0x60806040523480156200001157600080fd5b5060405162002ddc38038062002ddc8339818101604052810190620000379190620001e3565b80600090816200004891906200047f565b505062000566565b6000604051905090565b600080fd5b600080fd5b600080fd5b600080fd5b6000601f19601f8301169050919050565b7f4e487b7100000000000000000000000000000000000000000000000000000000600052604160045260246000fd5b620000b9826200006e565b810181811067ffffffffffffffff82111715620000db57620000da6200007f565b5b80604052505050565b6000620000f062000050565b9050620000fe8282620000ae565b919050565b600067ffffffffffffffff8211156200012157620001206200007f565b5b6200012c826200006e565b9050602081019050919050565b60005b83811015620001595780820151818401526020810190506200013c565b60008484015250505050565b60006200017c620001768462000103565b620000e4565b9050828152602081018484840111156200019b576200019a62000069565b5b620001a884828562000139565b509392505050565b600082601f830112620001c857620001c762000064565b5b8151620001da84826020860162000165565b91505092915050565b600060208284031215620001fc57620001fb6200005a565b5b600082015167ffffffffffffffff8111156200021d576200021c6200005f565b5b6200022b84828501620001b0565b91505092915050565b600081519050919050565b7f4e487b7100000000000000000000000000000000000000000000000000000000600052602260045260246000fd5b600060028204905060018216806200028757607f821691505b6020821081036200029d576200029c6200023f565b5b50919050565b60008190508160005260206000209050919050565b60006020601f8301049050919050565b600082821b905092915050565b600060088302620003077fffffffffffffffffffffffffffffffffffffffffffffffffffffffffffffffff82620002c8565b620003138683620002c8565b95508019841693508086168417925050509392505050565b6000819050919050565b6000819050919050565b6000620003606200035a62000354846200032b565b62000335565b6200032b565b9050919050565b6000819050919050565b6200037c836200033f565b620003946200038b8262000367565b848454620002d5565b825550505050565b600090565b620003ab6200039c565b620003b881848462000371565b505050565b5b81811015620003e057620003d4600082620003a1565b600181019050620003be565b5050565b601f8211156200042f57620003f981620002a3565b6200040484620002b8565b8101602085101562000414578190505b6200042c6200042385620002b8565b830182620003bd565b50505b505050565b600082821c905092915050565b6000620004546000198460080262000434565b1980831691505092915050565b60006200046f838362000441565b9150826002028217905092915050565b6200048a8262000234565b67ffffffffffffffff811115620004a657620004a56200007f565b5b620004b282546200026e565b620004bf828285620003e4565b600060209050601f831160018114620004f75760008415620004e2578287015190505b620004ee858262000461565b8655506200055e565b601f1984166200050786620002a3565b60005b8281101562000531578489015182556001820191506020850194506020810190506200050a565b868310156200055157848901516200054d601f89168262000441565b8355505b6001600288020188555050505b505050505050565b61286680620005766000396000f3fe6080604052600436106100fe5760003560e01c80638da5cb5b11610095578063b3afc43911610064578063b3afc4391461032a578063ccbbd26014610355578063ce99886d14610399578063d840b4df146103c4578063f3f0cd9114610408576100fe565b80638da5cb5b1461026e57806393b16be11461029957806396b98862146102c2578063aa5b6d4c146102ff576100fe565b80634a79d50c116100d15780634a79d50c146101bf5780634c54114c146101ea578063574eb03314610215578063610c8ced14610252576100fe565b806310ea13df14610103578063192c86d41461012e5780632b925b251461015757806334422a4714610182575b600080fd5b34801561010f57600080fd5b50610118610433565b60405161012591906119f2565b60405180910390f35b34801561013a57600080fd5b5061015560048036038101906101509190611a4d565b610439565b005b34801561016357600080fd5b5061016c610644565b60405161017991906119f2565b60405180910390f35b34801561018e57600080fd5b506101a960048036038101906101a49190611a4d565b61064a565b6040516101b691906119f2565b60405180910390f35b3480156101cb57600080fd5b506101d461066a565b6040516101e19190611b0a565b60405180910390f35b3480156101f657600080fd5b506101ff6106f8565b60405161020c91906119f2565b60405180910390f35b34801561022157600080fd5b5061023c60048036038101906102379190611b8a565b6106fe565b6040516102499190611bd9565b60405180910390f35b61026c60048036038101906102679190611a4d565b61074c565b005b34801561027a57600080fd5b5061028361096c565b6040516102909190611bd9565b60405180910390f35b3480156102a557600080fd5b506102c060048036038101906102bb9190611d29565b610992565b005b3480156102ce57600080fd5b506102e960048036038101906102e49190611e26565b610e7d565b6040516102f691906119f2565b60405180910390f35b34801561030b57600080fd5b50610314610e95565b604051610321919061210d565b60405180910390f35b34801561033657600080fd5b5061033f6112fb565b60405161034c919061214a565b60405180910390f35b34801561036157600080fd5b5061037c60048036038101906103779190611a4d565b61130e565b604051610390989796959493929190612165565b60405180910390f35b3480156103a557600080fd5b506103ae6115b6565b6040516103bb9190611bd9565b60405180910390f35b3480156103d057600080fd5b506103eb60048036038101906103e69190611a4d565b6115dc565b6040516103ff989796959493929190612165565b60405180910390f35b34801561041457600080fd5b5061041d611894565b60405161042a9190611bd9565b60405180910390f35b60045481565b6000600b600083815260200190815260200160002090508060000160009054906101000a900473ffffffffffffffffffffffffffffffffffffffff1673ffffffffffffffffffffffffffffffffffffffff163373ffffffffffffffffffffffffffffffffffffffff1614806104fd57508060010160009054906101000a900473ffffffffffffffffffffffffffffffffffffffff1673ffffffffffffffffffffffffffffffffffffffff163373ffffffffffffffffffffffffffffffffffffffff16145b61053c576040517f08c379a00000000000000000000000000000000000000000000000000000000081526004016105339061224b565b60405180910390fd5b60008160070154905060008111610588576040517f08c379a000000000000000000000000000000000000000000000000000000000815260040161057f906122b7565b60405180910390fd5b6000826007018190555060003373ffffffffffffffffffffffffffffffffffffffff16826040516105b890612308565b60006040518083038185875af1925050503d80600081146105f5576040519150601f19603f3d011682016040523d82523d6000602084013e6105fa565b606091505b505090508061063e576040517f08c379a000000000000000000000000000000000000000000000000000000000815260040161063590612369565b60405180910390fd5b50505050565b60055481565b6000600b6000838152602001908152602001600020600701549050919050565b60008054610677906123b8565b80601f01602080910402602001604051908101604052809291908181526020018280546106a3906123b8565b80156106f05780601f106106c5576101008083540402835291602001916106f0565b820191906000526020600020905b8154815290600101906020018083116106d357829003601f168201915b505050505081565b60085481565b600a602052816000526040600020818154811061071a57600080fd5b906000526020600020016000915091509054906101000a900473ffffffffffffffffffffffffffffffffffffffff1681565b6000600b600083815260200190815260200160002090508060000160009054906101000a900473ffffffffffffffffffffffffffffffffffffffff1673ffffffffffffffffffffffffffffffffffffffff163373ffffffffffffffffffffffffffffffffffffffff161415801561081357508060010160009054906101000a900473ffffffffffffffffffffffffffffffffffffffff1673ffffffffffffffffffffffffffffffffffffffff163373ffffffffffffffffffffffffffffffffffffffff1614155b610852576040517f08c379a00000000000000000000000000000000000000000000000000000000081526004016108499061245b565b60405180910390fd5b3481600701600082825461086691906124aa565b9250508190555080600801339080600181540180825580915050600190039060005260206000200160009091909190916101000a81548173ffffffffffffffffffffffffffffffffffffffff021916908373ffffffffffffffffffffffffffffffffffffffff16021790555034600660003373ffffffffffffffffffffffffffffffffffffffff1673ffffffffffffffffffffffffffffffffffffffff16815260200190815260200160002081905550346004600082825461092891906124aa565b925050819055507f0e9450c60b5852553342ccda7c9307802902542d41f8d2a9d1d4e0d13e97355c33346040516109609291906124de565b60405180910390a15050565b600360009054906101000a900473ffffffffffffffffffffffffffffffffffffffff1681565b600860008154809291906109a590612507565b9190505550600080600854905060006040518061012001604052808a73ffffffffffffffffffffffffffffffffffffffff1681526020018973ffffffffffffffffffffffffffffffffffffffff168152602001888152602001868152602001858152602001878152602001838152602001848152602001600067ffffffffffffffff811115610a3757610a36611bfe565b5b604051908082528060200260200182016040528015610a655781602001602082028036833780820191505090505b50815250905080600b600084815260200190815260200160002060008201518160000160006101000a81548173ffffffffffffffffffffffffffffffffffffffff021916908373ffffffffffffffffffffffffffffffffffffffff16021790555060208201518160010160006101000a81548173ffffffffffffffffffffffffffffffffffffffff021916908373ffffffffffffffffffffffffffffffffffffffff1602179055506040820151816002019081610b2291906126fb565b506060820151816003019081610b3891906126fb565b506080820151816004019081610b4e91906126fb565b5060a0820151816005019081610b6491906126fb565b5060c0820151816006015560e08201518160070155610100820151816008019080519060200190610b969291906118ba565b50905050600981908060018154018082558091505060019003906000526020600020906009020160009091909190915060008201518160000160006101000a81548173ffffffffffffffffffffffffffffffffffffffff021916908373ffffffffffffffffffffffffffffffffffffffff16021790555060208201518160010160006101000a81548173ffffffffffffffffffffffffffffffffffffffff021916908373ffffffffffffffffffffffffffffffffffffffff1602179055506040820151816002019081610c6991906126fb565b506060820151816003019081610c7f91906126fb565b506080820151816004019081610c9591906126fb565b5060a0820151816005019081610cab91906126fb565b5060c0820151816006015560e08201518160070155610100820151816008019080519060200190610cdd9291906118ba565b505050600a60003073ffffffffffffffffffffffffffffffffffffffff1673ffffffffffffffffffffffffffffffffffffffff168152602001908152602001600020899080600181540180825580915050600190039060005260206000200160009091909190916101000a81548173ffffffffffffffffffffffffffffffffffffffff021916908373ffffffffffffffffffffffffffffffffffffffff160217905550600a60003073ffffffffffffffffffffffffffffffffffffffff1673ffffffffffffffffffffffffffffffffffffffff168152602001908152602001600020889080600181540180825580915050600190039060005260206000200160009091909190916101000a81548173ffffffffffffffffffffffffffffffffffffffff021916908373ffffffffffffffffffffffffffffffffffffffff1602179055506001600760006101000a81548160ff0219169083151502179055507f87fc1796dbc913ab997ce574688bcad88f5eb317373be9ec71de2bde33e5c83030604051610e6a9190611bd9565b60405180910390a1505050505050505050565b60066020528060005260406000206000915090505481565b6060600060085467ffffffffffffffff811115610eb557610eb4611bfe565b5b604051908082528060200260200182016040528015610eee57816020015b610edb611944565b815260200190600190039081610ed35790505b5090506000600190505b60085481116112f357600b6000828152602001908152602001600020604051806101200160405290816000820160009054906101000a900473ffffffffffffffffffffffffffffffffffffffff1673ffffffffffffffffffffffffffffffffffffffff1673ffffffffffffffffffffffffffffffffffffffff1681526020016001820160009054906101000a900473ffffffffffffffffffffffffffffffffffffffff1673ffffffffffffffffffffffffffffffffffffffff1673ffffffffffffffffffffffffffffffffffffffff168152602001600282018054610fdc906123b8565b80601f0160208091040260200160405190810160405280929190818152602001828054611008906123b8565b80156110555780601f1061102a57610100808354040283529160200191611055565b820191906000526020600020905b81548152906001019060200180831161103857829003601f168201915b5050505050815260200160038201805461106e906123b8565b80601f016020809104026020016040519081016040528092919081815260200182805461109a906123b8565b80156110e75780601f106110bc576101008083540402835291602001916110e7565b820191906000526020600020905b8154815290600101906020018083116110ca57829003601f168201915b50505050508152602001600482018054611100906123b8565b80601f016020809104026020016040519081016040528092919081815260200182805461112c906123b8565b80156111795780601f1061114e57610100808354040283529160200191611179565b820191906000526020600020905b81548152906001019060200180831161115c57829003601f168201915b50505050508152602001600582018054611192906123b8565b80601f01602080910402602001604051908101604052809291908181526020018280546111be906123b8565b801561120b5780601f106111e05761010080835404028352916020019161120b565b820191906000526020600020905b8154815290600101906020018083116111ee57829003601f168201915b505050505081526020016006820154815260200160078201548152602001600882018054806020026020016040519081016040528092919081815260200182805480156112ad57602002820191906000526020600020905b8160009054906101000a900473ffffffffffffffffffffffffffffffffffffffff1673ffffffffffffffffffffffffffffffffffffffff1681526020019060010190808311611263575b505050505081525050826001836112c491906127cd565b815181106112d5576112d4612801565b5b602002602001018190525080806112eb90612507565b915050610ef8565b508091505090565b600760009054906101000a900460ff1681565b600b6020528060005260406000206000915090508060000160009054906101000a900473ffffffffffffffffffffffffffffffffffffffff16908060010160009054906101000a900473ffffffffffffffffffffffffffffffffffffffff169080600201805461137d906123b8565b80601f01602080910402602001604051908101604052809291908181526020018280546113a9906123b8565b80156113f65780601f106113cb576101008083540402835291602001916113f6565b820191906000526020600020905b8154815290600101906020018083116113d957829003601f168201915b50505050509080600301805461140b906123b8565b80601f0160208091040260200160405190810160405280929190818152602001828054611437906123b8565b80156114845780601f1061145957610100808354040283529160200191611484565b820191906000526020600020905b81548152906001019060200180831161146757829003601f168201915b505050505090806004018054611499906123b8565b80601f01602080910402602001604051908101604052809291908181526020018280546114c5906123b8565b80156115125780601f106114e757610100808354040283529160200191611512565b820191906000526020600020905b8154815290600101906020018083116114f557829003601f168201915b505050505090806005018054611527906123b8565b80601f0160208091040260200160405190810160405280929190818152602001828054611553906123b8565b80156115a05780601f10611575576101008083540402835291602001916115a0565b820191906000526020600020905b81548152906001019060200180831161158357829003601f168201915b5050505050908060060154908060070154905088565b600160009054906101000a900473ffffffffffffffffffffffffffffffffffffffff1681565b600981815481106115ec57600080fd5b90600052602060002090600902016000915090508060000160009054906101000a900473ffffffffffffffffffffffffffffffffffffffff16908060010160009054906101000a900473ffffffffffffffffffffffffffffffffffffffff169080600201805461165b906123b8565b80601f0160208091040260200160405190810160405280929190818152602001828054611687906123b8565b80156116d45780601f106116a9576101008083540402835291602001916116d4565b820191906000526020600020905b8154815290600101906020018083116116b757829003601f168201915b5050505050908060030180546116e9906123b8565b80601f0160208091040260200160405190810160405280929190818152602001828054611715906123b8565b80156117625780601f1061173757610100808354040283529160200191611762565b820191906000526020600020905b81548152906001019060200180831161174557829003601f168201915b505050505090806004018054611777906123b8565b80601f01602080910402602001604051908101604052809291908181526020018280546117a3906123b8565b80156117f05780601f106117c5576101008083540402835291602001916117f0565b820191906000526020600020905b8154815290600101906020018083116117d357829003601f168201915b505050505090806005018054611805906123b8565b80601f0160208091040260200160405190810160405280929190818152602001828054611831906123b8565b801561187e5780601f106118535761010080835404028352916020019161187e565b820191906000526020600020905b81548152906001019060200180831161186157829003601f168201915b5050505050908060060154908060070154905088565b600260009054906101000a900473ffffffffffffffffffffffffffffffffffffffff1681565b828054828255906000526020600020908101928215611933579160200282015b828111156119325782518260006101000a81548173ffffffffffffffffffffffffffffffffffffffff021916908373ffffffffffffffffffffffffffffffffffffffff160217905550916020019190600101906118da565b5b50905061194091906119bc565b5090565b604051806101200160405280600073ffffffffffffffffffffffffffffffffffffffff168152602001600073ffffffffffffffffffffffffffffffffffffffff168152602001606081526020016060815260200160608152602001606081526020016000815260200160008152602001606081525090565b5b808211156119d55760008160009055506001016119bd565b5090565b6000819050919050565b6119ec816119d9565b82525050565b6000602082019050611a0760008301846119e3565b92915050565b6000604051905090565b600080fd5b600080fd5b611a2a816119d9565b8114611a3557600080fd5b50565b600081359050611a4781611a21565b92915050565b600060208284031215611a6357611a62611a17565b5b6000611a7184828501611a38565b91505092915050565b600081519050919050565b600082825260208201905092915050565b60005b83811015611ab4578082015181840152602081019050611a99565b60008484015250505050565b6000601f19601f8301169050919050565b6000611adc82611a7a565b611ae68185611a85565b9350611af6818560208601611a96565b611aff81611ac0565b840191505092915050565b60006020820190508181036000830152611b248184611ad1565b905092915050565b600073ffffffffffffffffffffffffffffffffffffffff82169050919050565b6000611b5782611b2c565b9050919050565b611b6781611b4c565b8114611b7257600080fd5b50565b600081359050611b8481611b5e565b92915050565b60008060408385031215611ba157611ba0611a17565b5b6000611baf85828601611b75565b9250506020611bc085828601611a38565b9150509250929050565b611bd381611b4c565b82525050565b6000602082019050611bee6000830184611bca565b92915050565b600080fd5b600080fd5b7f4e487b7100000000000000000000000000000000000000000000000000000000600052604160045260246000fd5b611c3682611ac0565b810181811067ffffffffffffffff82111715611c5557611c54611bfe565b5b80604052505050565b6000611c68611a0d565b9050611c748282611c2d565b919050565b600067ffffffffffffffff821115611c9457611c93611bfe565b5b611c9d82611ac0565b9050602081019050919050565b82818337600083830152505050565b6000611ccc611cc784611c79565b611c5e565b905082815260208101848484011115611ce857611ce7611bf9565b5b611cf3848285611caa565b509392505050565b600082601f830112611d1057611d0f611bf4565b5b8135611d20848260208601611cb9565b91505092915050565b60008060008060008060c08789031215611d4657611d45611a17565b5b6000611d5489828a01611b75565b9650506020611d6589828a01611b75565b955050604087013567ffffffffffffffff811115611d8657611d85611a1c565b5b611d9289828a01611cfb565b945050606087013567ffffffffffffffff811115611db357611db2611a1c565b5b611dbf89828a01611cfb565b935050608087013567ffffffffffffffff811115611de057611ddf611a1c565b5b611dec89828a01611cfb565b92505060a087013567ffffffffffffffff811115611e0d57611e0c611a1c565b5b611e1989828a01611cfb565b9150509295509295509295565b600060208284031215611e3c57611e3b611a17565b5b6000611e4a84828501611b75565b91505092915050565b600081519050919050565b600082825260208201905092915050565b6000819050602082019050919050565b611e8881611b4c565b82525050565b600082825260208201905092915050565b6000611eaa82611a7a565b611eb48185611e8e565b9350611ec4818560208601611a96565b611ecd81611ac0565b840191505092915050565b611ee1816119d9565b82525050565b600081519050919050565b600082825260208201905092915050565b6000819050602082019050919050565b6000611f1f8383611e7f565b60208301905092915050565b6000602082019050919050565b6000611f4382611ee7565b611f4d8185611ef2565b9350611f5883611f03565b8060005b83811015611f89578151611f708882611f13565b9750611f7b83611f2b565b925050600181019050611f5c565b5085935050505092915050565b600061012083016000830151611faf6000860182611e7f565b506020830151611fc26020860182611e7f565b5060408301518482036040860152611fda8282611e9f565b91505060608301518482036060860152611ff48282611e9f565b9150506080830151848203608086015261200e8282611e9f565b91505060a083015184820360a08601526120288282611e9f565b91505060c083015161203d60c0860182611ed8565b5060e083015161205060e0860182611ed8565b5061010083015184820361010086015261206a8282611f38565b9150508091505092915050565b60006120838383611f96565b905092915050565b6000602082019050919050565b60006120a382611e53565b6120ad8185611e5e565b9350836020820285016120bf85611e6f565b8060005b858110156120fb57848403895281516120dc8582612077565b94506120e78361208b565b925060208a019950506001810190506120c3565b50829750879550505050505092915050565b600060208201905081810360008301526121278184612098565b905092915050565b60008115159050919050565b6121448161212f565b82525050565b600060208201905061215f600083018461213b565b92915050565b60006101008201905061217b600083018b611bca565b612188602083018a611bca565b818103604083015261219a8189611ad1565b905081810360608301526121ae8188611ad1565b905081810360808301526121c28187611ad1565b905081810360a08301526121d68186611ad1565b90506121e560c08301856119e3565b6121f260e08301846119e3565b9998505050505050505050565b7f4f6e6c79206661726d6572732063616e2077697468647261772066756e647321600082015250565b6000612235602083611a85565b9150612240826121ff565b602082019050919050565b6000602082019050818103600083015261226481612228565b9050919050565b7f4e6f2066756e647320746f207769746864726177210000000000000000000000600082015250565b60006122a1601583611a85565b91506122ac8261226b565b602082019050919050565b600060208201905081810360008301526122d081612294565b9050919050565b600081905092915050565b50565b60006122f26000836122d7565b91506122fd826122e2565b600082019050919050565b6000612313826122e5565b9150819050919050565b7f4661696c656420746f207472616e736665722066756e64732100000000000000600082015250565b6000612353601983611a85565b915061235e8261231d565b602082019050919050565b6000602082019050818103600083015261238281612346565b9050919050565b7f4e487b7100000000000000000000000000000000000000000000000000000000600052602260045260246000fd5b600060028204905060018216806123d057607f821691505b6020821081036123e3576123e2612389565b5b50919050565b7f4f6e6c7920616464726573736573207468617420686176656e2774206a6f696e60008201527f6564207468652044414f2063616e20696e766573742e00000000000000000000602082015250565b6000612445603683611a85565b9150612450826123e9565b604082019050919050565b6000602082019050818103600083015261247481612438565b9050919050565b7f4e487b7100000000000000000000000000000000000000000000000000000000600052601160045260246000fd5b60006124b5826119d9565b91506124c0836119d9565b92508282019050808211156124d8576124d761247b565b5b92915050565b60006040820190506124f36000830185611bca565b61250060208301846119e3565b9392505050565b6000612512826119d9565b91507fffffffffffffffffffffffffffffffffffffffffffffffffffffffffffffffff82036125445761254361247b565b5b600182019050919050565b60008190508160005260206000209050919050565b60006020601f8301049050919050565b600082821b905092915050565b6000600883026125b17fffffffffffffffffffffffffffffffffffffffffffffffffffffffffffffffff82612574565b6125bb8683612574565b95508019841693508086168417925050509392505050565b6000819050919050565b60006125f86125f36125ee846119d9565b6125d3565b6119d9565b9050919050565b6000819050919050565b612612836125dd565b61262661261e826125ff565b848454612581565b825550505050565b600090565b61263b61262e565b612646818484612609565b505050565b5b8181101561266a5761265f600082612633565b60018101905061264c565b5050565b601f8211156126af576126808161254f565b61268984612564565b81016020851015612698578190505b6126ac6126a485612564565b83018261264b565b50505b505050565b600082821c905092915050565b60006126d2600019846008026126b4565b1980831691505092915050565b60006126eb83836126c1565b9150826002028217905092915050565b61270482611a7a565b67ffffffffffffffff81111561271d5761271c611bfe565b5b61272782546123b8565b61273282828561266e565b600060209050601f8311600181146127655760008415612753578287015190505b61275d85826126df565b8655506127c5565b601f1984166127738661254f565b60005b8281101561279b57848901518255600182019150602085019450602081019050612776565b868310156127b857848901516127b4601f8916826126c1565b8355505b6001600288020188555050505b505050505050565b60006127d8826119d9565b91506127e3836119d9565b92508282039050818111156127fb576127fa61247b565b5b92915050565b7f4e487b7100000000000000000000000000000000000000000000000000000000600052603260045260246000fdfea264697066735822122025c42929686bd0fec879906e54a581aba290599ae03d8b762a41b6b7272f614b64736f6c63430008130033",
    "linkReferences": {},
    "deployedLinkReferences": {}
}