{
  "_format": "hh-sol-artifact-1",
  "contractName": "FarmDAO",
  "sourceName": "contracts/Dao.sol",
  "abi": [
    {
      "inputs": [
        {
          "internalType": "string",
          "name": "_title",
          "type": "string"
        }
      ],
      "stateMutability": "nonpayable",
      "type": "constructor"
    },
    {
      "anonymous": false,
      "inputs": [
        {
          "indexed": false,
          "internalType": "address",
          "name": "daoAddress",
          "type": "address"
        }
      ],
      "name": "DaoCreated",
      "type": "event"
    },
    {
      "anonymous": false,
      "inputs": [
        {
          "indexed": false,
          "internalType": "uint256",
          "name": "daoId",
          "type": "uint256"
        }
      ],
      "name": "DaoVerified",
      "type": "event"
    },
    {
      "anonymous": false,
      "inputs": [
        {
          "indexed": false,
          "internalType": "address",
          "name": "investor",
          "type": "address"
        },
        {
          "indexed": false,
          "internalType": "uint256",
          "name": "amount",
          "type": "uint256"
        }
      ],
      "name": "InvestmentAdded",
      "type": "event"
    },
    {
      "inputs": [
        {
          "internalType": "uint256",
          "name": "daoId",
          "type": "uint256"
        }
      ],
      "name": "addInvestment",
      "outputs": [],
      "stateMutability": "payable",
      "type": "function"
    },
    {
      "inputs": [
        {
          "internalType": "address",
          "name": "_farmer1",
          "type": "address"
        },
        {
          "internalType": "address",
          "name": "_farmer2",
          "type": "address"
        },
        {
          "internalType": "string",
          "name": "_description",
          "type": "string"
        },
        {
          "internalType": "string",
          "name": "_name",
          "type": "string"
        },
        {
          "internalType": "string",
          "name": "_farmReports",
          "type": "string"
        },
        {
          "internalType": "string",
          "name": "_financialReports",
          "type": "string"
        }
      ],
      "name": "createDao",
      "outputs": [],
      "stateMutability": "nonpayable",
      "type": "function"
    },
    {
      "inputs": [],
      "name": "daoCreated",
      "outputs": [
        {
          "internalType": "bool",
          "name": "",
          "type": "bool"
        }
      ],
      "stateMutability": "view",
      "type": "function"
    },
    {
      "inputs": [
        {
          "internalType": "address",
          "name": "",
          "type": "address"
        },
        {
          "internalType": "uint256",
          "name": "",
          "type": "uint256"
        }
      ],
      "name": "daoFarmers",
      "outputs": [
        {
          "internalType": "address",
          "name": "",
          "type": "address"
        }
      ],
      "stateMutability": "view",
      "type": "function"
    },
    {
      "inputs": [],
      "name": "daoID",
      "outputs": [
        {
          "internalType": "uint256",
          "name": "",
          "type": "uint256"
        }
      ],
      "stateMutability": "view",
      "type": "function"
    },
    {
      "inputs": [
        {
          "internalType": "uint256",
          "name": "",
          "type": "uint256"
        }
      ],
      "name": "daos",
      "outputs": [
        {
          "internalType": "address",
          "name": "address1",
          "type": "address"
        },
        {
          "internalType": "address",
          "name": "address2",
          "type": "address"
        },
        {
          "internalType": "string",
          "name": "description",
          "type": "string"
        },
        {
          "internalType": "string",
          "name": "farmReports",
          "type": "string"
        },
        {
          "internalType": "string",
          "name": "financialReports",
          "type": "string"
        },
        {
          "internalType": "string",
          "name": "name",
          "type": "string"
        },
        {
          "internalType": "uint256",
          "name": "id",
          "type": "uint256"
        },
        {
          "internalType": "uint256",
          "name": "amountInvested",
          "type": "uint256"
        },
        {
          "internalType": "bool",
          "name": "verified",
          "type": "bool"
        }
      ],
      "stateMutability": "view",
      "type": "function"
    },
    {
      "inputs": [],
      "name": "farmer1",
      "outputs": [
        {
          "internalType": "address",
          "name": "",
          "type": "address"
        }
      ],
      "stateMutability": "view",
      "type": "function"
    },
    {
      "inputs": [],
      "name": "farmer2",
      "outputs": [
        {
          "internalType": "address",
          "name": "",
          "type": "address"
        }
      ],
      "stateMutability": "view",
      "type": "function"
    },
    {
      "inputs": [],
      "name": "getAllDaos",
      "outputs": [
        {
          "components": [
            {
              "internalType": "address",
              "name": "address1",
              "type": "address"
            },
            {
              "internalType": "address",
              "name": "address2",
              "type": "address"
            },
            {
              "internalType": "string",
              "name": "description",
              "type": "string"
            },
            {
              "internalType": "string",
              "name": "farmReports",
              "type": "string"
            },
            {
              "internalType": "string",
              "name": "financialReports",
              "type": "string"
            },
            {
              "internalType": "string",
              "name": "name",
              "type": "string"
            },
            {
              "internalType": "uint256",
              "name": "id",
              "type": "uint256"
            },
            {
              "internalType": "uint256",
              "name": "amountInvested",
              "type": "uint256"
            },
            {
              "internalType": "address[]",
              "name": "investors",
              "type": "address[]"
            },
            {
              "internalType": "bool",
              "name": "verified",
              "type": "bool"
            }
          ],
          "internalType": "struct FarmDAO.Dao[]",
          "name": "",
          "type": "tuple[]"
        }
      ],
      "stateMutability": "view",
      "type": "function"
    },
    {
      "inputs": [
        {
          "internalType": "uint256",
          "name": "daoId",
          "type": "uint256"
        }
      ],
      "name": "getTotalInvestment",
      "outputs": [
        {
          "internalType": "uint256",
          "name": "",
          "type": "uint256"
        }
      ],
      "stateMutability": "view",
      "type": "function"
    },
    {
      "inputs": [],
      "name": "getVerifiedAddresses",
      "outputs": [
        {
          "internalType": "address[]",
          "name": "",
          "type": "address[]"
        }
      ],
      "stateMutability": "view",
      "type": "function"
    },
    {
      "inputs": [
        {
          "internalType": "address",
          "name": "",
          "type": "address"
        }
      ],
      "name": "investments",
      "outputs": [
        {
          "internalType": "uint256",
          "name": "",
          "type": "uint256"
        }
      ],
      "stateMutability": "view",
      "type": "function"
    },
    {
      "inputs": [
        {
          "internalType": "address",
          "name": "_address",
          "type": "address"
        }
      ],
      "name": "isAddressVerified",
      "outputs": [
        {
          "internalType": "bool",
          "name": "",
          "type": "bool"
        }
      ],
      "stateMutability": "view",
      "type": "function"
    },
    {
      "inputs": [],
      "name": "minimumInvestment",
      "outputs": [
        {
          "internalType": "uint256",
          "name": "",
          "type": "uint256"
        }
      ],
      "stateMutability": "view",
      "type": "function"
    },
    {
      "inputs": [],
      "name": "owner",
      "outputs": [
        {
          "internalType": "address",
          "name": "",
          "type": "address"
        }
      ],
      "stateMutability": "view",
      "type": "function"
    },
    {
      "inputs": [],
      "name": "title",
      "outputs": [
        {
          "internalType": "string",
          "name": "",
          "type": "string"
        }
      ],
      "stateMutability": "view",
      "type": "function"
    },
    {
      "inputs": [
        {
          "internalType": "uint256",
          "name": "",
          "type": "uint256"
        }
      ],
      "name": "totalDAOs",
      "outputs": [
        {
          "internalType": "address",
          "name": "address1",
          "type": "address"
        },
        {
          "internalType": "address",
          "name": "address2",
          "type": "address"
        },
        {
          "internalType": "string",
          "name": "description",
          "type": "string"
        },
        {
          "internalType": "string",
          "name": "farmReports",
          "type": "string"
        },
        {
          "internalType": "string",
          "name": "financialReports",
          "type": "string"
        },
        {
          "internalType": "string",
          "name": "name",
          "type": "string"
        },
        {
          "internalType": "uint256",
          "name": "id",
          "type": "uint256"
        },
        {
          "internalType": "uint256",
          "name": "amountInvested",
          "type": "uint256"
        },
        {
          "internalType": "bool",
          "name": "verified",
          "type": "bool"
        }
      ],
      "stateMutability": "view",
      "type": "function"
    },
    {
      "inputs": [],
      "name": "totalInvestment",
      "outputs": [
        {
          "internalType": "uint256",
          "name": "",
          "type": "uint256"
        }
      ],
      "stateMutability": "view",
      "type": "function"
    },
    {
      "inputs": [
        {
          "internalType": "uint256",
          "name": "daoId",
          "type": "uint256"
        }
      ],
      "name": "unverifyDao",
      "outputs": [],
      "stateMutability": "nonpayable",
      "type": "function"
    },
    {
      "inputs": [
        {
          "internalType": "uint256",
          "name": "daoId",
          "type": "uint256"
        }
      ],
      "name": "verifyDao",
      "outputs": [],
      "stateMutability": "nonpayable",
      "type": "function"
    },
    {
      "inputs": [
        {
          "internalType": "uint256",
          "name": "daoId",
          "type": "uint256"
        }
      ],
      "name": "withDrawDFunds",
      "outputs": [],
      "stateMutability": "nonpayable",
      "type": "function"
    }
  ],
  "bytecode": "0x60806040523480156200001157600080fd5b50604051620035a6380380620035a6833981810160405281019062000037919062000348565b8060009081620000489190620005e4565b50600a7313ef924eb7408e90278b86b659960afb00ddae619080600181540180825580915050600190039060005260206000200160009091909190916101000a81548173ffffffffffffffffffffffffffffffffffffffff021916908373ffffffffffffffffffffffffffffffffffffffff160217905550600a7323792579e2979a98d12a33a85e35914079304a569080600181540180825580915050600190039060005260206000200160009091909190916101000a81548173ffffffffffffffffffffffffffffffffffffffff021916908373ffffffffffffffffffffffffffffffffffffffff160217905550600a73dc4f6ea5856eda459286e8d0ef42e389d07137ff9080600181540180825580915050600190039060005260206000200160009091909190916101000a81548173ffffffffffffffffffffffffffffffffffffffff021916908373ffffffffffffffffffffffffffffffffffffffff16021790555050620006cb565b6000604051905090565b600080fd5b600080fd5b600080fd5b600080fd5b6000601f19601f8301169050919050565b7f4e487b7100000000000000000000000000000000000000000000000000000000600052604160045260246000fd5b6200021e82620001d3565b810181811067ffffffffffffffff8211171562000240576200023f620001e4565b5b80604052505050565b600062000255620001b5565b905062000263828262000213565b919050565b600067ffffffffffffffff821115620002865762000285620001e4565b5b6200029182620001d3565b9050602081019050919050565b60005b83811015620002be578082015181840152602081019050620002a1565b60008484015250505050565b6000620002e1620002db8462000268565b62000249565b9050828152602081018484840111156200030057620002ff620001ce565b5b6200030d8482856200029e565b509392505050565b600082601f8301126200032d576200032c620001c9565b5b81516200033f848260208601620002ca565b91505092915050565b600060208284031215620003615762000360620001bf565b5b600082015167ffffffffffffffff811115620003825762000381620001c4565b5b620003908482850162000315565b91505092915050565b600081519050919050565b7f4e487b7100000000000000000000000000000000000000000000000000000000600052602260045260246000fd5b60006002820490506001821680620003ec57607f821691505b602082108103620004025762000401620003a4565b5b50919050565b60008190508160005260206000209050919050565b60006020601f8301049050919050565b600082821b905092915050565b6000600883026200046c7fffffffffffffffffffffffffffffffffffffffffffffffffffffffffffffffff826200042d565b6200047886836200042d565b95508019841693508086168417925050509392505050565b6000819050919050565b6000819050919050565b6000620004c5620004bf620004b98462000490565b6200049a565b62000490565b9050919050565b6000819050919050565b620004e183620004a4565b620004f9620004f082620004cc565b8484546200043a565b825550505050565b600090565b6200051062000501565b6200051d818484620004d6565b505050565b5b8181101562000545576200053960008262000506565b60018101905062000523565b5050565b601f82111562000594576200055e8162000408565b62000569846200041d565b8101602085101562000579578190505b6200059162000588856200041d565b83018262000522565b50505b505050565b600082821c905092915050565b6000620005b96000198460080262000599565b1980831691505092915050565b6000620005d48383620005a6565b9150826002028217905092915050565b620005ef8262000399565b67ffffffffffffffff8111156200060b576200060a620001e4565b5b620006178254620003d3565b6200062482828562000549565b600060209050601f8311600181146200065c576000841562000647578287015190505b620006538582620005c6565b865550620006c3565b601f1984166200066c8662000408565b60005b8281101562000696578489015182556001820191506020850194506020810190506200066f565b86831015620006b65784890151620006b2601f891682620005a6565b8355505b6001600288020188555050505b505050505050565b612ecb80620006db6000396000f3fe60806040526004361061012a5760003560e01c80638da5cb5b116100ab578063c95255671161006f578063c9525567146103d5578063ccbbd260146103fe578063ce99886d14610443578063d840b4df1461046e578063da9dd8bf146104b3578063f3f0cd91146104f05761012a565b80638da5cb5b146102ee57806393b16be11461031957806396b9886214610342578063aa5b6d4c1461037f578063b3afc439146103aa5761012a565b80634c54114c116100f25780634c54114c1461021657806352ff15cd14610241578063574eb0331461026c5780635e60ab90146102a9578063610c8ced146102d25761012a565b806310ea13df1461012f578063192c86d41461015a5780632b925b251461018357806334422a47146101ae5780634a79d50c146101eb575b600080fd5b34801561013b57600080fd5b5061014461051b565b6040516101519190611ebb565b60405180910390f35b34801561016657600080fd5b50610181600480360381019061017c9190611f16565b610521565b005b34801561018f57600080fd5b5061019861072c565b6040516101a59190611ebb565b60405180910390f35b3480156101ba57600080fd5b506101d560048036038101906101d09190611f16565b610732565b6040516101e29190611ebb565b60405180910390f35b3480156101f757600080fd5b50610200610752565b60405161020d9190611fd3565b60405180910390f35b34801561022257600080fd5b5061022b6107e0565b6040516102389190611ebb565b60405180910390f35b34801561024d57600080fd5b506102566107e6565b60405161026391906120e5565b60405180910390f35b34801561027857600080fd5b50610293600480360381019061028e9190612133565b610874565b6040516102a09190612182565b60405180910390f35b3480156102b557600080fd5b506102d060048036038101906102cb9190611f16565b6108c2565b005b6102ec60048036038101906102e79190611f16565b6109ca565b005b3480156102fa57600080fd5b50610303610bea565b6040516103109190612182565b60405180910390f35b34801561032557600080fd5b50610340600480360381019061033b91906122d2565b610c10565b005b34801561034e57600080fd5b50610369600480360381019061036491906123cf565b611146565b6040516103769190611ebb565b60405180910390f35b34801561038b57600080fd5b5061039461115e565b6040516103a19190612697565b60405180910390f35b3480156103b657600080fd5b506103bf6115df565b6040516103cc91906126c8565b60405180910390f35b3480156103e157600080fd5b506103fc60048036038101906103f79190611f16565b6115f2565b005b34801561040a57600080fd5b5061042560048036038101906104209190611f16565b6116fa565b60405161043a999897969594939291906126e3565b60405180910390f35b34801561044f57600080fd5b506104586119b5565b6040516104659190612182565b60405180910390f35b34801561047a57600080fd5b5061049560048036038101906104909190611f16565b6119db565b6040516104aa999897969594939291906126e3565b60405180910390f35b3480156104bf57600080fd5b506104da60048036038101906104d591906123cf565b611ca6565b6040516104e791906126c8565b60405180910390f35b3480156104fc57600080fd5b50610505611d54565b6040516105129190612182565b60405180910390f35b60045481565b6000600c600083815260200190815260200160002090508060000160009054906101000a900473ffffffffffffffffffffffffffffffffffffffff1673ffffffffffffffffffffffffffffffffffffffff163373ffffffffffffffffffffffffffffffffffffffff1614806105e557508060010160009054906101000a900473ffffffffffffffffffffffffffffffffffffffff1673ffffffffffffffffffffffffffffffffffffffff163373ffffffffffffffffffffffffffffffffffffffff16145b610624576040517f08c379a000000000000000000000000000000000000000000000000000000000815260040161061b906127d8565b60405180910390fd5b60008160070154905060008111610670576040517f08c379a000000000000000000000000000000000000000000000000000000000815260040161066790612844565b60405180910390fd5b6000826007018190555060003373ffffffffffffffffffffffffffffffffffffffff16826040516106a090612895565b60006040518083038185875af1925050503d80600081146106dd576040519150601f19603f3d011682016040523d82523d6000602084013e6106e2565b606091505b5050905080610726576040517f08c379a000000000000000000000000000000000000000000000000000000000815260040161071d906128f6565b60405180910390fd5b50505050565b60055481565b6000600c6000838152602001908152602001600020600701549050919050565b6000805461075f90612945565b80601f016020809104026020016040519081016040528092919081815260200182805461078b90612945565b80156107d85780601f106107ad576101008083540402835291602001916107d8565b820191906000526020600020905b8154815290600101906020018083116107bb57829003601f168201915b505050505081565b60085481565b6060600a80548060200260200160405190810160405280929190818152602001828054801561086a57602002820191906000526020600020905b8160009054906101000a900473ffffffffffffffffffffffffffffffffffffffff1673ffffffffffffffffffffffffffffffffffffffff1681526020019060010190808311610820575b5050505050905090565b600b602052816000526040600020818154811061089057600080fd5b906000526020600020016000915091509054906101000a900473ffffffffffffffffffffffffffffffffffffffff1681565b6108cb33611ca6565b61090a576040517f08c379a0000000000000000000000000000000000000000000000000000000008152600401610901906129c2565b60405180910390fd5b60008111801561091c57506008548111155b61095b576040517f08c379a000000000000000000000000000000000000000000000000000000000815260040161095290612a2e565b60405180910390fd5b6000600c6000838152602001908152602001600020905060008160090160006101000a81548160ff0219169083151502179055507fa06f724666d0a2bde56689ccf4d2e4b5e3e76d852cf31aa25c2e214db33ffe5f826040516109be9190611ebb565b60405180910390a15050565b6000600c600083815260200190815260200160002090508060000160009054906101000a900473ffffffffffffffffffffffffffffffffffffffff1673ffffffffffffffffffffffffffffffffffffffff163373ffffffffffffffffffffffffffffffffffffffff1614158015610a9157508060010160009054906101000a900473ffffffffffffffffffffffffffffffffffffffff1673ffffffffffffffffffffffffffffffffffffffff163373ffffffffffffffffffffffffffffffffffffffff1614155b610ad0576040517f08c379a0000000000000000000000000000000000000000000000000000000008152600401610ac790612ac0565b60405180910390fd5b34816007016000828254610ae49190612b0f565b9250508190555080600801339080600181540180825580915050600190039060005260206000200160009091909190916101000a81548173ffffffffffffffffffffffffffffffffffffffff021916908373ffffffffffffffffffffffffffffffffffffffff16021790555034600660003373ffffffffffffffffffffffffffffffffffffffff1673ffffffffffffffffffffffffffffffffffffffff168152602001908152602001600020819055503460046000828254610ba69190612b0f565b925050819055507f0e9450c60b5852553342ccda7c9307802902542d41f8d2a9d1d4e0d13e97355c3334604051610bde929190612b43565b60405180910390a15050565b600360009054906101000a900473ffffffffffffffffffffffffffffffffffffffff1681565b60086000815480929190610c2390612b6c565b9190505550600080600854905060006040518061014001604052808a73ffffffffffffffffffffffffffffffffffffffff1681526020018973ffffffffffffffffffffffffffffffffffffffff168152602001888152602001868152602001858152602001878152602001838152602001848152602001600067ffffffffffffffff811115610cb557610cb46121a7565b5b604051908082528060200260200182016040528015610ce35781602001602082028036833780820191505090505b50815260200160001515815250905080600c600084815260200190815260200160002060008201518160000160006101000a81548173ffffffffffffffffffffffffffffffffffffffff021916908373ffffffffffffffffffffffffffffffffffffffff16021790555060208201518160010160006101000a81548173ffffffffffffffffffffffffffffffffffffffff021916908373ffffffffffffffffffffffffffffffffffffffff1602179055506040820151816002019081610da99190612d60565b506060820151816003019081610dbf9190612d60565b506080820151816004019081610dd59190612d60565b5060a0820151816005019081610deb9190612d60565b5060c0820151816006015560e08201518160070155610100820151816008019080519060200190610e1d929190611d7a565b506101208201518160090160006101000a81548160ff02191690831515021790555090505060098190806001815401808255809150506001900390600052602060002090600a020160009091909190915060008201518160000160006101000a81548173ffffffffffffffffffffffffffffffffffffffff021916908373ffffffffffffffffffffffffffffffffffffffff16021790555060208201518160010160006101000a81548173ffffffffffffffffffffffffffffffffffffffff021916908373ffffffffffffffffffffffffffffffffffffffff1602179055506040820151816002019081610f119190612d60565b506060820151816003019081610f279190612d60565b506080820151816004019081610f3d9190612d60565b5060a0820151816005019081610f539190612d60565b5060c0820151816006015560e08201518160070155610100820151816008019080519060200190610f85929190611d7a565b506101208201518160090160006101000a81548160ff0219169083151502179055505050600b60003073ffffffffffffffffffffffffffffffffffffffff1673ffffffffffffffffffffffffffffffffffffffff168152602001908152602001600020899080600181540180825580915050600190039060005260206000200160009091909190916101000a81548173ffffffffffffffffffffffffffffffffffffffff021916908373ffffffffffffffffffffffffffffffffffffffff160217905550600b60003073ffffffffffffffffffffffffffffffffffffffff1673ffffffffffffffffffffffffffffffffffffffff168152602001908152602001600020889080600181540180825580915050600190039060005260206000200160009091909190916101000a81548173ffffffffffffffffffffffffffffffffffffffff021916908373ffffffffffffffffffffffffffffffffffffffff1602179055506001600760006101000a81548160ff0219169083151502179055507f87fc1796dbc913ab997ce574688bcad88f5eb317373be9ec71de2bde33e5c830306040516111339190612182565b60405180910390a1505050505050505050565b60066020528060005260406000206000915090505481565b6060600060085467ffffffffffffffff81111561117e5761117d6121a7565b5b6040519080825280602002602001820160405280156111b757816020015b6111a4611e04565b81526020019060019003908161119c5790505b5090506000600190505b60085481116115d757600c6000828152602001908152602001600020604051806101400160405290816000820160009054906101000a900473ffffffffffffffffffffffffffffffffffffffff1673ffffffffffffffffffffffffffffffffffffffff1673ffffffffffffffffffffffffffffffffffffffff1681526020016001820160009054906101000a900473ffffffffffffffffffffffffffffffffffffffff1673ffffffffffffffffffffffffffffffffffffffff1673ffffffffffffffffffffffffffffffffffffffff1681526020016002820180546112a590612945565b80601f01602080910402602001604051908101604052809291908181526020018280546112d190612945565b801561131e5780601f106112f35761010080835404028352916020019161131e565b820191906000526020600020905b81548152906001019060200180831161130157829003601f168201915b5050505050815260200160038201805461133790612945565b80601f016020809104026020016040519081016040528092919081815260200182805461136390612945565b80156113b05780601f10611385576101008083540402835291602001916113b0565b820191906000526020600020905b81548152906001019060200180831161139357829003601f168201915b505050505081526020016004820180546113c990612945565b80601f01602080910402602001604051908101604052809291908181526020018280546113f590612945565b80156114425780601f1061141757610100808354040283529160200191611442565b820191906000526020600020905b81548152906001019060200180831161142557829003601f168201915b5050505050815260200160058201805461145b90612945565b80601f016020809104026020016040519081016040528092919081815260200182805461148790612945565b80156114d45780601f106114a9576101008083540402835291602001916114d4565b820191906000526020600020905b8154815290600101906020018083116114b757829003601f168201915b5050505050815260200160068201548152602001600782015481526020016008820180548060200260200160405190810160405280929190818152602001828054801561157657602002820191906000526020600020905b8160009054906101000a900473ffffffffffffffffffffffffffffffffffffffff1673ffffffffffffffffffffffffffffffffffffffff168152602001906001019080831161152c575b505050505081526020016009820160009054906101000a900460ff161515151581525050826001836115a89190612e32565b815181106115b9576115b8612e66565b5b602002602001018190525080806115cf90612b6c565b9150506111c1565b508091505090565b600760009054906101000a900460ff1681565b6115fb33611ca6565b61163a576040517f08c379a0000000000000000000000000000000000000000000000000000000008152600401611631906129c2565b60405180910390fd5b60008111801561164c57506008548111155b61168b576040517f08c379a000000000000000000000000000000000000000000000000000000000815260040161168290612a2e565b60405180910390fd5b6000600c6000838152602001908152602001600020905060018160090160006101000a81548160ff0219169083151502179055507fa06f724666d0a2bde56689ccf4d2e4b5e3e76d852cf31aa25c2e214db33ffe5f826040516116ee9190611ebb565b60405180910390a15050565b600c6020528060005260406000206000915090508060000160009054906101000a900473ffffffffffffffffffffffffffffffffffffffff16908060010160009054906101000a900473ffffffffffffffffffffffffffffffffffffffff169080600201805461176990612945565b80601f016020809104026020016040519081016040528092919081815260200182805461179590612945565b80156117e25780601f106117b7576101008083540402835291602001916117e2565b820191906000526020600020905b8154815290600101906020018083116117c557829003601f168201915b5050505050908060030180546117f790612945565b80601f016020809104026020016040519081016040528092919081815260200182805461182390612945565b80156118705780601f1061184557610100808354040283529160200191611870565b820191906000526020600020905b81548152906001019060200180831161185357829003601f168201915b50505050509080600401805461188590612945565b80601f01602080910402602001604051908101604052809291908181526020018280546118b190612945565b80156118fe5780601f106118d3576101008083540402835291602001916118fe565b820191906000526020600020905b8154815290600101906020018083116118e157829003601f168201915b50505050509080600501805461191390612945565b80601f016020809104026020016040519081016040528092919081815260200182805461193f90612945565b801561198c5780601f106119615761010080835404028352916020019161198c565b820191906000526020600020905b81548152906001019060200180831161196f57829003601f168201915b5050505050908060060154908060070154908060090160009054906101000a900460ff16905089565b600160009054906101000a900473ffffffffffffffffffffffffffffffffffffffff1681565b600981815481106119eb57600080fd5b90600052602060002090600a02016000915090508060000160009054906101000a900473ffffffffffffffffffffffffffffffffffffffff16908060010160009054906101000a900473ffffffffffffffffffffffffffffffffffffffff1690806002018054611a5a90612945565b80601f0160208091040260200160405190810160405280929190818152602001828054611a8690612945565b8015611ad35780601f10611aa857610100808354040283529160200191611ad3565b820191906000526020600020905b815481529060010190602001808311611ab657829003601f168201915b505050505090806003018054611ae890612945565b80601f0160208091040260200160405190810160405280929190818152602001828054611b1490612945565b8015611b615780601f10611b3657610100808354040283529160200191611b61565b820191906000526020600020905b815481529060010190602001808311611b4457829003601f168201915b505050505090806004018054611b7690612945565b80601f0160208091040260200160405190810160405280929190818152602001828054611ba290612945565b8015611bef5780601f10611bc457610100808354040283529160200191611bef565b820191906000526020600020905b815481529060010190602001808311611bd257829003601f168201915b505050505090806005018054611c0490612945565b80601f0160208091040260200160405190810160405280929190818152602001828054611c3090612945565b8015611c7d5780601f10611c5257610100808354040283529160200191611c7d565b820191906000526020600020905b815481529060010190602001808311611c6057829003601f168201915b5050505050908060060154908060070154908060090160009054906101000a900460ff16905089565b600080600090505b600a80549050811015611d49578273ffffffffffffffffffffffffffffffffffffffff16600a8281548110611ce657611ce5612e66565b5b9060005260206000200160009054906101000a900473ffffffffffffffffffffffffffffffffffffffff1673ffffffffffffffffffffffffffffffffffffffff1603611d36576001915050611d4f565b8080611d4190612b6c565b915050611cae565b50600090505b919050565b600260009054906101000a900473ffffffffffffffffffffffffffffffffffffffff1681565b828054828255906000526020600020908101928215611df3579160200282015b82811115611df25782518260006101000a81548173ffffffffffffffffffffffffffffffffffffffff021916908373ffffffffffffffffffffffffffffffffffffffff16021790555091602001919060010190611d9a565b5b509050611e009190611e85565b5090565b604051806101400160405280600073ffffffffffffffffffffffffffffffffffffffff168152602001600073ffffffffffffffffffffffffffffffffffffffff168152602001606081526020016060815260200160608152602001606081526020016000815260200160008152602001606081526020016000151581525090565b5b80821115611e9e576000816000905550600101611e86565b5090565b6000819050919050565b611eb581611ea2565b82525050565b6000602082019050611ed06000830184611eac565b92915050565b6000604051905090565b600080fd5b600080fd5b611ef381611ea2565b8114611efe57600080fd5b50565b600081359050611f1081611eea565b92915050565b600060208284031215611f2c57611f2b611ee0565b5b6000611f3a84828501611f01565b91505092915050565b600081519050919050565b600082825260208201905092915050565b60005b83811015611f7d578082015181840152602081019050611f62565b60008484015250505050565b6000601f19601f8301169050919050565b6000611fa582611f43565b611faf8185611f4e565b9350611fbf818560208601611f5f565b611fc881611f89565b840191505092915050565b60006020820190508181036000830152611fed8184611f9a565b905092915050565b600081519050919050565b600082825260208201905092915050565b6000819050602082019050919050565b600073ffffffffffffffffffffffffffffffffffffffff82169050919050565b600061204c82612021565b9050919050565b61205c81612041565b82525050565b600061206e8383612053565b60208301905092915050565b6000602082019050919050565b600061209282611ff5565b61209c8185612000565b93506120a783612011565b8060005b838110156120d85781516120bf8882612062565b97506120ca8361207a565b9250506001810190506120ab565b5085935050505092915050565b600060208201905081810360008301526120ff8184612087565b905092915050565b61211081612041565b811461211b57600080fd5b50565b60008135905061212d81612107565b92915050565b6000806040838503121561214a57612149611ee0565b5b60006121588582860161211e565b925050602061216985828601611f01565b9150509250929050565b61217c81612041565b82525050565b60006020820190506121976000830184612173565b92915050565b600080fd5b600080fd5b7f4e487b7100000000000000000000000000000000000000000000000000000000600052604160045260246000fd5b6121df82611f89565b810181811067ffffffffffffffff821117156121fe576121fd6121a7565b5b80604052505050565b6000612211611ed6565b905061221d82826121d6565b919050565b600067ffffffffffffffff82111561223d5761223c6121a7565b5b61224682611f89565b9050602081019050919050565b82818337600083830152505050565b600061227561227084612222565b612207565b905082815260208101848484011115612291576122906121a2565b5b61229c848285612253565b509392505050565b600082601f8301126122b9576122b861219d565b5b81356122c9848260208601612262565b91505092915050565b60008060008060008060c087890312156122ef576122ee611ee0565b5b60006122fd89828a0161211e565b965050602061230e89828a0161211e565b955050604087013567ffffffffffffffff81111561232f5761232e611ee5565b5b61233b89828a016122a4565b945050606087013567ffffffffffffffff81111561235c5761235b611ee5565b5b61236889828a016122a4565b935050608087013567ffffffffffffffff81111561238957612388611ee5565b5b61239589828a016122a4565b92505060a087013567ffffffffffffffff8111156123b6576123b5611ee5565b5b6123c289828a016122a4565b9150509295509295509295565b6000602082840312156123e5576123e4611ee0565b5b60006123f38482850161211e565b91505092915050565b600081519050919050565b600082825260208201905092915050565b6000819050602082019050919050565b600082825260208201905092915050565b600061244482611f43565b61244e8185612428565b935061245e818560208601611f5f565b61246781611f89565b840191505092915050565b61247b81611ea2565b82525050565b600082825260208201905092915050565b600061249d82611ff5565b6124a78185612481565b93506124b283612011565b8060005b838110156124e35781516124ca8882612062565b97506124d58361207a565b9250506001810190506124b6565b5085935050505092915050565b60008115159050919050565b612505816124f0565b82525050565b6000610140830160008301516125246000860182612053565b5060208301516125376020860182612053565b506040830151848203604086015261254f8282612439565b915050606083015184820360608601526125698282612439565b915050608083015184820360808601526125838282612439565b91505060a083015184820360a086015261259d8282612439565b91505060c08301516125b260c0860182612472565b5060e08301516125c560e0860182612472565b506101008301518482036101008601526125df8282612492565b9150506101208301516125f66101208601826124fc565b508091505092915050565b600061260d838361250b565b905092915050565b6000602082019050919050565b600061262d826123fc565b6126378185612407565b93508360208202850161264985612418565b8060005b8581101561268557848403895281516126668582612601565b945061267183612615565b925060208a0199505060018101905061264d565b50829750879550505050505092915050565b600060208201905081810360008301526126b18184612622565b905092915050565b6126c2816124f0565b82525050565b60006020820190506126dd60008301846126b9565b92915050565b6000610120820190506126f9600083018c612173565b612706602083018b612173565b8181036040830152612718818a611f9a565b9050818103606083015261272c8189611f9a565b905081810360808301526127408188611f9a565b905081810360a08301526127548187611f9a565b905061276360c0830186611eac565b61277060e0830185611eac565b61277e6101008301846126b9565b9a9950505050505050505050565b7f4f6e6c79206661726d6572732063616e2077697468647261772066756e647321600082015250565b60006127c2602083611f4e565b91506127cd8261278c565b602082019050919050565b600060208201905081810360008301526127f1816127b5565b9050919050565b7f4e6f2066756e647320746f207769746864726177210000000000000000000000600082015250565b600061282e601583611f4e565b9150612839826127f8565b602082019050919050565b6000602082019050818103600083015261285d81612821565b9050919050565b600081905092915050565b50565b600061287f600083612864565b915061288a8261286f565b600082019050919050565b60006128a082612872565b9150819050919050565b7f4661696c656420746f207472616e736665722066756e64732100000000000000600082015250565b60006128e0601983611f4e565b91506128eb826128aa565b602082019050919050565b6000602082019050818103600083015261290f816128d3565b9050919050565b7f4e487b7100000000000000000000000000000000000000000000000000000000600052602260045260246000fd5b6000600282049050600182168061295d57607f821691505b6020821081036129705761296f612916565b5b50919050565b7f556e617574686f72697a65642061636365737300000000000000000000000000600082015250565b60006129ac601383611f4e565b91506129b782612976565b602082019050919050565b600060208201905081810360008301526129db8161299f565b9050919050565b7f496e76616c69642044414f204944000000000000000000000000000000000000600082015250565b6000612a18600e83611f4e565b9150612a23826129e2565b602082019050919050565b60006020820190508181036000830152612a4781612a0b565b9050919050565b7f4f6e6c7920616464726573736573207468617420686176656e2774206a6f696e60008201527f6564207468652044414f2063616e20696e766573742e00000000000000000000602082015250565b6000612aaa603683611f4e565b9150612ab582612a4e565b604082019050919050565b60006020820190508181036000830152612ad981612a9d565b9050919050565b7f4e487b7100000000000000000000000000000000000000000000000000000000600052601160045260246000fd5b6000612b1a82611ea2565b9150612b2583611ea2565b9250828201905080821115612b3d57612b3c612ae0565b5b92915050565b6000604082019050612b586000830185612173565b612b656020830184611eac565b9392505050565b6000612b7782611ea2565b91507fffffffffffffffffffffffffffffffffffffffffffffffffffffffffffffffff8203612ba957612ba8612ae0565b5b600182019050919050565b60008190508160005260206000209050919050565b60006020601f8301049050919050565b600082821b905092915050565b600060088302612c167fffffffffffffffffffffffffffffffffffffffffffffffffffffffffffffffff82612bd9565b612c208683612bd9565b95508019841693508086168417925050509392505050565b6000819050919050565b6000612c5d612c58612c5384611ea2565b612c38565b611ea2565b9050919050565b6000819050919050565b612c7783612c42565b612c8b612c8382612c64565b848454612be6565b825550505050565b600090565b612ca0612c93565b612cab818484612c6e565b505050565b5b81811015612ccf57612cc4600082612c98565b600181019050612cb1565b5050565b601f821115612d1457612ce581612bb4565b612cee84612bc9565b81016020851015612cfd578190505b612d11612d0985612bc9565b830182612cb0565b50505b505050565b600082821c905092915050565b6000612d3760001984600802612d19565b1980831691505092915050565b6000612d508383612d26565b9150826002028217905092915050565b612d6982611f43565b67ffffffffffffffff811115612d8257612d816121a7565b5b612d8c8254612945565b612d97828285612cd3565b600060209050601f831160018114612dca5760008415612db8578287015190505b612dc28582612d44565b865550612e2a565b601f198416612dd886612bb4565b60005b82811015612e0057848901518255600182019150602085019450602081019050612ddb565b86831015612e1d5784890151612e19601f891682612d26565b8355505b6001600288020188555050505b505050505050565b6000612e3d82611ea2565b9150612e4883611ea2565b9250828203905081811115612e6057612e5f612ae0565b5b92915050565b7f4e487b7100000000000000000000000000000000000000000000000000000000600052603260045260246000fdfea26469706673582212204ec835acdbe00fec3f26dda915f45c03484cd1ba1c3d1ef00c127ab37937d22b64736f6c63430008130033",
  "linkReferences": {},
  "deployedLinkReferences": {}
}