{
  "_format": "hh-sol-artifact-1",
  "contractName": "FarmDAO",
  "sourceName": "contracts/Dao.sol",
  "abi": [
    {
      "inputs": [
        {
          "internalType": "string",
          "name": "_title",
          "type": "string"
        }
      ],
      "stateMutability": "nonpayable",
      "type": "constructor"
    },
    {
      "anonymous": false,
      "inputs": [
        {
          "indexed": false,
          "internalType": "address",
          "name": "daoAddress",
          "type": "address"
        }
      ],
      "name": "DaoCreated",
      "type": "event"
    },
    {
      "anonymous": false,
      "inputs": [
        {
          "indexed": false,
          "internalType": "uint256",
          "name": "daoId",
          "type": "uint256"
        }
      ],
      "name": "DaoVerified",
      "type": "event"
    },
    {
      "anonymous": false,
      "inputs": [
        {
          "indexed": false,
          "internalType": "address",
          "name": "investor",
          "type": "address"
        },
        {
          "indexed": false,
          "internalType": "uint256",
          "name": "amount",
          "type": "uint256"
        }
      ],
      "name": "InvestmentAdded",
      "type": "event"
    },
    {
      "inputs": [
        {
          "internalType": "uint256",
          "name": "daoId",
          "type": "uint256"
        }
      ],
      "name": "addInvestment",
      "outputs": [],
      "stateMutability": "payable",
      "type": "function"
    },
    {
      "inputs": [
        {
          "internalType": "address",
          "name": "_farmer1",
          "type": "address"
        },
        {
          "internalType": "address",
          "name": "_farmer2",
          "type": "address"
        },
        {
          "internalType": "string",
          "name": "_description",
          "type": "string"
        },
        {
          "internalType": "string",
          "name": "_name",
          "type": "string"
        },
        {
          "internalType": "string",
          "name": "_farmReports",
          "type": "string"
        },
        {
          "internalType": "string",
          "name": "_financialReports",
          "type": "string"
        }
      ],
      "name": "createDao",
      "outputs": [],
      "stateMutability": "nonpayable",
      "type": "function"
    },
    {
      "inputs": [],
      "name": "daoCreated",
      "outputs": [
        {
          "internalType": "bool",
          "name": "",
          "type": "bool"
        }
      ],
      "stateMutability": "view",
      "type": "function"
    },
    {
      "inputs": [
        {
          "internalType": "address",
          "name": "",
          "type": "address"
        },
        {
          "internalType": "uint256",
          "name": "",
          "type": "uint256"
        }
      ],
      "name": "daoFarmers",
      "outputs": [
        {
          "internalType": "address",
          "name": "",
          "type": "address"
        }
      ],
      "stateMutability": "view",
      "type": "function"
    },
    {
      "inputs": [],
      "name": "daoID",
      "outputs": [
        {
          "internalType": "uint256",
          "name": "",
          "type": "uint256"
        }
      ],
      "stateMutability": "view",
      "type": "function"
    },
    {
      "inputs": [
        {
          "internalType": "uint256",
          "name": "",
          "type": "uint256"
        }
      ],
      "name": "daos",
      "outputs": [
        {
          "internalType": "address",
          "name": "address1",
          "type": "address"
        },
        {
          "internalType": "address",
          "name": "address2",
          "type": "address"
        },
        {
          "internalType": "string",
          "name": "description",
          "type": "string"
        },
        {
          "internalType": "string",
          "name": "farmReports",
          "type": "string"
        },
        {
          "internalType": "string",
          "name": "financialReports",
          "type": "string"
        },
        {
          "internalType": "string",
          "name": "name",
          "type": "string"
        },
        {
          "internalType": "uint256",
          "name": "id",
          "type": "uint256"
        },
        {
          "internalType": "uint256",
          "name": "amountInvested",
          "type": "uint256"
        },
        {
          "internalType": "bool",
          "name": "verified",
          "type": "bool"
        }
      ],
      "stateMutability": "view",
      "type": "function"
    },
    {
      "inputs": [],
      "name": "farmer1",
      "outputs": [
        {
          "internalType": "address",
          "name": "",
          "type": "address"
        }
      ],
      "stateMutability": "view",
      "type": "function"
    },
    {
      "inputs": [],
      "name": "farmer2",
      "outputs": [
        {
          "internalType": "address",
          "name": "",
          "type": "address"
        }
      ],
      "stateMutability": "view",
      "type": "function"
    },
    {
      "inputs": [],
      "name": "getAllDaos",
      "outputs": [
        {
          "components": [
            {
              "internalType": "address",
              "name": "address1",
              "type": "address"
            },
            {
              "internalType": "address",
              "name": "address2",
              "type": "address"
            },
            {
              "internalType": "string",
              "name": "description",
              "type": "string"
            },
            {
              "internalType": "string",
              "name": "farmReports",
              "type": "string"
            },
            {
              "internalType": "string",
              "name": "financialReports",
              "type": "string"
            },
            {
              "internalType": "string",
              "name": "name",
              "type": "string"
            },
            {
              "internalType": "uint256",
              "name": "id",
              "type": "uint256"
            },
            {
              "internalType": "uint256",
              "name": "amountInvested",
              "type": "uint256"
            },
            {
              "internalType": "address[]",
              "name": "investors",
              "type": "address[]"
            },
            {
              "internalType": "bool",
              "name": "verified",
              "type": "bool"
            }
          ],
          "internalType": "struct FarmDAO.Dao[]",
          "name": "",
          "type": "tuple[]"
        }
      ],
      "stateMutability": "view",
      "type": "function"
    },
    {
      "inputs": [
        {
          "internalType": "uint256",
          "name": "daoId",
          "type": "uint256"
        }
      ],
      "name": "getTotalInvestment",
      "outputs": [
        {
          "internalType": "uint256",
          "name": "",
          "type": "uint256"
        }
      ],
      "stateMutability": "view",
      "type": "function"
    },
    {
      "inputs": [],
      "name": "getVerifiedAddresses",
      "outputs": [
        {
          "internalType": "address[]",
          "name": "",
          "type": "address[]"
        }
      ],
      "stateMutability": "view",
      "type": "function"
    },
    {
      "inputs": [
        {
          "internalType": "address",
          "name": "",
          "type": "address"
        }
      ],
      "name": "investments",
      "outputs": [
        {
          "internalType": "uint256",
          "name": "",
          "type": "uint256"
        }
      ],
      "stateMutability": "view",
      "type": "function"
    },
    {
      "inputs": [
        {
          "internalType": "address",
          "name": "_address",
          "type": "address"
        }
      ],
      "name": "isAddressVerified",
      "outputs": [
        {
          "internalType": "bool",
          "name": "",
          "type": "bool"
        }
      ],
      "stateMutability": "view",
      "type": "function"
    },
    {
      "inputs": [],
      "name": "minimumInvestment",
      "outputs": [
        {
          "internalType": "uint256",
          "name": "",
          "type": "uint256"
        }
      ],
      "stateMutability": "view",
      "type": "function"
    },
    {
      "inputs": [],
      "name": "owner",
      "outputs": [
        {
          "internalType": "address",
          "name": "",
          "type": "address"
        }
      ],
      "stateMutability": "view",
      "type": "function"
    },
    {
      "inputs": [
        {
          "internalType": "uint256",
          "name": "daoId",
          "type": "uint256"
        }
      ],
      "name": "removeDao",
      "outputs": [],
      "stateMutability": "nonpayable",
      "type": "function"
    },
    {
      "inputs": [],
      "name": "title",
      "outputs": [
        {
          "internalType": "string",
          "name": "",
          "type": "string"
        }
      ],
      "stateMutability": "view",
      "type": "function"
    },
    {
      "inputs": [
        {
          "internalType": "uint256",
          "name": "",
          "type": "uint256"
        }
      ],
      "name": "totalDAOs",
      "outputs": [
        {
          "internalType": "address",
          "name": "address1",
          "type": "address"
        },
        {
          "internalType": "address",
          "name": "address2",
          "type": "address"
        },
        {
          "internalType": "string",
          "name": "description",
          "type": "string"
        },
        {
          "internalType": "string",
          "name": "farmReports",
          "type": "string"
        },
        {
          "internalType": "string",
          "name": "financialReports",
          "type": "string"
        },
        {
          "internalType": "string",
          "name": "name",
          "type": "string"
        },
        {
          "internalType": "uint256",
          "name": "id",
          "type": "uint256"
        },
        {
          "internalType": "uint256",
          "name": "amountInvested",
          "type": "uint256"
        },
        {
          "internalType": "bool",
          "name": "verified",
          "type": "bool"
        }
      ],
      "stateMutability": "view",
      "type": "function"
    },
    {
      "inputs": [],
      "name": "totalInvestment",
      "outputs": [
        {
          "internalType": "uint256",
          "name": "",
          "type": "uint256"
        }
      ],
      "stateMutability": "view",
      "type": "function"
    },
    {
      "inputs": [
        {
          "internalType": "uint256",
          "name": "daoId",
          "type": "uint256"
        }
      ],
      "name": "unverifyDao",
      "outputs": [],
      "stateMutability": "nonpayable",
      "type": "function"
    },
    {
      "inputs": [
        {
          "internalType": "uint256",
          "name": "daoId",
          "type": "uint256"
        }
      ],
      "name": "verifyDao",
      "outputs": [],
      "stateMutability": "nonpayable",
      "type": "function"
    },
    {
      "inputs": [
        {
          "internalType": "uint256",
          "name": "daoId",
          "type": "uint256"
        }
      ],
      "name": "withDrawDFunds",
      "outputs": [],
      "stateMutability": "nonpayable",
      "type": "function"
    }
  ],
  "bytecode": "0x60806040523480156200001157600080fd5b5060405162003e9238038062003e92833981810160405281019062000037919062000348565b8060009081620000489190620005e4565b50600a7313ef924eb7408e90278b86b659960afb00ddae619080600181540180825580915050600190039060005260206000200160009091909190916101000a81548173ffffffffffffffffffffffffffffffffffffffff021916908373ffffffffffffffffffffffffffffffffffffffff160217905550600a7323792579e2979a98d12a33a85e35914079304a569080600181540180825580915050600190039060005260206000200160009091909190916101000a81548173ffffffffffffffffffffffffffffffffffffffff021916908373ffffffffffffffffffffffffffffffffffffffff160217905550600a73dc4f6ea5856eda459286e8d0ef42e389d07137ff9080600181540180825580915050600190039060005260206000200160009091909190916101000a81548173ffffffffffffffffffffffffffffffffffffffff021916908373ffffffffffffffffffffffffffffffffffffffff16021790555050620006cb565b6000604051905090565b600080fd5b600080fd5b600080fd5b600080fd5b6000601f19601f8301169050919050565b7f4e487b7100000000000000000000000000000000000000000000000000000000600052604160045260246000fd5b6200021e82620001d3565b810181811067ffffffffffffffff8211171562000240576200023f620001e4565b5b80604052505050565b600062000255620001b5565b905062000263828262000213565b919050565b600067ffffffffffffffff821115620002865762000285620001e4565b5b6200029182620001d3565b9050602081019050919050565b60005b83811015620002be578082015181840152602081019050620002a1565b60008484015250505050565b6000620002e1620002db8462000268565b62000249565b9050828152602081018484840111156200030057620002ff620001ce565b5b6200030d8482856200029e565b509392505050565b600082601f8301126200032d576200032c620001c9565b5b81516200033f848260208601620002ca565b91505092915050565b600060208284031215620003615762000360620001bf565b5b600082015167ffffffffffffffff811115620003825762000381620001c4565b5b620003908482850162000315565b91505092915050565b600081519050919050565b7f4e487b7100000000000000000000000000000000000000000000000000000000600052602260045260246000fd5b60006002820490506001821680620003ec57607f821691505b602082108103620004025762000401620003a4565b5b50919050565b60008190508160005260206000209050919050565b60006020601f8301049050919050565b600082821b905092915050565b6000600883026200046c7fffffffffffffffffffffffffffffffffffffffffffffffffffffffffffffffff826200042d565b6200047886836200042d565b95508019841693508086168417925050509392505050565b6000819050919050565b6000819050919050565b6000620004c5620004bf620004b98462000490565b6200049a565b62000490565b9050919050565b6000819050919050565b620004e183620004a4565b620004f9620004f082620004cc565b8484546200043a565b825550505050565b600090565b6200051062000501565b6200051d818484620004d6565b505050565b5b8181101562000545576200053960008262000506565b60018101905062000523565b5050565b601f82111562000594576200055e8162000408565b62000569846200041d565b8101602085101562000579578190505b6200059162000588856200041d565b83018262000522565b50505b505050565b600082821c905092915050565b6000620005b96000198460080262000599565b1980831691505092915050565b6000620005d48383620005a6565b9150826002028217905092915050565b620005ef8262000399565b67ffffffffffffffff8111156200060b576200060a620001e4565b5b620006178254620003d3565b6200062482828562000549565b600060209050601f8311600181146200065c576000841562000647578287015190505b620006538582620005c6565b865550620006c3565b601f1984166200066c8662000408565b60005b8281101562000696578489015182556001820191506020850194506020810190506200066f565b86831015620006b65784890151620006b2601f891682620005a6565b8355505b6001600288020188555050505b505050505050565b6137b780620006db6000396000f3fe6080604052600436106101355760003560e01c80638da5cb5b116100ab578063c95255671161006f578063c952556714610409578063ccbbd26014610432578063ce99886d14610477578063d840b4df146104a2578063da9dd8bf146104e7578063f3f0cd911461052457610135565b80638da5cb5b1461032257806393b16be11461034d57806396b9886214610376578063aa5b6d4c146103b3578063b3afc439146103de57610135565b80634a79d50c116100fd5780634a79d50c1461021f5780634c54114c1461024a57806352ff15cd14610275578063574eb033146102a05780635e60ab90146102dd578063610c8ced1461030657610135565b806310ea13df1461013a578063192c86d4146101655780631cb70fb91461018e5780632b925b25146101b757806334422a47146101e2575b600080fd5b34801561014657600080fd5b5061014f61054f565b60405161015c9190612536565b60405180910390f35b34801561017157600080fd5b5061018c60048036038101906101879190612591565b610555565b005b34801561019a57600080fd5b506101b560048036038101906101b09190612591565b610760565b005b3480156101c357600080fd5b506101cc610cf4565b6040516101d99190612536565b60405180910390f35b3480156101ee57600080fd5b5061020960048036038101906102049190612591565b610cfa565b6040516102169190612536565b60405180910390f35b34801561022b57600080fd5b50610234610d1a565b604051610241919061264e565b60405180910390f35b34801561025657600080fd5b5061025f610da8565b60405161026c9190612536565b60405180910390f35b34801561028157600080fd5b5061028a610dae565b6040516102979190612760565b60405180910390f35b3480156102ac57600080fd5b506102c760048036038101906102c291906127ae565b610e3c565b6040516102d491906127fd565b60405180910390f35b3480156102e957600080fd5b5061030460048036038101906102ff9190612591565b610e8a565b005b610320600480360381019061031b9190612591565b610f92565b005b34801561032e57600080fd5b506103376111b2565b60405161034491906127fd565b60405180910390f35b34801561035957600080fd5b50610374600480360381019061036f919061294d565b6111d8565b005b34801561038257600080fd5b5061039d60048036038101906103989190612a4a565b61170e565b6040516103aa9190612536565b60405180910390f35b3480156103bf57600080fd5b506103c8611726565b6040516103d59190612d12565b60405180910390f35b3480156103ea57600080fd5b506103f3611ba7565b6040516104009190612d43565b60405180910390f35b34801561041557600080fd5b50610430600480360381019061042b9190612591565b611bba565b005b34801561043e57600080fd5b5061045960048036038101906104549190612591565b611cc2565b60405161046e99989796959493929190612d5e565b60405180910390f35b34801561048357600080fd5b5061048c611f7d565b60405161049991906127fd565b60405180910390f35b3480156104ae57600080fd5b506104c960048036038101906104c49190612591565b611fa3565b6040516104de99989796959493929190612d5e565b60405180910390f35b3480156104f357600080fd5b5061050e60048036038101906105099190612a4a565b61226e565b60405161051b9190612d43565b60405180910390f35b34801561053057600080fd5b5061053961231c565b60405161054691906127fd565b60405180910390f35b60045481565b6000600c600083815260200190815260200160002090508060000160009054906101000a900473ffffffffffffffffffffffffffffffffffffffff1673ffffffffffffffffffffffffffffffffffffffff163373ffffffffffffffffffffffffffffffffffffffff16148061061957508060010160009054906101000a900473ffffffffffffffffffffffffffffffffffffffff1673ffffffffffffffffffffffffffffffffffffffff163373ffffffffffffffffffffffffffffffffffffffff16145b610658576040517f08c379a000000000000000000000000000000000000000000000000000000000815260040161064f90612e53565b60405180910390fd5b600081600701549050600081116106a4576040517f08c379a000000000000000000000000000000000000000000000000000000000815260040161069b90612ebf565b60405180910390fd5b6000826007018190555060003373ffffffffffffffffffffffffffffffffffffffff16826040516106d490612f10565b60006040518083038185875af1925050503d8060008114610711576040519150601f19603f3d011682016040523d82523d6000602084013e610716565b606091505b505090508061075a576040517f08c379a000000000000000000000000000000000000000000000000000000000815260040161075190612f71565b60405180910390fd5b50505050565b6107693361226e565b6107a8576040517f08c379a000000000000000000000000000000000000000000000000000000000815260040161079f90612fdd565b60405180910390fd5b6000811180156107ba57506008548111155b6107f9576040517f08c379a00000000000000000000000000000000000000000000000000000000081526004016107f090613049565b60405180910390fd5b6000600c600083815260200190815260200160002090508060090160009054906101000a900460ff1615610862576040517f08c379a0000000000000000000000000000000000000000000000000000000008152600401610859906130b5565b60405180910390fd5b60006001836108719190613104565b905060098054905081106108ba576040517f08c379a00000000000000000000000000000000000000000000000000000000081526004016108b190613184565b60405180910390fd5b82600982815481106108cf576108ce6131a4565b5b90600052602060002090600a02016006015414610921576040517f08c379a00000000000000000000000000000000000000000000000000000000081526004016109189061321f565b60405180910390fd5b600960016009805490506109359190613104565b81548110610946576109456131a4565b5b90600052602060002090600a020160098281548110610968576109676131a4565b5b90600052602060002090600a02016000820160009054906101000a900473ffffffffffffffffffffffffffffffffffffffff168160000160006101000a81548173ffffffffffffffffffffffffffffffffffffffff021916908373ffffffffffffffffffffffffffffffffffffffff1602179055506001820160009054906101000a900473ffffffffffffffffffffffffffffffffffffffff168160010160006101000a81548173ffffffffffffffffffffffffffffffffffffffff021916908373ffffffffffffffffffffffffffffffffffffffff16021790555060028201816002019081610a589190613461565b5060038201816003019081610a6d9190613461565b5060048201816004019081610a829190613461565b5060058201816005019081610a979190613461565b5060068201548160060155600782015481600701556008820181600801908054610ac2929190612342565b506009820160009054906101000a900460ff168160090160006101000a81548160ff0219169083151502179055509050506009805480610b0557610b04613549565b5b60019003818190600052602060002090600a0201600080820160006101000a81549073ffffffffffffffffffffffffffffffffffffffff02191690556001820160006101000a81549073ffffffffffffffffffffffffffffffffffffffff0219169055600282016000610b789190612394565b600382016000610b889190612394565b600482016000610b989190612394565b600582016000610ba89190612394565b60068201600090556007820160009055600882016000610bc891906123d4565b6009820160006101000a81549060ff021916905550509055600c6000848152602001908152602001600020600080820160006101000a81549073ffffffffffffffffffffffffffffffffffffffff02191690556001820160006101000a81549073ffffffffffffffffffffffffffffffffffffffff0219169055600282016000610c529190612394565b600382016000610c629190612394565b600482016000610c729190612394565b600582016000610c829190612394565b60068201600090556007820160009055600882016000610ca291906123d4565b6009820160006101000a81549060ff021916905550507fa06f724666d0a2bde56689ccf4d2e4b5e3e76d852cf31aa25c2e214db33ffe5f83604051610ce79190612536565b60405180910390a1505050565b60055481565b6000600c6000838152602001908152602001600020600701549050919050565b60008054610d279061326e565b80601f0160208091040260200160405190810160405280929190818152602001828054610d539061326e565b8015610da05780601f10610d7557610100808354040283529160200191610da0565b820191906000526020600020905b815481529060010190602001808311610d8357829003601f168201915b505050505081565b60085481565b6060600a805480602002602001604051908101604052809291908181526020018280548015610e3257602002820191906000526020600020905b8160009054906101000a900473ffffffffffffffffffffffffffffffffffffffff1673ffffffffffffffffffffffffffffffffffffffff1681526020019060010190808311610de8575b5050505050905090565b600b6020528160005260406000208181548110610e5857600080fd5b906000526020600020016000915091509054906101000a900473ffffffffffffffffffffffffffffffffffffffff1681565b610e933361226e565b610ed2576040517f08c379a0000000000000000000000000000000000000000000000000000000008152600401610ec990612fdd565b60405180910390fd5b600081118015610ee457506008548111155b610f23576040517f08c379a0000000000000000000000000000000000000000000000000000000008152600401610f1a90613049565b60405180910390fd5b6000600c6000838152602001908152602001600020905060008160090160006101000a81548160ff0219169083151502179055507fa06f724666d0a2bde56689ccf4d2e4b5e3e76d852cf31aa25c2e214db33ffe5f82604051610f869190612536565b60405180910390a15050565b6000600c600083815260200190815260200160002090508060000160009054906101000a900473ffffffffffffffffffffffffffffffffffffffff1673ffffffffffffffffffffffffffffffffffffffff163373ffffffffffffffffffffffffffffffffffffffff161415801561105957508060010160009054906101000a900473ffffffffffffffffffffffffffffffffffffffff1673ffffffffffffffffffffffffffffffffffffffff163373ffffffffffffffffffffffffffffffffffffffff1614155b611098576040517f08c379a000000000000000000000000000000000000000000000000000000000815260040161108f906135ea565b60405180910390fd5b348160070160008282546110ac919061360a565b9250508190555080600801339080600181540180825580915050600190039060005260206000200160009091909190916101000a81548173ffffffffffffffffffffffffffffffffffffffff021916908373ffffffffffffffffffffffffffffffffffffffff16021790555034600660003373ffffffffffffffffffffffffffffffffffffffff1673ffffffffffffffffffffffffffffffffffffffff16815260200190815260200160002081905550346004600082825461116e919061360a565b925050819055507f0e9450c60b5852553342ccda7c9307802902542d41f8d2a9d1d4e0d13e97355c33346040516111a692919061363e565b60405180910390a15050565b600360009054906101000a900473ffffffffffffffffffffffffffffffffffffffff1681565b600860008154809291906111eb90613667565b9190505550600080600854905060006040518061014001604052808a73ffffffffffffffffffffffffffffffffffffffff1681526020018973ffffffffffffffffffffffffffffffffffffffff168152602001888152602001868152602001858152602001878152602001838152602001848152602001600067ffffffffffffffff81111561127d5761127c612822565b5b6040519080825280602002602001820160405280156112ab5781602001602082028036833780820191505090505b50815260200160001515815250905080600c600084815260200190815260200160002060008201518160000160006101000a81548173ffffffffffffffffffffffffffffffffffffffff021916908373ffffffffffffffffffffffffffffffffffffffff16021790555060208201518160010160006101000a81548173ffffffffffffffffffffffffffffffffffffffff021916908373ffffffffffffffffffffffffffffffffffffffff160217905550604082015181600201908161137191906136af565b50606082015181600301908161138791906136af565b50608082015181600401908161139d91906136af565b5060a08201518160050190816113b391906136af565b5060c0820151816006015560e082015181600701556101008201518160080190805190602001906113e59291906123f5565b506101208201518160090160006101000a81548160ff02191690831515021790555090505060098190806001815401808255809150506001900390600052602060002090600a020160009091909190915060008201518160000160006101000a81548173ffffffffffffffffffffffffffffffffffffffff021916908373ffffffffffffffffffffffffffffffffffffffff16021790555060208201518160010160006101000a81548173ffffffffffffffffffffffffffffffffffffffff021916908373ffffffffffffffffffffffffffffffffffffffff16021790555060408201518160020190816114d991906136af565b5060608201518160030190816114ef91906136af565b50608082015181600401908161150591906136af565b5060a082015181600501908161151b91906136af565b5060c0820151816006015560e0820151816007015561010082015181600801908051906020019061154d9291906123f5565b506101208201518160090160006101000a81548160ff0219169083151502179055505050600b60003073ffffffffffffffffffffffffffffffffffffffff1673ffffffffffffffffffffffffffffffffffffffff168152602001908152602001600020899080600181540180825580915050600190039060005260206000200160009091909190916101000a81548173ffffffffffffffffffffffffffffffffffffffff021916908373ffffffffffffffffffffffffffffffffffffffff160217905550600b60003073ffffffffffffffffffffffffffffffffffffffff1673ffffffffffffffffffffffffffffffffffffffff168152602001908152602001600020889080600181540180825580915050600190039060005260206000200160009091909190916101000a81548173ffffffffffffffffffffffffffffffffffffffff021916908373ffffffffffffffffffffffffffffffffffffffff1602179055506001600760006101000a81548160ff0219169083151502179055507f87fc1796dbc913ab997ce574688bcad88f5eb317373be9ec71de2bde33e5c830306040516116fb91906127fd565b60405180910390a1505050505050505050565b60066020528060005260406000206000915090505481565b6060600060085467ffffffffffffffff81111561174657611745612822565b5b60405190808252806020026020018201604052801561177f57816020015b61176c61247f565b8152602001906001900390816117645790505b5090506000600190505b6008548111611b9f57600c6000828152602001908152602001600020604051806101400160405290816000820160009054906101000a900473ffffffffffffffffffffffffffffffffffffffff1673ffffffffffffffffffffffffffffffffffffffff1673ffffffffffffffffffffffffffffffffffffffff1681526020016001820160009054906101000a900473ffffffffffffffffffffffffffffffffffffffff1673ffffffffffffffffffffffffffffffffffffffff1673ffffffffffffffffffffffffffffffffffffffff16815260200160028201805461186d9061326e565b80601f01602080910402602001604051908101604052809291908181526020018280546118999061326e565b80156118e65780601f106118bb576101008083540402835291602001916118e6565b820191906000526020600020905b8154815290600101906020018083116118c957829003601f168201915b505050505081526020016003820180546118ff9061326e565b80601f016020809104026020016040519081016040528092919081815260200182805461192b9061326e565b80156119785780601f1061194d57610100808354040283529160200191611978565b820191906000526020600020905b81548152906001019060200180831161195b57829003601f168201915b505050505081526020016004820180546119919061326e565b80601f01602080910402602001604051908101604052809291908181526020018280546119bd9061326e565b8015611a0a5780601f106119df57610100808354040283529160200191611a0a565b820191906000526020600020905b8154815290600101906020018083116119ed57829003601f168201915b50505050508152602001600582018054611a239061326e565b80601f0160208091040260200160405190810160405280929190818152602001828054611a4f9061326e565b8015611a9c5780601f10611a7157610100808354040283529160200191611a9c565b820191906000526020600020905b815481529060010190602001808311611a7f57829003601f168201915b50505050508152602001600682015481526020016007820154815260200160088201805480602002602001604051908101604052809291908181526020018280548015611b3e57602002820191906000526020600020905b8160009054906101000a900473ffffffffffffffffffffffffffffffffffffffff1673ffffffffffffffffffffffffffffffffffffffff1681526020019060010190808311611af4575b505050505081526020016009820160009054906101000a900460ff16151515158152505082600183611b709190613104565b81518110611b8157611b806131a4565b5b60200260200101819052508080611b9790613667565b915050611789565b508091505090565b600760009054906101000a900460ff1681565b611bc33361226e565b611c02576040517f08c379a0000000000000000000000000000000000000000000000000000000008152600401611bf990612fdd565b60405180910390fd5b600081118015611c1457506008548111155b611c53576040517f08c379a0000000000000000000000000000000000000000000000000000000008152600401611c4a90613049565b60405180910390fd5b6000600c6000838152602001908152602001600020905060018160090160006101000a81548160ff0219169083151502179055507fa06f724666d0a2bde56689ccf4d2e4b5e3e76d852cf31aa25c2e214db33ffe5f82604051611cb69190612536565b60405180910390a15050565b600c6020528060005260406000206000915090508060000160009054906101000a900473ffffffffffffffffffffffffffffffffffffffff16908060010160009054906101000a900473ffffffffffffffffffffffffffffffffffffffff1690806002018054611d319061326e565b80601f0160208091040260200160405190810160405280929190818152602001828054611d5d9061326e565b8015611daa5780601f10611d7f57610100808354040283529160200191611daa565b820191906000526020600020905b815481529060010190602001808311611d8d57829003601f168201915b505050505090806003018054611dbf9061326e565b80601f0160208091040260200160405190810160405280929190818152602001828054611deb9061326e565b8015611e385780601f10611e0d57610100808354040283529160200191611e38565b820191906000526020600020905b815481529060010190602001808311611e1b57829003601f168201915b505050505090806004018054611e4d9061326e565b80601f0160208091040260200160405190810160405280929190818152602001828054611e799061326e565b8015611ec65780601f10611e9b57610100808354040283529160200191611ec6565b820191906000526020600020905b815481529060010190602001808311611ea957829003601f168201915b505050505090806005018054611edb9061326e565b80601f0160208091040260200160405190810160405280929190818152602001828054611f079061326e565b8015611f545780601f10611f2957610100808354040283529160200191611f54565b820191906000526020600020905b815481529060010190602001808311611f3757829003601f168201915b5050505050908060060154908060070154908060090160009054906101000a900460ff16905089565b600160009054906101000a900473ffffffffffffffffffffffffffffffffffffffff1681565b60098181548110611fb357600080fd5b90600052602060002090600a02016000915090508060000160009054906101000a900473ffffffffffffffffffffffffffffffffffffffff16908060010160009054906101000a900473ffffffffffffffffffffffffffffffffffffffff16908060020180546120229061326e565b80601f016020809104026020016040519081016040528092919081815260200182805461204e9061326e565b801561209b5780601f106120705761010080835404028352916020019161209b565b820191906000526020600020905b81548152906001019060200180831161207e57829003601f168201915b5050505050908060030180546120b09061326e565b80601f01602080910402602001604051908101604052809291908181526020018280546120dc9061326e565b80156121295780601f106120fe57610100808354040283529160200191612129565b820191906000526020600020905b81548152906001019060200180831161210c57829003601f168201915b50505050509080600401805461213e9061326e565b80601f016020809104026020016040519081016040528092919081815260200182805461216a9061326e565b80156121b75780601f1061218c576101008083540402835291602001916121b7565b820191906000526020600020905b81548152906001019060200180831161219a57829003601f168201915b5050505050908060050180546121cc9061326e565b80601f01602080910402602001604051908101604052809291908181526020018280546121f89061326e565b80156122455780601f1061221a57610100808354040283529160200191612245565b820191906000526020600020905b81548152906001019060200180831161222857829003601f168201915b5050505050908060060154908060070154908060090160009054906101000a900460ff16905089565b600080600090505b600a80549050811015612311578273ffffffffffffffffffffffffffffffffffffffff16600a82815481106122ae576122ad6131a4565b5b9060005260206000200160009054906101000a900473ffffffffffffffffffffffffffffffffffffffff1673ffffffffffffffffffffffffffffffffffffffff16036122fe576001915050612317565b808061230990613667565b915050612276565b50600090505b919050565b600260009054906101000a900473ffffffffffffffffffffffffffffffffffffffff1681565b8280548282559060005260206000209081019282156123835760005260206000209182015b82811115612382578254825591600101919060010190612367565b5b5090506123909190612500565b5090565b5080546123a09061326e565b6000825580601f106123b257506123d1565b601f0160209004906000526020600020908101906123d09190612500565b5b50565b50805460008255906000526020600020908101906123f29190612500565b50565b82805482825590600052602060002090810192821561246e579160200282015b8281111561246d5782518260006101000a81548173ffffffffffffffffffffffffffffffffffffffff021916908373ffffffffffffffffffffffffffffffffffffffff16021790555091602001919060010190612415565b5b50905061247b9190612500565b5090565b604051806101400160405280600073ffffffffffffffffffffffffffffffffffffffff168152602001600073ffffffffffffffffffffffffffffffffffffffff168152602001606081526020016060815260200160608152602001606081526020016000815260200160008152602001606081526020016000151581525090565b5b80821115612519576000816000905550600101612501565b5090565b6000819050919050565b6125308161251d565b82525050565b600060208201905061254b6000830184612527565b92915050565b6000604051905090565b600080fd5b600080fd5b61256e8161251d565b811461257957600080fd5b50565b60008135905061258b81612565565b92915050565b6000602082840312156125a7576125a661255b565b5b60006125b58482850161257c565b91505092915050565b600081519050919050565b600082825260208201905092915050565b60005b838110156125f85780820151818401526020810190506125dd565b60008484015250505050565b6000601f19601f8301169050919050565b6000612620826125be565b61262a81856125c9565b935061263a8185602086016125da565b61264381612604565b840191505092915050565b600060208201905081810360008301526126688184612615565b905092915050565b600081519050919050565b600082825260208201905092915050565b6000819050602082019050919050565b600073ffffffffffffffffffffffffffffffffffffffff82169050919050565b60006126c78261269c565b9050919050565b6126d7816126bc565b82525050565b60006126e983836126ce565b60208301905092915050565b6000602082019050919050565b600061270d82612670565b612717818561267b565b93506127228361268c565b8060005b8381101561275357815161273a88826126dd565b9750612745836126f5565b925050600181019050612726565b5085935050505092915050565b6000602082019050818103600083015261277a8184612702565b905092915050565b61278b816126bc565b811461279657600080fd5b50565b6000813590506127a881612782565b92915050565b600080604083850312156127c5576127c461255b565b5b60006127d385828601612799565b92505060206127e48582860161257c565b9150509250929050565b6127f7816126bc565b82525050565b600060208201905061281260008301846127ee565b92915050565b600080fd5b600080fd5b7f4e487b7100000000000000000000000000000000000000000000000000000000600052604160045260246000fd5b61285a82612604565b810181811067ffffffffffffffff8211171561287957612878612822565b5b80604052505050565b600061288c612551565b90506128988282612851565b919050565b600067ffffffffffffffff8211156128b8576128b7612822565b5b6128c182612604565b9050602081019050919050565b82818337600083830152505050565b60006128f06128eb8461289d565b612882565b90508281526020810184848401111561290c5761290b61281d565b5b6129178482856128ce565b509392505050565b600082601f83011261293457612933612818565b5b81356129448482602086016128dd565b91505092915050565b60008060008060008060c0878903121561296a5761296961255b565b5b600061297889828a01612799565b965050602061298989828a01612799565b955050604087013567ffffffffffffffff8111156129aa576129a9612560565b5b6129b689828a0161291f565b945050606087013567ffffffffffffffff8111156129d7576129d6612560565b5b6129e389828a0161291f565b935050608087013567ffffffffffffffff811115612a0457612a03612560565b5b612a1089828a0161291f565b92505060a087013567ffffffffffffffff811115612a3157612a30612560565b5b612a3d89828a0161291f565b9150509295509295509295565b600060208284031215612a6057612a5f61255b565b5b6000612a6e84828501612799565b91505092915050565b600081519050919050565b600082825260208201905092915050565b6000819050602082019050919050565b600082825260208201905092915050565b6000612abf826125be565b612ac98185612aa3565b9350612ad98185602086016125da565b612ae281612604565b840191505092915050565b612af68161251d565b82525050565b600082825260208201905092915050565b6000612b1882612670565b612b228185612afc565b9350612b2d8361268c565b8060005b83811015612b5e578151612b4588826126dd565b9750612b50836126f5565b925050600181019050612b31565b5085935050505092915050565b60008115159050919050565b612b8081612b6b565b82525050565b600061014083016000830151612b9f60008601826126ce565b506020830151612bb260208601826126ce565b5060408301518482036040860152612bca8282612ab4565b91505060608301518482036060860152612be48282612ab4565b91505060808301518482036080860152612bfe8282612ab4565b91505060a083015184820360a0860152612c188282612ab4565b91505060c0830151612c2d60c0860182612aed565b5060e0830151612c4060e0860182612aed565b50610100830151848203610100860152612c5a8282612b0d565b915050610120830151612c71610120860182612b77565b508091505092915050565b6000612c888383612b86565b905092915050565b6000602082019050919050565b6000612ca882612a77565b612cb28185612a82565b935083602082028501612cc485612a93565b8060005b85811015612d005784840389528151612ce18582612c7c565b9450612cec83612c90565b925060208a01995050600181019050612cc8565b50829750879550505050505092915050565b60006020820190508181036000830152612d2c8184612c9d565b905092915050565b612d3d81612b6b565b82525050565b6000602082019050612d586000830184612d34565b92915050565b600061012082019050612d74600083018c6127ee565b612d81602083018b6127ee565b8181036040830152612d93818a612615565b90508181036060830152612da78189612615565b90508181036080830152612dbb8188612615565b905081810360a0830152612dcf8187612615565b9050612dde60c0830186612527565b612deb60e0830185612527565b612df9610100830184612d34565b9a9950505050505050505050565b7f4f6e6c79206661726d6572732063616e2077697468647261772066756e647321600082015250565b6000612e3d6020836125c9565b9150612e4882612e07565b602082019050919050565b60006020820190508181036000830152612e6c81612e30565b9050919050565b7f4e6f2066756e647320746f207769746864726177210000000000000000000000600082015250565b6000612ea96015836125c9565b9150612eb482612e73565b602082019050919050565b60006020820190508181036000830152612ed881612e9c565b9050919050565b600081905092915050565b50565b6000612efa600083612edf565b9150612f0582612eea565b600082019050919050565b6000612f1b82612eed565b9150819050919050565b7f4661696c656420746f207472616e736665722066756e64732100000000000000600082015250565b6000612f5b6019836125c9565b9150612f6682612f25565b602082019050919050565b60006020820190508181036000830152612f8a81612f4e565b9050919050565b7f556e617574686f72697a65642061636365737300000000000000000000000000600082015250565b6000612fc76013836125c9565b9150612fd282612f91565b602082019050919050565b60006020820190508181036000830152612ff681612fba565b9050919050565b7f496e76616c69642044414f204944000000000000000000000000000000000000600082015250565b6000613033600e836125c9565b915061303e82612ffd565b602082019050919050565b6000602082019050818103600083015261306281613026565b9050919050565b7f43616e6e6f742072656d6f766520612076657269666965642044414f00000000600082015250565b600061309f601c836125c9565b91506130aa82613069565b602082019050919050565b600060208201905081810360008301526130ce81613092565b9050919050565b7f4e487b7100000000000000000000000000000000000000000000000000000000600052601160045260246000fd5b600061310f8261251d565b915061311a8361251d565b9250828203905081811115613132576131316130d5565b5b92915050565b7f496e76616c696420696e64657800000000000000000000000000000000000000600082015250565b600061316e600d836125c9565b915061317982613138565b602082019050919050565b6000602082019050818103600083015261319d81613161565b9050919050565b7f4e487b7100000000000000000000000000000000000000000000000000000000600052603260045260246000fd5b7f496e76616c69642044414f20494420696e20746f74616c44414f730000000000600082015250565b6000613209601b836125c9565b9150613214826131d3565b602082019050919050565b60006020820190508181036000830152613238816131fc565b9050919050565b7f4e487b7100000000000000000000000000000000000000000000000000000000600052602260045260246000fd5b6000600282049050600182168061328657607f821691505b6020821081036132995761329861323f565b5b50919050565b6000815490506132ae8161326e565b9050919050565b60008190508160005260206000209050919050565b60006020601f8301049050919050565b600082821b905092915050565b6000600883026133177fffffffffffffffffffffffffffffffffffffffffffffffffffffffffffffffff826132da565b61332186836132da565b95508019841693508086168417925050509392505050565b6000819050919050565b600061335e6133596133548461251d565b613339565b61251d565b9050919050565b6000819050919050565b61337883613343565b61338c61338482613365565b8484546132e7565b825550505050565b600090565b6133a1613394565b6133ac81848461336f565b505050565b5b818110156133d0576133c5600082613399565b6001810190506133b2565b5050565b601f821115613415576133e6816132b5565b6133ef846132ca565b810160208510156133fe578190505b61341261340a856132ca565b8301826133b1565b50505b505050565b600082821c905092915050565b60006134386000198460080261341a565b1980831691505092915050565b60006134518383613427565b9150826002028217905092915050565b81810361346f575050613547565b6134788261329f565b67ffffffffffffffff81111561349157613490612822565b5b61349b825461326e565b6134a68282856133d4565b6000601f8311600181146134d557600084156134c3578287015490505b6134cd8582613445565b865550613540565b601f1984166134e3876132b5565b96506134ee866132b5565b60005b82811015613516578489015482556001820191506001850194506020810190506134f1565b86831015613533578489015461352f601f891682613427565b8355505b6001600288020188555050505b5050505050505b565b7f4e487b7100000000000000000000000000000000000000000000000000000000600052603160045260246000fd5b7f4f6e6c7920616464726573736573207468617420686176656e2774206a6f696e60008201527f6564207468652044414f2063616e20696e766573742e00000000000000000000602082015250565b60006135d46036836125c9565b91506135df82613578565b604082019050919050565b60006020820190508181036000830152613603816135c7565b9050919050565b60006136158261251d565b91506136208361251d565b9250828201905080821115613638576136376130d5565b5b92915050565b600060408201905061365360008301856127ee565b6136606020830184612527565b9392505050565b60006136728261251d565b91507fffffffffffffffffffffffffffffffffffffffffffffffffffffffffffffffff82036136a4576136a36130d5565b5b600182019050919050565b6136b8826125be565b67ffffffffffffffff8111156136d1576136d0612822565b5b6136db825461326e565b6136e68282856133d4565b600060209050601f8311600181146137195760008415613707578287015190505b6137118582613445565b865550613779565b601f198416613727866132b5565b60005b8281101561374f5784890151825560018201915060208501945060208101905061372a565b8683101561376c5784890151613768601f891682613427565b8355505b6001600288020188555050505b50505050505056fea2646970667358221220b0ded16dd0489f652d7358683c1f849c1ac93eef23cafb73531f170bd6a3b3f064736f6c63430008130033",
  "linkReferences": {},
  "deployedLinkReferences": {}
}