{
  "_format": "hh-sol-artifact-1",
  "contractName": "Verify",
  "sourceName": "contracts/Verfify.sol",
  "abi": [
    {
      "inputs": [
        {
          "internalType": "address",
          "name": "farmDAOAddress",
          "type": "address"
        }
      ],
      "stateMutability": "nonpayable",
      "type": "constructor"
    },
    {
      "inputs": [
        {
          "internalType": "uint256",
          "name": "",
          "type": "uint256"
        }
      ],
      "name": "daoVerificationStatus",
      "outputs": [
        {
          "internalType": "bool",
          "name": "",
          "type": "bool"
        }
      ],
      "stateMutability": "view",
      "type": "function"
    },
    {
      "inputs": [],
      "name": "getAllDaos",
      "outputs": [],
      "stateMutability": "nonpayable",
      "type": "function"
    },
    {
      "inputs": [],
      "name": "getVerifiedAddresses",
      "outputs": [
        {
          "internalType": "address[]",
          "name": "",
          "type": "address[]"
        }
      ],
      "stateMutability": "view",
      "type": "function"
    },
    {
      "inputs": [
        {
          "internalType": "address",
          "name": "_address",
          "type": "address"
        }
      ],
      "name": "isAddressVerified",
      "outputs": [
        {
          "internalType": "bool",
          "name": "",
          "type": "bool"
        }
      ],
      "stateMutability": "view",
      "type": "function"
    }
  ],
  "bytecode": "0x608060405234801561001057600080fd5b506040516108b03803806108b0833981810160405281019061003291906103a6565b60007313ef924eb7408e90278b86b659960afb00ddae619080600181540180825580915050600190039060005260206000200160009091909190916101000a81548173ffffffffffffffffffffffffffffffffffffffff021916908373ffffffffffffffffffffffffffffffffffffffff16021790555060007323792579e2979a98d12a33a85e35914079304a569080600181540180825580915050600190039060005260206000200160009091909190916101000a81548173ffffffffffffffffffffffffffffffffffffffff021916908373ffffffffffffffffffffffffffffffffffffffff160217905550600073dc4f6ea5856eda459286e8d0ef42e389d07137ff9080600181540180825580915050600190039060005260206000200160009091909190916101000a81548173ffffffffffffffffffffffffffffffffffffffff021916908373ffffffffffffffffffffffffffffffffffffffff16021790555060007333700a96cc1672c63b0fc750c106d8c3f46463db9080600181540180825580915050600190039060005260206000200160009091909190916101000a81548173ffffffffffffffffffffffffffffffffffffffff021916908373ffffffffffffffffffffffffffffffffffffffff160217905550600073dc4f6ea5856eda459286e8d0ef42e389d07137ff9080600181540180825580915050600190039060005260206000200160009091909190916101000a81548173ffffffffffffffffffffffffffffffffffffffff021916908373ffffffffffffffffffffffffffffffffffffffff16021790555060005b60008054905081101561033c5760018060008084815481106102ad576102ac6103d3565b5b9060005260206000200160009054906101000a900473ffffffffffffffffffffffffffffffffffffffff1673ffffffffffffffffffffffffffffffffffffffff1673ffffffffffffffffffffffffffffffffffffffff16815260200190815260200160002060006101000a81548160ff02191690831515021790555080806103349061043b565b915050610288565b5050610483565b600080fd5b600073ffffffffffffffffffffffffffffffffffffffff82169050919050565b600061037382610348565b9050919050565b61038381610368565b811461038e57600080fd5b50565b6000815190506103a08161037a565b92915050565b6000602082840312156103bc576103bb610343565b5b60006103ca84828501610391565b91505092915050565b7f4e487b7100000000000000000000000000000000000000000000000000000000600052603260045260246000fd5b7f4e487b7100000000000000000000000000000000000000000000000000000000600052601160045260246000fd5b6000819050919050565b600061044682610431565b91507fffffffffffffffffffffffffffffffffffffffffffffffffffffffffffffffff820361047857610477610402565b5b600182019050919050565b61041e806104926000396000f3fe608060405234801561001057600080fd5b506004361061004c5760003560e01c8063411c186a1461005157806352ff15cd14610081578063aa5b6d4c1461009f578063da9dd8bf146100a9575b600080fd5b61006b6004803603810190610066919061021a565b6100d9565b6040516100789190610262565b60405180910390f35b6100896100f9565b604051610096919061036d565b60405180910390f35b6100a7610187565b005b6100c360048036038101906100be91906103bb565b610189565b6040516100d09190610262565b60405180910390f35b60026020528060005260406000206000915054906101000a900460ff1681565b6060600080548060200260200160405190810160405280929190818152602001828054801561017d57602002820191906000526020600020905b8160009054906101000a900473ffffffffffffffffffffffffffffffffffffffff1673ffffffffffffffffffffffffffffffffffffffff1681526020019060010190808311610133575b5050505050905090565b565b6000600160008373ffffffffffffffffffffffffffffffffffffffff1673ffffffffffffffffffffffffffffffffffffffff16815260200190815260200160002060009054906101000a900460ff169050919050565b600080fd5b6000819050919050565b6101f7816101e4565b811461020257600080fd5b50565b600081359050610214816101ee565b92915050565b6000602082840312156102305761022f6101df565b5b600061023e84828501610205565b91505092915050565b60008115159050919050565b61025c81610247565b82525050565b60006020820190506102776000830184610253565b92915050565b600081519050919050565b600082825260208201905092915050565b6000819050602082019050919050565b600073ffffffffffffffffffffffffffffffffffffffff82169050919050565b60006102d4826102a9565b9050919050565b6102e4816102c9565b82525050565b60006102f683836102db565b60208301905092915050565b6000602082019050919050565b600061031a8261027d565b6103248185610288565b935061032f83610299565b8060005b8381101561036057815161034788826102ea565b975061035283610302565b925050600181019050610333565b5085935050505092915050565b60006020820190508181036000830152610387818461030f565b905092915050565b610398816102c9565b81146103a357600080fd5b50565b6000813590506103b58161038f565b92915050565b6000602082840312156103d1576103d06101df565b5b60006103df848285016103a6565b9150509291505056fea26469706673582212200f1a29f1e5d9deb377fe9395ef958487dadeaea24e7b59c7e4b832cdb6de938164736f6c63430008120033",
  "linkReferences": {},
  "deployedLinkReferences": {}
}